{
	"contracts/src/SessionRegistry.sol": {
		"SessionRegistry": {
			"abi": [
				{
					"inputs": [
						{
							"internalType": "address",
							"name": "initialOwner",
							"type": "address"
						}
					],
					"stateMutability": "nonpayable",
					"type": "constructor"
				},
				{
					"inputs": [
						{
							"internalType": "address",
							"name": "caller",
							"type": "address"
						}
					],
					"name": "NotGateway",
					"type": "error"
				},
				{
					"inputs": [
						{
							"internalType": "address",
							"name": "owner",
							"type": "address"
						}
					],
					"name": "OwnableInvalidOwner",
					"type": "error"
				},
				{
					"inputs": [
						{
							"internalType": "address",
							"name": "account",
							"type": "address"
						}
					],
					"name": "OwnableUnauthorizedAccount",
					"type": "error"
				},
				{
					"inputs": [],
					"name": "ZeroAddress",
					"type": "error"
				},
				{
					"anonymous": false,
					"inputs": [
						{
							"indexed": true,
							"internalType": "address",
							"name": "oldGateway",
							"type": "address"
						},
						{
							"indexed": true,
							"internalType": "address",
							"name": "newGateway",
							"type": "address"
						}
					],
					"name": "GatewayUpdated",
					"type": "event"
				},
				{
					"anonymous": false,
					"inputs": [
						{
							"indexed": true,
							"internalType": "address",
							"name": "previousOwner",
							"type": "address"
						},
						{
							"indexed": true,
							"internalType": "address",
							"name": "newOwner",
							"type": "address"
						}
					],
					"name": "OwnershipTransferStarted",
					"type": "event"
				},
				{
					"anonymous": false,
					"inputs": [
						{
							"indexed": true,
							"internalType": "address",
							"name": "previousOwner",
							"type": "address"
						},
						{
							"indexed": true,
							"internalType": "address",
							"name": "newOwner",
							"type": "address"
						}
					],
					"name": "OwnershipTransferred",
					"type": "event"
				},
				{
					"anonymous": false,
					"inputs": [
						{
							"indexed": true,
							"internalType": "address",
							"name": "user",
							"type": "address"
						},
						{
							"indexed": true,
							"internalType": "bytes32",
							"name": "deviceId",
							"type": "bytes32"
						}
					],
					"name": "SessionDeleted",
					"type": "event"
				},
				{
					"anonymous": false,
					"inputs": [
						{
							"indexed": true,
							"internalType": "address",
							"name": "user",
							"type": "address"
						},
						{
							"indexed": true,
							"internalType": "bytes32",
							"name": "deviceId",
							"type": "bytes32"
						},
						{
							"indexed": false,
							"internalType": "uint256",
							"name": "expiresAt",
							"type": "uint256"
						}
					],
					"name": "SessionWritten",
					"type": "event"
				},
				{
					"inputs": [],
					"name": "acceptOwnership",
					"outputs": [],
					"stateMutability": "nonpayable",
					"type": "function"
				},
				{
					"inputs": [
						{
							"internalType": "address",
							"name": "user",
							"type": "address"
						},
						{
							"internalType": "bytes32",
							"name": "deviceId",
							"type": "bytes32"
						}
					],
					"name": "deleteSession",
					"outputs": [],
					"stateMutability": "nonpayable",
					"type": "function"
				},
				{
					"inputs": [
						{
							"internalType": "address",
							"name": "user",
							"type": "address"
						},
						{
							"internalType": "bytes32",
							"name": "deviceId",
							"type": "bytes32"
						},
						{
							"internalType": "uint256",
							"name": "additionalSeconds",
							"type": "uint256"
						},
						{
							"internalType": "uint256",
							"name": "tierId",
							"type": "uint256"
						},
						{
							"internalType": "uint256",
							"name": "paidWei",
							"type": "uint256"
						}
					],
					"name": "extendSession",
					"outputs": [],
					"stateMutability": "nonpayable",
					"type": "function"
				},
				{
					"inputs": [],
					"name": "gateway",
					"outputs": [
						{
							"internalType": "address",
							"name": "",
							"type": "address"
						}
					],
					"stateMutability": "view",
					"type": "function"
				},
				{
					"inputs": [],
					"name": "getActiveSessions",
					"outputs": [
						{
							"internalType": "address[]",
							"name": "users",
							"type": "address[]"
						},
						{
							"internalType": "bytes32[]",
							"name": "deviceIds",
							"type": "bytes32[]"
						},
						{
							"internalType": "uint256[]",
							"name": "expiries",
							"type": "uint256[]"
						}
					],
					"stateMutability": "view",
					"type": "function"
				},
				{
					"inputs": [
						{
							"internalType": "address",
							"name": "user",
							"type": "address"
						}
					],
					"name": "getDevicesForUser",
					"outputs": [
						{
							"internalType": "bytes32[]",
							"name": "",
							"type": "bytes32[]"
						}
					],
					"stateMutability": "view",
					"type": "function"
				},
				{
					"inputs": [
						{
							"internalType": "address",
							"name": "user",
							"type": "address"
						},
						{
							"internalType": "bytes32",
							"name": "deviceId",
							"type": "bytes32"
						}
					],
					"name": "getExpiry",
					"outputs": [
						{
							"internalType": "uint256",
							"name": "",
							"type": "uint256"
						}
					],
					"stateMutability": "view",
					"type": "function"
				},
				{
					"inputs": [
						{
							"internalType": "address",
							"name": "user",
							"type": "address"
						},
						{
							"internalType": "bytes32",
							"name": "deviceId",
							"type": "bytes32"
						}
					],
					"name": "getSession",
					"outputs": [
						{
							"components": [
								{
									"internalType": "uint256",
									"name": "expiresAt",
									"type": "uint256"
								},
								{
									"internalType": "uint256",
									"name": "tierId",
									"type": "uint256"
								},
								{
									"internalType": "uint256",
									"name": "totalPaid",
									"type": "uint256"
								},
								{
									"internalType": "uint256",
									"name": "purchaseCount",
									"type": "uint256"
								}
							],
							"internalType": "struct SessionRegistry.Session",
							"name": "",
							"type": "tuple"
						}
					],
					"stateMutability": "view",
					"type": "function"
				},
				{
					"inputs": [
						{
							"internalType": "address",
							"name": "user",
							"type": "address"
						},
						{
							"internalType": "bytes32",
							"name": "deviceId",
							"type": "bytes32"
						}
					],
					"name": "isActive",
					"outputs": [
						{
							"internalType": "bool",
							"name": "",
							"type": "bool"
						}
					],
					"stateMutability": "view",
					"type": "function"
				},
				{
					"inputs": [],
					"name": "owner",
					"outputs": [
						{
							"internalType": "address",
							"name": "",
							"type": "address"
						}
					],
					"stateMutability": "view",
					"type": "function"
				},
				{
					"inputs": [],
					"name": "pendingOwner",
					"outputs": [
						{
							"internalType": "address",
							"name": "",
							"type": "address"
						}
					],
					"stateMutability": "view",
					"type": "function"
				},
				{
					"inputs": [
						{
							"internalType": "address",
							"name": "user",
							"type": "address"
						},
						{
							"internalType": "bytes32",
							"name": "deviceId",
							"type": "bytes32"
						}
					],
					"name": "remainingSeconds",
					"outputs": [
						{
							"internalType": "uint256",
							"name": "",
							"type": "uint256"
						}
					],
					"stateMutability": "view",
					"type": "function"
				},
				{
					"inputs": [],
					"name": "renounceOwnership",
					"outputs": [],
					"stateMutability": "nonpayable",
					"type": "function"
				},
				{
					"inputs": [
						{
							"internalType": "address",
							"name": "newGateway",
							"type": "address"
						}
					],
					"name": "setGateway",
					"outputs": [],
					"stateMutability": "nonpayable",
					"type": "function"
				},
				{
					"inputs": [],
					"name": "totalUsers",
					"outputs": [
						{
							"internalType": "uint256",
							"name": "",
							"type": "uint256"
						}
					],
					"stateMutability": "view",
					"type": "function"
				},
				{
					"inputs": [
						{
							"internalType": "address",
							"name": "newOwner",
							"type": "address"
						}
					],
					"name": "transferOwnership",
					"outputs": [],
					"stateMutability": "nonpayable",
					"type": "function"
				},
				{
					"inputs": [
						{
							"internalType": "address",
							"name": "user",
							"type": "address"
						},
						{
							"internalType": "bytes32",
							"name": "deviceId",
							"type": "bytes32"
						},
						{
							"internalType": "uint256",
							"name": "expiresAt",
							"type": "uint256"
						},
						{
							"internalType": "uint256",
							"name": "tierId",
							"type": "uint256"
						},
						{
							"internalType": "uint256",
							"name": "paidWei",
							"type": "uint256"
						}
					],
					"name": "upsertSession",
					"outputs": [],
					"stateMutability": "nonpayable",
					"type": "function"
				},
				{
					"inputs": [
						{
							"internalType": "uint256",
							"name": "index",
							"type": "uint256"
						}
					],
					"name": "userAt",
					"outputs": [
						{
							"internalType": "address",
							"name": "",
							"type": "address"
						}
					],
					"stateMutability": "view",
					"type": "function"
				}
			],
			"devdoc": {
				"details": "Only the authorized gateway (set at deploy time) may write to this contract.      The owner may reassign the gateway address if the logic contract is upgraded.",
				"errors": {
					"OwnableInvalidOwner(address)": [
						{
							"details": "The owner is not a valid owner account. (eg. `address(0)`)"
						}
					],
					"OwnableUnauthorizedAccount(address)": [
						{
							"details": "The caller account is not authorized to perform an operation."
						}
					]
				},
				"kind": "dev",
				"methods": {
					"acceptOwnership()": {
						"details": "The new owner accepts the ownership transfer."
					},
					"constructor": {
						"params": {
							"initialOwner": "Deployer / multisig that controls governance"
						}
					},
					"owner()": {
						"details": "Returns the address of the current owner."
					},
					"pendingOwner()": {
						"details": "Returns the address of the pending owner."
					},
					"renounceOwnership()": {
						"details": "Leaves the contract without owner. It will not be possible to call `onlyOwner` functions. Can only be called by the current owner. NOTE: Renouncing ownership will leave the contract without an owner, thereby disabling any functionality that is only available to the owner."
					},
					"setGateway(address)": {
						"details": "Call this after deploying a new AccessGateway to migrate write access"
					}
				},
				"stateVariables": {
					"_sessionUsers": {
						"details": "Flat list of all (user, deviceId) pairs — used for enumeration by the worker"
					},
					"_sessions": {
						"details": "user address => deviceId => Session"
					}
				},
				"title": "SessionRegistry",
				"version": 1
			},
			"evm": {
				"assembly": "    /* \"contracts/src/SessionRegistry.sol\":576:10034  contract SessionRegistry is Ownable, Ownable2Step {... */\n  mstore(0x40, 0x80)\n    /* \"contracts/src/SessionRegistry.sol\":3273:3400  constructor(address initialOwner) Ownable(initialOwner) {... */\n  callvalue\n  dup1\n  iszero\n  tag_1\n  jumpi\n  revert(0x00, 0x00)\ntag_1:\n  pop\n  mload(0x40)\n  sub(codesize, bytecodeSize)\n  dup1\n  bytecodeSize\n  dup4\n  codecopy\n  dup2\n  dup2\n  add\n  0x40\n  mstore\n  dup2\n  add\n  swap1\n  tag_2\n  swap2\n  swap1\n  tag_3\n  jump\t// in\ntag_2:\n    /* \"contracts/src/SessionRegistry.sol\":3315:3327  initialOwner */\n  dup1\n    /* \"@openzeppelin/contracts/access/Ownable.sol\":1297:1298  0 */\n  0x00\n    /* \"@openzeppelin/contracts/access/Ownable.sol\":1273:1299  initialOwner == address(0) */\n  0xffffffffffffffffffffffffffffffffffffffff\n  and\n    /* \"@openzeppelin/contracts/access/Ownable.sol\":1273:1285  initialOwner */\n  dup2\n    /* \"@openzeppelin/contracts/access/Ownable.sol\":1273:1299  initialOwner == address(0) */\n  0xffffffffffffffffffffffffffffffffffffffff\n  and\n  sub\n    /* \"@openzeppelin/contracts/access/Ownable.sol\":1269:1364  if (initialOwner == address(0)) {... */\n  tag_7\n  jumpi\n    /* \"@openzeppelin/contracts/access/Ownable.sol\":1350:1351  0 */\n  0x00\n    /* \"@openzeppelin/contracts/access/Ownable.sol\":1322:1353  OwnableInvalidOwner(address(0)) */\n  mload(0x40)\n  0x1e4fbdf700000000000000000000000000000000000000000000000000000000\n  dup2\n  mstore\n  0x04\n  add\n  tag_8\n  swap2\n  swap1\n  tag_9\n  jump\t// in\ntag_8:\n  mload(0x40)\n  dup1\n  swap2\n  sub\n  swap1\n  revert\n    /* \"@openzeppelin/contracts/access/Ownable.sol\":1269:1364  if (initialOwner == address(0)) {... */\ntag_7:\n    /* \"@openzeppelin/contracts/access/Ownable.sol\":1373:1405  _transferOwnership(initialOwner) */\n  tag_10\n    /* \"@openzeppelin/contracts/access/Ownable.sol\":1392:1404  initialOwner */\n  dup2\n    /* \"@openzeppelin/contracts/access/Ownable.sol\":1373:1391  _transferOwnership */\n  shl(0x20, tag_11)\n    /* \"@openzeppelin/contracts/access/Ownable.sol\":1373:1405  _transferOwnership(initialOwner) */\n  0x20\n  shr\n  jump\t// in\ntag_10:\n    /* \"@openzeppelin/contracts/access/Ownable.sol\":1225:1412  constructor(address initialOwner) {... */\n  pop\n    /* \"contracts/src/SessionRegistry.sol\":3368:3369  0 */\n  0x00\n    /* \"contracts/src/SessionRegistry.sol\":3344:3370  initialOwner == address(0) */\n  0xffffffffffffffffffffffffffffffffffffffff\n  and\n    /* \"contracts/src/SessionRegistry.sol\":3344:3356  initialOwner */\n  dup2\n    /* \"contracts/src/SessionRegistry.sol\":3344:3370  initialOwner == address(0) */\n  0xffffffffffffffffffffffffffffffffffffffff\n  and\n  sub\n    /* \"contracts/src/SessionRegistry.sol\":3340:3392  if (initialOwner == address(0)) revert ZeroAddress() */\n  tag_13\n  jumpi\n    /* \"contracts/src/SessionRegistry.sol\":3379:3392  ZeroAddress() */\n  mload(0x40)\n  0xd92e233d00000000000000000000000000000000000000000000000000000000\n  dup2\n  mstore\n  0x04\n  add\n  mload(0x40)\n  dup1\n  swap2\n  sub\n  swap1\n  revert\n    /* \"contracts/src/SessionRegistry.sol\":3340:3392  if (initialOwner == address(0)) revert ZeroAddress() */\ntag_13:\n    /* \"contracts/src/SessionRegistry.sol\":3273:3400  constructor(address initialOwner) Ownable(initialOwner) {... */\n  pop\n    /* \"contracts/src/SessionRegistry.sol\":576:10034  contract SessionRegistry is Ownable, Ownable2Step {... */\n  jump(tag_14)\n    /* \"contracts/src/SessionRegistry.sol\":3691:3871  function _transferOwnership(address newOwner)... */\ntag_11:\n    /* \"contracts/src/SessionRegistry.sol\":3829:3863  super._transferOwnership(newOwner) */\n  tag_16\n    /* \"contracts/src/SessionRegistry.sol\":3854:3862  newOwner */\n  dup2\n    /* \"contracts/src/SessionRegistry.sol\":3829:3853  super._transferOwnership */\n  shl(0x20, tag_17)\n    /* \"contracts/src/SessionRegistry.sol\":3829:3863  super._transferOwnership(newOwner) */\n  0x20\n  shr\n  jump\t// in\ntag_16:\n    /* \"contracts/src/SessionRegistry.sol\":3691:3871  function _transferOwnership(address newOwner)... */\n  pop\n  jump\t// out\n    /* \"@openzeppelin/contracts/access/Ownable2Step.sol\":2011:2164  function _transferOwnership(address newOwner) internal virtual override {... */\ntag_17:\n    /* \"@openzeppelin/contracts/access/Ownable2Step.sol\":2100:2113  _pendingOwner */\n  0x01\n  0x00\n    /* \"@openzeppelin/contracts/access/Ownable2Step.sol\":2093:2113  delete _pendingOwner */\n  0x0100\n  exp\n  dup2\n  sload\n  swap1\n  0xffffffffffffffffffffffffffffffffffffffff\n  mul\n  not\n  and\n  swap1\n  sstore\n    /* \"@openzeppelin/contracts/access/Ownable2Step.sol\":2123:2157  super._transferOwnership(newOwner) */\n  tag_19\n    /* \"@openzeppelin/contracts/access/Ownable2Step.sol\":2148:2156  newOwner */\n  dup2\n    /* \"@openzeppelin/contracts/access/Ownable2Step.sol\":2123:2147  super._transferOwnership */\n  shl(0x20, tag_20)\n    /* \"@openzeppelin/contracts/access/Ownable2Step.sol\":2123:2157  super._transferOwnership(newOwner) */\n  0x20\n  shr\n  jump\t// in\ntag_19:\n    /* \"@openzeppelin/contracts/access/Ownable2Step.sol\":2011:2164  function _transferOwnership(address newOwner) internal virtual override {... */\n  pop\n  jump\t// out\n    /* \"@openzeppelin/contracts/access/Ownable.sol\":2912:3099  function _transferOwnership(address newOwner) internal virtual {... */\ntag_20:\n    /* \"@openzeppelin/contracts/access/Ownable.sol\":2985:3001  address oldOwner */\n  0x00\n    /* \"@openzeppelin/contracts/access/Ownable.sol\":3004:3010  _owner */\n  0x00\n  0x00\n  swap1\n  sload\n  swap1\n  0x0100\n  exp\n  swap1\n  div\n  0xffffffffffffffffffffffffffffffffffffffff\n  and\n    /* \"@openzeppelin/contracts/access/Ownable.sol\":2985:3010  address oldOwner = _owner */\n  swap1\n  pop\n    /* \"@openzeppelin/contracts/access/Ownable.sol\":3029:3037  newOwner */\n  dup2\n    /* \"@openzeppelin/contracts/access/Ownable.sol\":3020:3026  _owner */\n  0x00\n  0x00\n    /* \"@openzeppelin/contracts/access/Ownable.sol\":3020:3037  _owner = newOwner */\n  0x0100\n  exp\n  dup2\n  sload\n  dup2\n  0xffffffffffffffffffffffffffffffffffffffff\n  mul\n  not\n  and\n  swap1\n  dup4\n  0xffffffffffffffffffffffffffffffffffffffff\n  and\n  mul\n  or\n  swap1\n  sstore\n  pop\n    /* \"@openzeppelin/contracts/access/Ownable.sol\":3083:3091  newOwner */\n  dup2\n    /* \"@openzeppelin/contracts/access/Ownable.sol\":3052:3092  OwnershipTransferred(oldOwner, newOwner) */\n  0xffffffffffffffffffffffffffffffffffffffff\n  and\n    /* \"@openzeppelin/contracts/access/Ownable.sol\":3073:3081  oldOwner */\n  dup2\n    /* \"@openzeppelin/contracts/access/Ownable.sol\":3052:3092  OwnershipTransferred(oldOwner, newOwner) */\n  0xffffffffffffffffffffffffffffffffffffffff\n  and\n  0x8be0079c531659141344cd1fd0a4f28419497f9722a3daafe3b4186f6b6457e0\n  mload(0x40)\n  mload(0x40)\n  dup1\n  swap2\n  sub\n  swap1\n  log3\n    /* \"@openzeppelin/contracts/access/Ownable.sol\":2975:3099  {... */\n  pop\n    /* \"@openzeppelin/contracts/access/Ownable.sol\":2912:3099  function _transferOwnership(address newOwner) internal virtual {... */\n  pop\n  jump\t// out\n    /* \"#utility.yul\":88:205   */\ntag_23:\n    /* \"#utility.yul\":197:198   */\n  0x00\n    /* \"#utility.yul\":194:195   */\n  0x00\n    /* \"#utility.yul\":187:199   */\n  revert\n    /* \"#utility.yul\":334:460   */\ntag_25:\n    /* \"#utility.yul\":371:378   */\n  0x00\n    /* \"#utility.yul\":411:453   */\n  0xffffffffffffffffffffffffffffffffffffffff\n    /* \"#utility.yul\":404:409   */\n  dup3\n    /* \"#utility.yul\":400:454   */\n  and\n    /* \"#utility.yul\":389:454   */\n  swap1\n  pop\n    /* \"#utility.yul\":334:460   */\n  swap2\n  swap1\n  pop\n  jump\t// out\n    /* \"#utility.yul\":466:562   */\ntag_26:\n    /* \"#utility.yul\":503:510   */\n  0x00\n    /* \"#utility.yul\":532:556   */\n  tag_36\n    /* \"#utility.yul\":550:555   */\n  dup3\n    /* \"#utility.yul\":532:556   */\n  tag_25\n  jump\t// in\ntag_36:\n    /* \"#utility.yul\":521:556   */\n  swap1\n  pop\n    /* \"#utility.yul\":466:562   */\n  swap2\n  swap1\n  pop\n  jump\t// out\n    /* \"#utility.yul\":568:690   */\ntag_27:\n    /* \"#utility.yul\":641:665   */\n  tag_38\n    /* \"#utility.yul\":659:664   */\n  dup2\n    /* \"#utility.yul\":641:665   */\n  tag_26\n  jump\t// in\ntag_38:\n    /* \"#utility.yul\":634:639   */\n  dup2\n    /* \"#utility.yul\":631:666   */\n  eq\n    /* \"#utility.yul\":621:684   */\n  tag_39\n  jumpi\n    /* \"#utility.yul\":680:681   */\n  0x00\n    /* \"#utility.yul\":677:678   */\n  0x00\n    /* \"#utility.yul\":670:682   */\n  revert\n    /* \"#utility.yul\":621:684   */\ntag_39:\n    /* \"#utility.yul\":568:690   */\n  pop\n  jump\t// out\n    /* \"#utility.yul\":696:839   */\ntag_28:\n    /* \"#utility.yul\":753:758   */\n  0x00\n    /* \"#utility.yul\":784:790   */\n  dup2\n    /* \"#utility.yul\":778:791   */\n  mload\n    /* \"#utility.yul\":769:791   */\n  swap1\n  pop\n    /* \"#utility.yul\":800:833   */\n  tag_41\n    /* \"#utility.yul\":827:832   */\n  dup2\n    /* \"#utility.yul\":800:833   */\n  tag_27\n  jump\t// in\ntag_41:\n    /* \"#utility.yul\":696:839   */\n  swap3\n  swap2\n  pop\n  pop\n  jump\t// out\n    /* \"#utility.yul\":845:1196   */\ntag_3:\n    /* \"#utility.yul\":915:921   */\n  0x00\n    /* \"#utility.yul\":964:966   */\n  0x20\n    /* \"#utility.yul\":952:961   */\n  dup3\n    /* \"#utility.yul\":943:950   */\n  dup5\n    /* \"#utility.yul\":939:962   */\n  sub\n    /* \"#utility.yul\":935:967   */\n  slt\n    /* \"#utility.yul\":932:1051   */\n  iszero\n  tag_43\n  jumpi\n    /* \"#utility.yul\":970:1049   */\n  tag_44\n  tag_23\n  jump\t// in\ntag_44:\n    /* \"#utility.yul\":932:1051   */\ntag_43:\n    /* \"#utility.yul\":1090:1091   */\n  0x00\n    /* \"#utility.yul\":1115:1179   */\n  tag_45\n    /* \"#utility.yul\":1171:1178   */\n  dup5\n    /* \"#utility.yul\":1162:1168   */\n  dup3\n    /* \"#utility.yul\":1151:1160   */\n  dup6\n    /* \"#utility.yul\":1147:1169   */\n  add\n    /* \"#utility.yul\":1115:1179   */\n  tag_28\n  jump\t// in\ntag_45:\n    /* \"#utility.yul\":1105:1179   */\n  swap2\n  pop\n    /* \"#utility.yul\":1061:1189   */\n  pop\n    /* \"#utility.yul\":845:1196   */\n  swap3\n  swap2\n  pop\n  pop\n  jump\t// out\n    /* \"#utility.yul\":1202:1320   */\ntag_29:\n    /* \"#utility.yul\":1289:1313   */\n  tag_47\n    /* \"#utility.yul\":1307:1312   */\n  dup2\n    /* \"#utility.yul\":1289:1313   */\n  tag_26\n  jump\t// in\ntag_47:\n    /* \"#utility.yul\":1284:1287   */\n  dup3\n    /* \"#utility.yul\":1277:1314   */\n  mstore\n    /* \"#utility.yul\":1202:1320   */\n  pop\n  pop\n  jump\t// out\n    /* \"#utility.yul\":1326:1548   */\ntag_9:\n    /* \"#utility.yul\":1419:1423   */\n  0x00\n    /* \"#utility.yul\":1457:1459   */\n  0x20\n    /* \"#utility.yul\":1446:1455   */\n  dup3\n    /* \"#utility.yul\":1442:1460   */\n  add\n    /* \"#utility.yul\":1434:1460   */\n  swap1\n  pop\n    /* \"#utility.yul\":1470:1541   */\n  tag_49\n    /* \"#utility.yul\":1538:1539   */\n  0x00\n    /* \"#utility.yul\":1527:1536   */\n  dup4\n    /* \"#utility.yul\":1523:1540   */\n  add\n    /* \"#utility.yul\":1514:1520   */\n  dup5\n    /* \"#utility.yul\":1470:1541   */\n  tag_29\n  jump\t// in\ntag_49:\n    /* \"#utility.yul\":1326:1548   */\n  swap3\n  swap2\n  pop\n  pop\n  jump\t// out\n    /* \"contracts/src/SessionRegistry.sol\":576:10034  contract SessionRegistry is Ownable, Ownable2Step {... */\ntag_14:\n  dataSize(sub_0)\n  dup1\n  dataOffset(sub_0)\n  0x00\n  codecopy\n  0x00\n  return\nstop\n\nsub_0: assembly {\n        /* \"contracts/src/SessionRegistry.sol\":576:10034  contract SessionRegistry is Ownable, Ownable2Step {... */\n      mstore(0x40, 0x80)\n      callvalue\n      dup1\n      iszero\n      tag_1\n      jumpi\n      revert(0x00, 0x00)\n    tag_1:\n      pop\n      jumpi(tag_2, lt(calldatasize, 0x04))\n      shr(0xe0, calldataload(0x00))\n      dup1\n      0x90646b4a\n      gt\n      tag_21\n      jumpi\n      dup1\n      0xbe2ccf92\n      gt\n      tag_22\n      jumpi\n      dup1\n      0xbe2ccf92\n      eq\n      tag_16\n      jumpi\n      dup1\n      0xbff1f9e1\n      eq\n      tag_17\n      jumpi\n      dup1\n      0xe00afc76\n      eq\n      tag_18\n      jumpi\n      dup1\n      0xe30c3978\n      eq\n      tag_19\n      jumpi\n      dup1\n      0xf2fde38b\n      eq\n      tag_20\n      jumpi\n      jump(tag_2)\n    tag_22:\n      dup1\n      0x90646b4a\n      eq\n      tag_12\n      jumpi\n      dup1\n      0xa0081805\n      eq\n      tag_13\n      jumpi\n      dup1\n      0xab8ea707\n      eq\n      tag_14\n      jumpi\n      dup1\n      0xbd9a8459\n      eq\n      tag_15\n      jumpi\n      jump(tag_2)\n    tag_21:\n      dup1\n      0x715018a6\n      gt\n      tag_23\n      jumpi\n      dup1\n      0x715018a6\n      eq\n      tag_7\n      jumpi\n      dup1\n      0x79ba5097\n      eq\n      tag_8\n      jumpi\n      dup1\n      0x84a8f0ce\n      eq\n      tag_9\n      jumpi\n      dup1\n      0x8da5cb5b\n      eq\n      tag_10\n      jumpi\n      dup1\n      0x8fba5aaa\n      eq\n      tag_11\n      jumpi\n      jump(tag_2)\n    tag_23:\n      dup1\n      0x116191b6\n      eq\n      tag_3\n      jumpi\n      dup1\n      0x21922e3c\n      eq\n      tag_4\n      jumpi\n      dup1\n      0x3b49ad47\n      eq\n      tag_5\n      jumpi\n      dup1\n      0x598a96bf\n      eq\n      tag_6\n      jumpi\n    tag_2:\n      revert(0x00, 0x00)\n        /* \"contracts/src/SessionRegistry.sol\":1801:1823  address public gateway */\n    tag_3:\n      tag_24\n      tag_25\n      jump\t// in\n    tag_24:\n      mload(0x40)\n      tag_26\n      swap2\n      swap1\n      tag_27\n      jump\t// in\n    tag_26:\n      mload(0x40)\n      dup1\n      swap2\n      sub\n      swap1\n      return\n        /* \"contracts/src/SessionRegistry.sol\":4784:5608  function upsertSession(... */\n    tag_4:\n      tag_28\n      0x04\n      dup1\n      calldatasize\n      sub\n      dup2\n      add\n      swap1\n      tag_29\n      swap2\n      swap1\n      tag_30\n      jump\t// in\n    tag_29:\n      tag_31\n      jump\t// in\n    tag_28:\n      stop\n        /* \"contracts/src/SessionRegistry.sol\":7102:7246  function getExpiry(address user, bytes32 deviceId) external view returns (uint256) {... */\n    tag_5:\n      tag_32\n      0x04\n      dup1\n      calldatasize\n      sub\n      dup2\n      add\n      swap1\n      tag_33\n      swap2\n      swap1\n      tag_34\n      jump\t// in\n    tag_33:\n      tag_35\n      jump\t// in\n    tag_32:\n      mload(0x40)\n      tag_36\n      swap2\n      swap1\n      tag_37\n      jump\t// in\n    tag_36:\n      mload(0x40)\n      dup1\n      swap2\n      sub\n      swap1\n      return\n        /* \"contracts/src/SessionRegistry.sol\":8259:8368  function userAt(uint256 index) external view returns (address) {... */\n    tag_6:\n      tag_38\n      0x04\n      dup1\n      calldatasize\n      sub\n      dup2\n      add\n      swap1\n      tag_39\n      swap2\n      swap1\n      tag_40\n      jump\t// in\n    tag_39:\n      tag_41\n      jump\t// in\n    tag_38:\n      mload(0x40)\n      tag_42\n      swap2\n      swap1\n      tag_27\n      jump\t// in\n    tag_42:\n      mload(0x40)\n      dup1\n      swap2\n      sub\n      swap1\n      return\n        /* \"@openzeppelin/contracts/access/Ownable.sol\":2293:2394  function renounceOwnership() public virtual onlyOwner {... */\n    tag_7:\n      tag_43\n      tag_44\n      jump\t// in\n    tag_43:\n      stop\n        /* \"@openzeppelin/contracts/access/Ownable2Step.sol\":2244:2473  function acceptOwnership() public virtual {... */\n    tag_8:\n      tag_45\n      tag_46\n      jump\t// in\n    tag_45:\n      stop\n        /* \"contracts/src/SessionRegistry.sol\":7318:7476  function isActive(address user, bytes32 deviceId) external view returns (bool) {... */\n    tag_9:\n      tag_47\n      0x04\n      dup1\n      calldatasize\n      sub\n      dup2\n      add\n      swap1\n      tag_48\n      swap2\n      swap1\n      tag_34\n      jump\t// in\n    tag_48:\n      tag_49\n      jump\t// in\n    tag_47:\n      mload(0x40)\n      tag_50\n      swap2\n      swap1\n      tag_51\n      jump\t// in\n    tag_50:\n      mload(0x40)\n      dup1\n      swap2\n      sub\n      swap1\n      return\n        /* \"@openzeppelin/contracts/access/Ownable.sol\":1638:1723  function owner() public view virtual returns (address) {... */\n    tag_10:\n      tag_52\n      tag_53\n      jump\t// in\n    tag_52:\n      mload(0x40)\n      tag_54\n      swap2\n      swap1\n      tag_27\n      jump\t// in\n    tag_54:\n      mload(0x40)\n      dup1\n      swap2\n      sub\n      swap1\n      return\n        /* \"contracts/src/SessionRegistry.sol\":5701:6330  function extendSession(... */\n    tag_11:\n      tag_55\n      0x04\n      dup1\n      calldatasize\n      sub\n      dup2\n      add\n      swap1\n      tag_56\n      swap2\n      swap1\n      tag_30\n      jump\t// in\n    tag_56:\n      tag_57\n      jump\t// in\n    tag_55:\n      stop\n        /* \"contracts/src/SessionRegistry.sol\":4250:4488  function setGateway(address newGateway) external onlyOwner {... */\n    tag_12:\n      tag_58\n      0x04\n      dup1\n      calldatasize\n      sub\n      dup2\n      add\n      swap1\n      tag_59\n      swap2\n      swap1\n      tag_60\n      jump\t// in\n    tag_59:\n      tag_61\n      jump\t// in\n    tag_58:\n      stop\n        /* \"contracts/src/SessionRegistry.sol\":8646:10031  function getActiveSessions()... */\n    tag_13:\n      tag_62\n      tag_63\n      jump\t// in\n    tag_62:\n      mload(0x40)\n      tag_64\n      swap4\n      swap3\n      swap2\n      swap1\n      tag_65\n      jump\t// in\n    tag_64:\n      mload(0x40)\n      dup1\n      swap2\n      sub\n      swap1\n      return\n        /* \"contracts/src/SessionRegistry.sol\":6406:6579  function deleteSession(address user, bytes32 deviceId) external onlyGateway {... */\n    tag_14:\n      tag_66\n      0x04\n      dup1\n      calldatasize\n      sub\n      dup2\n      add\n      swap1\n      tag_67\n      swap2\n      swap1\n      tag_34\n      jump\t// in\n    tag_67:\n      tag_68\n      jump\t// in\n    tag_66:\n      stop\n        /* \"contracts/src/SessionRegistry.sol\":8423:8549  function getDevicesForUser(address user) external view returns (bytes32[] memory) {... */\n    tag_15:\n      tag_69\n      0x04\n      dup1\n      calldatasize\n      sub\n      dup2\n      add\n      swap1\n      tag_70\n      swap2\n      swap1\n      tag_60\n      jump\t// in\n    tag_70:\n      tag_71\n      jump\t// in\n    tag_69:\n      mload(0x40)\n      tag_72\n      swap2\n      swap1\n      tag_73\n      jump\t// in\n    tag_72:\n      mload(0x40)\n      dup1\n      swap2\n      sub\n      swap1\n      return\n        /* \"contracts/src/SessionRegistry.sol\":6846:7020  function getSession(address user, bytes32 deviceId)... */\n    tag_16:\n      tag_74\n      0x04\n      dup1\n      calldatasize\n      sub\n      dup2\n      add\n      swap1\n      tag_75\n      swap2\n      swap1\n      tag_34\n      jump\t// in\n    tag_75:\n      tag_76\n      jump\t// in\n    tag_74:\n      mload(0x40)\n      tag_77\n      swap2\n      swap1\n      tag_78\n      jump\t// in\n    tag_77:\n      mload(0x40)\n      dup1\n      swap2\n      sub\n      swap1\n      return\n        /* \"contracts/src/SessionRegistry.sol\":8092:8192  function totalUsers() external view returns (uint256) {... */\n    tag_17:\n      tag_79\n      tag_80\n      jump\t// in\n    tag_79:\n      mload(0x40)\n      tag_81\n      swap2\n      swap1\n      tag_37\n      jump\t// in\n    tag_81:\n      mload(0x40)\n      dup1\n      swap2\n      sub\n      swap1\n      return\n        /* \"contracts/src/SessionRegistry.sol\":7542:7795  function remainingSeconds(address user, bytes32 deviceId) external view returns (uint256) {... */\n    tag_18:\n      tag_82\n      0x04\n      dup1\n      calldatasize\n      sub\n      dup2\n      add\n      swap1\n      tag_83\n      swap2\n      swap1\n      tag_34\n      jump\t// in\n    tag_83:\n      tag_84\n      jump\t// in\n    tag_82:\n      mload(0x40)\n      tag_85\n      swap2\n      swap1\n      tag_37\n      jump\t// in\n    tag_85:\n      mload(0x40)\n      dup1\n      swap2\n      sub\n      swap1\n      return\n        /* \"@openzeppelin/contracts/access/Ownable2Step.sol\":1232:1331  function pendingOwner() public view virtual returns (address) {... */\n    tag_19:\n      tag_86\n      tag_87\n      jump\t// in\n    tag_86:\n      mload(0x40)\n      tag_88\n      swap2\n      swap1\n      tag_27\n      jump\t// in\n    tag_88:\n      mload(0x40)\n      dup1\n      swap2\n      sub\n      swap1\n      return\n        /* \"contracts/src/SessionRegistry.sol\":3488:3683  function transferOwnership(address newOwner)... */\n    tag_20:\n      tag_89\n      0x04\n      dup1\n      calldatasize\n      sub\n      dup2\n      add\n      swap1\n      tag_90\n      swap2\n      swap1\n      tag_60\n      jump\t// in\n    tag_90:\n      tag_91\n      jump\t// in\n    tag_89:\n      stop\n        /* \"contracts/src/SessionRegistry.sol\":1801:1823  address public gateway */\n    tag_25:\n      0x06\n      0x00\n      swap1\n      sload\n      swap1\n      0x0100\n      exp\n      swap1\n      div\n      0xffffffffffffffffffffffffffffffffffffffff\n      and\n      dup2\n      jump\t// out\n        /* \"contracts/src/SessionRegistry.sol\":4784:5608  function upsertSession(... */\n    tag_31:\n        /* \"contracts/src/SessionRegistry.sol\":2820:2834  _onlyGateway() */\n      tag_93\n        /* \"contracts/src/SessionRegistry.sol\":2820:2832  _onlyGateway */\n      tag_94\n        /* \"contracts/src/SessionRegistry.sol\":2820:2834  _onlyGateway() */\n      jump\t// in\n    tag_93:\n        /* \"contracts/src/SessionRegistry.sol\":4975:4992  Session storage s */\n      0x00\n        /* \"contracts/src/SessionRegistry.sol\":4995:5004  _sessions */\n      0x02\n        /* \"contracts/src/SessionRegistry.sol\":4995:5010  _sessions[user] */\n      0x00\n        /* \"contracts/src/SessionRegistry.sol\":5005:5009  user */\n      dup8\n        /* \"contracts/src/SessionRegistry.sol\":4995:5010  _sessions[user] */\n      0xffffffffffffffffffffffffffffffffffffffff\n      and\n      0xffffffffffffffffffffffffffffffffffffffff\n      and\n      dup2\n      mstore\n      0x20\n      add\n      swap1\n      dup2\n      mstore\n      0x20\n      add\n      0x00\n      keccak256\n        /* \"contracts/src/SessionRegistry.sol\":4995:5020  _sessions[user][deviceId] */\n      0x00\n        /* \"contracts/src/SessionRegistry.sol\":5011:5019  deviceId */\n      dup7\n        /* \"contracts/src/SessionRegistry.sol\":4995:5020  _sessions[user][deviceId] */\n      dup2\n      mstore\n      0x20\n      add\n      swap1\n      dup2\n      mstore\n      0x20\n      add\n      0x00\n      keccak256\n        /* \"contracts/src/SessionRegistry.sol\":4975:5020  Session storage s = _sessions[user][deviceId] */\n      swap1\n      pop\n        /* \"contracts/src/SessionRegistry.sol\":5101:5118  _deviceRegistered */\n      0x05\n        /* \"contracts/src/SessionRegistry.sol\":5101:5124  _deviceRegistered[user] */\n      0x00\n        /* \"contracts/src/SessionRegistry.sol\":5119:5123  user */\n      dup8\n        /* \"contracts/src/SessionRegistry.sol\":5101:5124  _deviceRegistered[user] */\n      0xffffffffffffffffffffffffffffffffffffffff\n      and\n      0xffffffffffffffffffffffffffffffffffffffff\n      and\n      dup2\n      mstore\n      0x20\n      add\n      swap1\n      dup2\n      mstore\n      0x20\n      add\n      0x00\n      keccak256\n        /* \"contracts/src/SessionRegistry.sol\":5101:5134  _deviceRegistered[user][deviceId] */\n      0x00\n        /* \"contracts/src/SessionRegistry.sol\":5125:5133  deviceId */\n      dup7\n        /* \"contracts/src/SessionRegistry.sol\":5101:5134  _deviceRegistered[user][deviceId] */\n      dup2\n      mstore\n      0x20\n      add\n      swap1\n      dup2\n      mstore\n      0x20\n      add\n      0x00\n      keccak256\n      0x00\n      swap1\n      sload\n      swap1\n      0x0100\n      exp\n      swap1\n      div\n      0xff\n      and\n        /* \"contracts/src/SessionRegistry.sol\":5096:5414  if (!_deviceRegistered[user][deviceId]) {... */\n      tag_96\n      jumpi\n        /* \"contracts/src/SessionRegistry.sol\":5187:5191  true */\n      0x01\n        /* \"contracts/src/SessionRegistry.sol\":5151:5168  _deviceRegistered */\n      0x05\n        /* \"contracts/src/SessionRegistry.sol\":5151:5174  _deviceRegistered[user] */\n      0x00\n        /* \"contracts/src/SessionRegistry.sol\":5169:5173  user */\n      dup9\n        /* \"contracts/src/SessionRegistry.sol\":5151:5174  _deviceRegistered[user] */\n      0xffffffffffffffffffffffffffffffffffffffff\n      and\n      0xffffffffffffffffffffffffffffffffffffffff\n      and\n      dup2\n      mstore\n      0x20\n      add\n      swap1\n      dup2\n      mstore\n      0x20\n      add\n      0x00\n      keccak256\n        /* \"contracts/src/SessionRegistry.sol\":5151:5184  _deviceRegistered[user][deviceId] */\n      0x00\n        /* \"contracts/src/SessionRegistry.sol\":5175:5183  deviceId */\n      dup8\n        /* \"contracts/src/SessionRegistry.sol\":5151:5184  _deviceRegistered[user][deviceId] */\n      dup2\n      mstore\n      0x20\n      add\n      swap1\n      dup2\n      mstore\n      0x20\n      add\n      0x00\n      keccak256\n      0x00\n        /* \"contracts/src/SessionRegistry.sol\":5151:5191  _deviceRegistered[user][deviceId] = true */\n      0x0100\n      exp\n      dup2\n      sload\n      dup2\n      0xff\n      mul\n      not\n      and\n      swap1\n      dup4\n      iszero\n      iszero\n      mul\n      or\n      swap1\n      sstore\n      pop\n        /* \"contracts/src/SessionRegistry.sol\":5293:5294  0 */\n      0x00\n        /* \"contracts/src/SessionRegistry.sol\":5264:5276  _userDevices */\n      0x04\n        /* \"contracts/src/SessionRegistry.sol\":5264:5282  _userDevices[user] */\n      0x00\n        /* \"contracts/src/SessionRegistry.sol\":5277:5281  user */\n      dup9\n        /* \"contracts/src/SessionRegistry.sol\":5264:5282  _userDevices[user] */\n      0xffffffffffffffffffffffffffffffffffffffff\n      and\n      0xffffffffffffffffffffffffffffffffffffffff\n      and\n      dup2\n      mstore\n      0x20\n      add\n      swap1\n      dup2\n      mstore\n      0x20\n      add\n      0x00\n      keccak256\n        /* \"contracts/src/SessionRegistry.sol\":5264:5289  _userDevices[user].length */\n      dup1\n      sload\n      swap1\n      pop\n        /* \"contracts/src/SessionRegistry.sol\":5264:5294  _userDevices[user].length == 0 */\n      sub\n        /* \"contracts/src/SessionRegistry.sol\":5260:5355  if (_userDevices[user].length == 0) {... */\n      tag_97\n      jumpi\n        /* \"contracts/src/SessionRegistry.sol\":5315:5328  _sessionUsers */\n      0x03\n        /* \"contracts/src/SessionRegistry.sol\":5334:5338  user */\n      dup7\n        /* \"contracts/src/SessionRegistry.sol\":5315:5339  _sessionUsers.push(user) */\n      swap1\n      dup1\n      0x01\n      dup2\n      sload\n      add\n      dup1\n      dup3\n      sstore\n      dup1\n      swap2\n      pop\n      pop\n      0x01\n      swap1\n      sub\n      swap1\n      0x00\n      mstore\n      keccak256(0x00, 0x20)\n      add\n      0x00\n      swap1\n      swap2\n      swap1\n      swap2\n      swap1\n      swap2\n      0x0100\n      exp\n      dup2\n      sload\n      dup2\n      0xffffffffffffffffffffffffffffffffffffffff\n      mul\n      not\n      and\n      swap1\n      dup4\n      0xffffffffffffffffffffffffffffffffffffffff\n      and\n      mul\n      or\n      swap1\n      sstore\n      pop\n        /* \"contracts/src/SessionRegistry.sol\":5260:5355  if (_userDevices[user].length == 0) {... */\n    tag_97:\n        /* \"contracts/src/SessionRegistry.sol\":5369:5381  _userDevices */\n      0x04\n        /* \"contracts/src/SessionRegistry.sol\":5369:5387  _userDevices[user] */\n      0x00\n        /* \"contracts/src/SessionRegistry.sol\":5382:5386  user */\n      dup8\n        /* \"contracts/src/SessionRegistry.sol\":5369:5387  _userDevices[user] */\n      0xffffffffffffffffffffffffffffffffffffffff\n      and\n      0xffffffffffffffffffffffffffffffffffffffff\n      and\n      dup2\n      mstore\n      0x20\n      add\n      swap1\n      dup2\n      mstore\n      0x20\n      add\n      0x00\n      keccak256\n        /* \"contracts/src/SessionRegistry.sol\":5393:5401  deviceId */\n      dup6\n        /* \"contracts/src/SessionRegistry.sol\":5369:5402  _userDevices[user].push(deviceId) */\n      swap1\n      dup1\n      0x01\n      dup2\n      sload\n      add\n      dup1\n      dup3\n      sstore\n      dup1\n      swap2\n      pop\n      pop\n      0x01\n      swap1\n      sub\n      swap1\n      0x00\n      mstore\n      keccak256(0x00, 0x20)\n      add\n      0x00\n      swap1\n      swap2\n      swap1\n      swap2\n      swap1\n      swap2\n      pop\n      sstore\n        /* \"contracts/src/SessionRegistry.sol\":5096:5414  if (!_deviceRegistered[user][deviceId]) {... */\n    tag_96:\n        /* \"contracts/src/SessionRegistry.sol\":5440:5449  expiresAt */\n      dup4\n        /* \"contracts/src/SessionRegistry.sol\":5426:5427  s */\n      dup2\n        /* \"contracts/src/SessionRegistry.sol\":5426:5437  s.expiresAt */\n      0x00\n      add\n        /* \"contracts/src/SessionRegistry.sol\":5426:5449  s.expiresAt = expiresAt */\n      dup2\n      swap1\n      sstore\n      pop\n        /* \"contracts/src/SessionRegistry.sol\":5471:5477  tierId */\n      dup3\n        /* \"contracts/src/SessionRegistry.sol\":5460:5461  s */\n      dup2\n        /* \"contracts/src/SessionRegistry.sol\":5460:5468  s.tierId */\n      0x01\n      add\n        /* \"contracts/src/SessionRegistry.sol\":5460:5477  s.tierId = tierId */\n      dup2\n      swap1\n      sstore\n      pop\n        /* \"contracts/src/SessionRegistry.sol\":5503:5510  paidWei */\n      dup2\n        /* \"contracts/src/SessionRegistry.sol\":5488:5489  s */\n      dup2\n        /* \"contracts/src/SessionRegistry.sol\":5488:5499  s.totalPaid */\n      0x02\n      add\n      0x00\n        /* \"contracts/src/SessionRegistry.sol\":5488:5510  s.totalPaid += paidWei */\n      dup3\n      dup3\n      sload\n      tag_100\n      swap2\n      swap1\n      tag_101\n      jump\t// in\n    tag_100:\n      swap3\n      pop\n      pop\n      dup2\n      swap1\n      sstore\n      pop\n        /* \"contracts/src/SessionRegistry.sol\":5540:5541  1 */\n      0x01\n        /* \"contracts/src/SessionRegistry.sol\":5521:5522  s */\n      dup2\n        /* \"contracts/src/SessionRegistry.sol\":5521:5536  s.purchaseCount */\n      0x03\n      add\n      0x00\n        /* \"contracts/src/SessionRegistry.sol\":5521:5541  s.purchaseCount += 1 */\n      dup3\n      dup3\n      sload\n      tag_102\n      swap2\n      swap1\n      tag_101\n      jump\t// in\n    tag_102:\n      swap3\n      pop\n      pop\n      dup2\n      swap1\n      sstore\n      pop\n        /* \"contracts/src/SessionRegistry.sol\":5580:5588  deviceId */\n      dup5\n        /* \"contracts/src/SessionRegistry.sol\":5574:5578  user */\n      dup7\n        /* \"contracts/src/SessionRegistry.sol\":5559:5600  SessionWritten(user, deviceId, expiresAt) */\n      0xffffffffffffffffffffffffffffffffffffffff\n      and\n      0x30e530be31051a50dac6b9e9312f59403efadf08c2739d34255eed366daa9b29\n        /* \"contracts/src/SessionRegistry.sol\":5590:5599  expiresAt */\n      dup7\n        /* \"contracts/src/SessionRegistry.sol\":5559:5600  SessionWritten(user, deviceId, expiresAt) */\n      mload(0x40)\n      tag_103\n      swap2\n      swap1\n      tag_37\n      jump\t// in\n    tag_103:\n      mload(0x40)\n      dup1\n      swap2\n      sub\n      swap1\n      log3\n        /* \"contracts/src/SessionRegistry.sol\":4964:5608  {... */\n      pop\n        /* \"contracts/src/SessionRegistry.sol\":4784:5608  function upsertSession(... */\n      pop\n      pop\n      pop\n      pop\n      pop\n      jump\t// out\n        /* \"contracts/src/SessionRegistry.sol\":7102:7246  function getExpiry(address user, bytes32 deviceId) external view returns (uint256) {... */\n    tag_35:\n        /* \"contracts/src/SessionRegistry.sol\":7176:7183  uint256 */\n      0x00\n        /* \"contracts/src/SessionRegistry.sol\":7203:7212  _sessions */\n      0x02\n        /* \"contracts/src/SessionRegistry.sol\":7203:7218  _sessions[user] */\n      0x00\n        /* \"contracts/src/SessionRegistry.sol\":7213:7217  user */\n      dup5\n        /* \"contracts/src/SessionRegistry.sol\":7203:7218  _sessions[user] */\n      0xffffffffffffffffffffffffffffffffffffffff\n      and\n      0xffffffffffffffffffffffffffffffffffffffff\n      and\n      dup2\n      mstore\n      0x20\n      add\n      swap1\n      dup2\n      mstore\n      0x20\n      add\n      0x00\n      keccak256\n        /* \"contracts/src/SessionRegistry.sol\":7203:7228  _sessions[user][deviceId] */\n      0x00\n        /* \"contracts/src/SessionRegistry.sol\":7219:7227  deviceId */\n      dup4\n        /* \"contracts/src/SessionRegistry.sol\":7203:7228  _sessions[user][deviceId] */\n      dup2\n      mstore\n      0x20\n      add\n      swap1\n      dup2\n      mstore\n      0x20\n      add\n      0x00\n      keccak256\n        /* \"contracts/src/SessionRegistry.sol\":7203:7238  _sessions[user][deviceId].expiresAt */\n      0x00\n      add\n      sload\n        /* \"contracts/src/SessionRegistry.sol\":7196:7238  return _sessions[user][deviceId].expiresAt */\n      swap1\n      pop\n        /* \"contracts/src/SessionRegistry.sol\":7102:7246  function getExpiry(address user, bytes32 deviceId) external view returns (uint256) {... */\n      swap3\n      swap2\n      pop\n      pop\n      jump\t// out\n        /* \"contracts/src/SessionRegistry.sol\":8259:8368  function userAt(uint256 index) external view returns (address) {... */\n    tag_41:\n        /* \"contracts/src/SessionRegistry.sol\":8313:8320  address */\n      0x00\n        /* \"contracts/src/SessionRegistry.sol\":8340:8353  _sessionUsers */\n      0x03\n        /* \"contracts/src/SessionRegistry.sol\":8354:8359  index */\n      dup3\n        /* \"contracts/src/SessionRegistry.sol\":8340:8360  _sessionUsers[index] */\n      dup2\n      sload\n      dup2\n      lt\n      tag_106\n      jumpi\n      tag_107\n      tag_108\n      jump\t// in\n    tag_107:\n    tag_106:\n      swap1\n      0x00\n      mstore\n      keccak256(0x00, 0x20)\n      add\n      0x00\n      swap1\n      sload\n      swap1\n      0x0100\n      exp\n      swap1\n      div\n      0xffffffffffffffffffffffffffffffffffffffff\n      and\n        /* \"contracts/src/SessionRegistry.sol\":8333:8360  return _sessionUsers[index] */\n      swap1\n      pop\n        /* \"contracts/src/SessionRegistry.sol\":8259:8368  function userAt(uint256 index) external view returns (address) {... */\n      swap2\n      swap1\n      pop\n      jump\t// out\n        /* \"@openzeppelin/contracts/access/Ownable.sol\":2293:2394  function renounceOwnership() public virtual onlyOwner {... */\n    tag_44:\n        /* \"@openzeppelin/contracts/access/Ownable.sol\":1531:1544  _checkOwner() */\n      tag_111\n        /* \"@openzeppelin/contracts/access/Ownable.sol\":1531:1542  _checkOwner */\n      tag_112\n        /* \"@openzeppelin/contracts/access/Ownable.sol\":1531:1544  _checkOwner() */\n      jump\t// in\n    tag_111:\n        /* \"@openzeppelin/contracts/access/Ownable.sol\":2357:2387  _transferOwnership(address(0)) */\n      tag_114\n        /* \"@openzeppelin/contracts/access/Ownable.sol\":2384:2385  0 */\n      0x00\n        /* \"@openzeppelin/contracts/access/Ownable.sol\":2357:2375  _transferOwnership */\n      tag_115\n        /* \"@openzeppelin/contracts/access/Ownable.sol\":2357:2387  _transferOwnership(address(0)) */\n      jump\t// in\n    tag_114:\n        /* \"@openzeppelin/contracts/access/Ownable.sol\":2293:2394  function renounceOwnership() public virtual onlyOwner {... */\n      jump\t// out\n        /* \"@openzeppelin/contracts/access/Ownable2Step.sol\":2244:2473  function acceptOwnership() public virtual {... */\n    tag_46:\n        /* \"@openzeppelin/contracts/access/Ownable2Step.sol\":2296:2310  address sender */\n      0x00\n        /* \"@openzeppelin/contracts/access/Ownable2Step.sol\":2313:2325  _msgSender() */\n      tag_117\n        /* \"@openzeppelin/contracts/access/Ownable2Step.sol\":2313:2323  _msgSender */\n      tag_118\n        /* \"@openzeppelin/contracts/access/Ownable2Step.sol\":2313:2325  _msgSender() */\n      jump\t// in\n    tag_117:\n        /* \"@openzeppelin/contracts/access/Ownable2Step.sol\":2296:2325  address sender = _msgSender() */\n      swap1\n      pop\n        /* \"@openzeppelin/contracts/access/Ownable2Step.sol\":2357:2363  sender */\n      dup1\n        /* \"@openzeppelin/contracts/access/Ownable2Step.sol\":2339:2363  pendingOwner() != sender */\n      0xffffffffffffffffffffffffffffffffffffffff\n      and\n        /* \"@openzeppelin/contracts/access/Ownable2Step.sol\":2339:2353  pendingOwner() */\n      tag_119\n        /* \"@openzeppelin/contracts/access/Ownable2Step.sol\":2339:2351  pendingOwner */\n      tag_87\n        /* \"@openzeppelin/contracts/access/Ownable2Step.sol\":2339:2353  pendingOwner() */\n      jump\t// in\n    tag_119:\n        /* \"@openzeppelin/contracts/access/Ownable2Step.sol\":2339:2363  pendingOwner() != sender */\n      0xffffffffffffffffffffffffffffffffffffffff\n      and\n      eq\n        /* \"@openzeppelin/contracts/access/Ownable2Step.sol\":2335:2431  if (pendingOwner() != sender) {... */\n      tag_120\n      jumpi\n        /* \"@openzeppelin/contracts/access/Ownable2Step.sol\":2413:2419  sender */\n      dup1\n        /* \"@openzeppelin/contracts/access/Ownable2Step.sol\":2386:2420  OwnableUnauthorizedAccount(sender) */\n      mload(0x40)\n      0x118cdaa700000000000000000000000000000000000000000000000000000000\n      dup2\n      mstore\n      0x04\n      add\n      tag_121\n      swap2\n      swap1\n      tag_27\n      jump\t// in\n    tag_121:\n      mload(0x40)\n      dup1\n      swap2\n      sub\n      swap1\n      revert\n        /* \"@openzeppelin/contracts/access/Ownable2Step.sol\":2335:2431  if (pendingOwner() != sender) {... */\n    tag_120:\n        /* \"@openzeppelin/contracts/access/Ownable2Step.sol\":2440:2466  _transferOwnership(sender) */\n      tag_122\n        /* \"@openzeppelin/contracts/access/Ownable2Step.sol\":2459:2465  sender */\n      dup2\n        /* \"@openzeppelin/contracts/access/Ownable2Step.sol\":2440:2458  _transferOwnership */\n      tag_115\n        /* \"@openzeppelin/contracts/access/Ownable2Step.sol\":2440:2466  _transferOwnership(sender) */\n      jump\t// in\n    tag_122:\n        /* \"@openzeppelin/contracts/access/Ownable2Step.sol\":2286:2473  {... */\n      pop\n        /* \"@openzeppelin/contracts/access/Ownable2Step.sol\":2244:2473  function acceptOwnership() public virtual {... */\n      jump\t// out\n        /* \"contracts/src/SessionRegistry.sol\":7318:7476  function isActive(address user, bytes32 deviceId) external view returns (bool) {... */\n    tag_49:\n        /* \"contracts/src/SessionRegistry.sol\":7391:7395  bool */\n      0x00\n        /* \"contracts/src/SessionRegistry.sol\":7453:7468  block.timestamp */\n      timestamp\n        /* \"contracts/src/SessionRegistry.sol\":7415:7424  _sessions */\n      0x02\n        /* \"contracts/src/SessionRegistry.sol\":7415:7430  _sessions[user] */\n      0x00\n        /* \"contracts/src/SessionRegistry.sol\":7425:7429  user */\n      dup6\n        /* \"contracts/src/SessionRegistry.sol\":7415:7430  _sessions[user] */\n      0xffffffffffffffffffffffffffffffffffffffff\n      and\n      0xffffffffffffffffffffffffffffffffffffffff\n      and\n      dup2\n      mstore\n      0x20\n      add\n      swap1\n      dup2\n      mstore\n      0x20\n      add\n      0x00\n      keccak256\n        /* \"contracts/src/SessionRegistry.sol\":7415:7440  _sessions[user][deviceId] */\n      0x00\n        /* \"contracts/src/SessionRegistry.sol\":7431:7439  deviceId */\n      dup5\n        /* \"contracts/src/SessionRegistry.sol\":7415:7440  _sessions[user][deviceId] */\n      dup2\n      mstore\n      0x20\n      add\n      swap1\n      dup2\n      mstore\n      0x20\n      add\n      0x00\n      keccak256\n        /* \"contracts/src/SessionRegistry.sol\":7415:7450  _sessions[user][deviceId].expiresAt */\n      0x00\n      add\n      sload\n        /* \"contracts/src/SessionRegistry.sol\":7415:7468  _sessions[user][deviceId].expiresAt > block.timestamp */\n      gt\n        /* \"contracts/src/SessionRegistry.sol\":7408:7468  return _sessions[user][deviceId].expiresAt > block.timestamp */\n      swap1\n      pop\n        /* \"contracts/src/SessionRegistry.sol\":7318:7476  function isActive(address user, bytes32 deviceId) external view returns (bool) {... */\n      swap3\n      swap2\n      pop\n      pop\n      jump\t// out\n        /* \"@openzeppelin/contracts/access/Ownable.sol\":1638:1723  function owner() public view virtual returns (address) {... */\n    tag_53:\n        /* \"@openzeppelin/contracts/access/Ownable.sol\":1684:1691  address */\n      0x00\n        /* \"@openzeppelin/contracts/access/Ownable.sol\":1710:1716  _owner */\n      0x00\n      0x00\n      swap1\n      sload\n      swap1\n      0x0100\n      exp\n      swap1\n      div\n      0xffffffffffffffffffffffffffffffffffffffff\n      and\n        /* \"@openzeppelin/contracts/access/Ownable.sol\":1703:1716  return _owner */\n      swap1\n      pop\n        /* \"@openzeppelin/contracts/access/Ownable.sol\":1638:1723  function owner() public view virtual returns (address) {... */\n      swap1\n      jump\t// out\n        /* \"contracts/src/SessionRegistry.sol\":5701:6330  function extendSession(... */\n    tag_57:\n        /* \"contracts/src/SessionRegistry.sol\":2820:2834  _onlyGateway() */\n      tag_126\n        /* \"contracts/src/SessionRegistry.sol\":2820:2832  _onlyGateway */\n      tag_94\n        /* \"contracts/src/SessionRegistry.sol\":2820:2834  _onlyGateway() */\n      jump\t// in\n    tag_126:\n        /* \"contracts/src/SessionRegistry.sol\":5900:5917  Session storage s */\n      0x00\n        /* \"contracts/src/SessionRegistry.sol\":5920:5929  _sessions */\n      0x02\n        /* \"contracts/src/SessionRegistry.sol\":5920:5935  _sessions[user] */\n      0x00\n        /* \"contracts/src/SessionRegistry.sol\":5930:5934  user */\n      dup8\n        /* \"contracts/src/SessionRegistry.sol\":5920:5935  _sessions[user] */\n      0xffffffffffffffffffffffffffffffffffffffff\n      and\n      0xffffffffffffffffffffffffffffffffffffffff\n      and\n      dup2\n      mstore\n      0x20\n      add\n      swap1\n      dup2\n      mstore\n      0x20\n      add\n      0x00\n      keccak256\n        /* \"contracts/src/SessionRegistry.sol\":5920:5945  _sessions[user][deviceId] */\n      0x00\n        /* \"contracts/src/SessionRegistry.sol\":5936:5944  deviceId */\n      dup7\n        /* \"contracts/src/SessionRegistry.sol\":5920:5945  _sessions[user][deviceId] */\n      dup2\n      mstore\n      0x20\n      add\n      swap1\n      dup2\n      mstore\n      0x20\n      add\n      0x00\n      keccak256\n        /* \"contracts/src/SessionRegistry.sol\":5900:5945  Session storage s = _sessions[user][deviceId] */\n      swap1\n      pop\n        /* \"contracts/src/SessionRegistry.sol\":6044:6056  uint256 base */\n      0x00\n        /* \"contracts/src/SessionRegistry.sol\":6073:6088  block.timestamp */\n      timestamp\n        /* \"contracts/src/SessionRegistry.sol\":6059:6060  s */\n      dup3\n        /* \"contracts/src/SessionRegistry.sol\":6059:6070  s.expiresAt */\n      0x00\n      add\n      sload\n        /* \"contracts/src/SessionRegistry.sol\":6059:6088  s.expiresAt > block.timestamp */\n      gt\n        /* \"contracts/src/SessionRegistry.sol\":6059:6120  s.expiresAt > block.timestamp ? s.expiresAt : block.timestamp */\n      tag_128\n      jumpi\n        /* \"contracts/src/SessionRegistry.sol\":6105:6120  block.timestamp */\n      timestamp\n        /* \"contracts/src/SessionRegistry.sol\":6059:6120  s.expiresAt > block.timestamp ? s.expiresAt : block.timestamp */\n      jump(tag_129)\n    tag_128:\n        /* \"contracts/src/SessionRegistry.sol\":6091:6092  s */\n      dup2\n        /* \"contracts/src/SessionRegistry.sol\":6091:6102  s.expiresAt */\n      0x00\n      add\n      sload\n        /* \"contracts/src/SessionRegistry.sol\":6059:6120  s.expiresAt > block.timestamp ? s.expiresAt : block.timestamp */\n    tag_129:\n        /* \"contracts/src/SessionRegistry.sol\":6044:6120  uint256 base = s.expiresAt > block.timestamp ? s.expiresAt : block.timestamp */\n      swap1\n      pop\n        /* \"contracts/src/SessionRegistry.sol\":6152:6169  additionalSeconds */\n      dup5\n        /* \"contracts/src/SessionRegistry.sol\":6145:6149  base */\n      dup2\n        /* \"contracts/src/SessionRegistry.sol\":6145:6169  base + additionalSeconds */\n      tag_130\n      swap2\n      swap1\n      tag_101\n      jump\t// in\n    tag_130:\n        /* \"contracts/src/SessionRegistry.sol\":6131:6132  s */\n      dup3\n        /* \"contracts/src/SessionRegistry.sol\":6131:6142  s.expiresAt */\n      0x00\n      add\n        /* \"contracts/src/SessionRegistry.sol\":6131:6169  s.expiresAt = base + additionalSeconds */\n      dup2\n      swap1\n      sstore\n      pop\n        /* \"contracts/src/SessionRegistry.sol\":6191:6197  tierId */\n      dup4\n        /* \"contracts/src/SessionRegistry.sol\":6180:6181  s */\n      dup3\n        /* \"contracts/src/SessionRegistry.sol\":6180:6188  s.tierId */\n      0x01\n      add\n        /* \"contracts/src/SessionRegistry.sol\":6180:6197  s.tierId = tierId */\n      dup2\n      swap1\n      sstore\n      pop\n        /* \"contracts/src/SessionRegistry.sol\":6223:6230  paidWei */\n      dup3\n        /* \"contracts/src/SessionRegistry.sol\":6208:6209  s */\n      dup3\n        /* \"contracts/src/SessionRegistry.sol\":6208:6219  s.totalPaid */\n      0x02\n      add\n      0x00\n        /* \"contracts/src/SessionRegistry.sol\":6208:6230  s.totalPaid += paidWei */\n      dup3\n      dup3\n      sload\n      tag_131\n      swap2\n      swap1\n      tag_101\n      jump\t// in\n    tag_131:\n      swap3\n      pop\n      pop\n      dup2\n      swap1\n      sstore\n      pop\n        /* \"contracts/src/SessionRegistry.sol\":6260:6261  1 */\n      0x01\n        /* \"contracts/src/SessionRegistry.sol\":6241:6242  s */\n      dup3\n        /* \"contracts/src/SessionRegistry.sol\":6241:6256  s.purchaseCount */\n      0x03\n      add\n      0x00\n        /* \"contracts/src/SessionRegistry.sol\":6241:6261  s.purchaseCount += 1 */\n      dup3\n      dup3\n      sload\n      tag_132\n      swap2\n      swap1\n      tag_101\n      jump\t// in\n    tag_132:\n      swap3\n      pop\n      pop\n      dup2\n      swap1\n      sstore\n      pop\n        /* \"contracts/src/SessionRegistry.sol\":6300:6308  deviceId */\n      dup6\n        /* \"contracts/src/SessionRegistry.sol\":6294:6298  user */\n      dup8\n        /* \"contracts/src/SessionRegistry.sol\":6279:6322  SessionWritten(user, deviceId, s.expiresAt) */\n      0xffffffffffffffffffffffffffffffffffffffff\n      and\n      0x30e530be31051a50dac6b9e9312f59403efadf08c2739d34255eed366daa9b29\n        /* \"contracts/src/SessionRegistry.sol\":6310:6311  s */\n      dup5\n        /* \"contracts/src/SessionRegistry.sol\":6310:6321  s.expiresAt */\n      0x00\n      add\n      sload\n        /* \"contracts/src/SessionRegistry.sol\":6279:6322  SessionWritten(user, deviceId, s.expiresAt) */\n      mload(0x40)\n      tag_133\n      swap2\n      swap1\n      tag_37\n      jump\t// in\n    tag_133:\n      mload(0x40)\n      dup1\n      swap2\n      sub\n      swap1\n      log3\n        /* \"contracts/src/SessionRegistry.sol\":5889:6330  {... */\n      pop\n      pop\n        /* \"contracts/src/SessionRegistry.sol\":5701:6330  function extendSession(... */\n      pop\n      pop\n      pop\n      pop\n      pop\n      jump\t// out\n        /* \"contracts/src/SessionRegistry.sol\":4250:4488  function setGateway(address newGateway) external onlyOwner {... */\n    tag_61:\n        /* \"@openzeppelin/contracts/access/Ownable.sol\":1531:1544  _checkOwner() */\n      tag_135\n        /* \"@openzeppelin/contracts/access/Ownable.sol\":1531:1542  _checkOwner */\n      tag_112\n        /* \"@openzeppelin/contracts/access/Ownable.sol\":1531:1544  _checkOwner() */\n      jump\t// in\n    tag_135:\n        /* \"contracts/src/SessionRegistry.sol\":4346:4347  0 */\n      0x00\n        /* \"contracts/src/SessionRegistry.sol\":4324:4348  newGateway == address(0) */\n      0xffffffffffffffffffffffffffffffffffffffff\n      and\n        /* \"contracts/src/SessionRegistry.sol\":4324:4334  newGateway */\n      dup2\n        /* \"contracts/src/SessionRegistry.sol\":4324:4348  newGateway == address(0) */\n      0xffffffffffffffffffffffffffffffffffffffff\n      and\n      sub\n        /* \"contracts/src/SessionRegistry.sol\":4320:4370  if (newGateway == address(0)) revert ZeroAddress() */\n      tag_137\n      jumpi\n        /* \"contracts/src/SessionRegistry.sol\":4357:4370  ZeroAddress() */\n      mload(0x40)\n      0xd92e233d00000000000000000000000000000000000000000000000000000000\n      dup2\n      mstore\n      0x04\n      add\n      mload(0x40)\n      dup1\n      swap2\n      sub\n      swap1\n      revert\n        /* \"contracts/src/SessionRegistry.sol\":4320:4370  if (newGateway == address(0)) revert ZeroAddress() */\n    tag_137:\n        /* \"contracts/src/SessionRegistry.sol\":4381:4392  address old */\n      0x00\n        /* \"contracts/src/SessionRegistry.sol\":4395:4402  gateway */\n      0x06\n      0x00\n      swap1\n      sload\n      swap1\n      0x0100\n      exp\n      swap1\n      div\n      0xffffffffffffffffffffffffffffffffffffffff\n      and\n        /* \"contracts/src/SessionRegistry.sol\":4381:4402  address old = gateway */\n      swap1\n      pop\n        /* \"contracts/src/SessionRegistry.sol\":4423:4433  newGateway */\n      dup2\n        /* \"contracts/src/SessionRegistry.sol\":4413:4420  gateway */\n      0x06\n      0x00\n        /* \"contracts/src/SessionRegistry.sol\":4413:4433  gateway = newGateway */\n      0x0100\n      exp\n      dup2\n      sload\n      dup2\n      0xffffffffffffffffffffffffffffffffffffffff\n      mul\n      not\n      and\n      swap1\n      dup4\n      0xffffffffffffffffffffffffffffffffffffffff\n      and\n      mul\n      or\n      swap1\n      sstore\n      pop\n        /* \"contracts/src/SessionRegistry.sol\":4469:4479  newGateway */\n      dup2\n        /* \"contracts/src/SessionRegistry.sol\":4449:4480  GatewayUpdated(old, newGateway) */\n      0xffffffffffffffffffffffffffffffffffffffff\n      and\n        /* \"contracts/src/SessionRegistry.sol\":4464:4467  old */\n      dup2\n        /* \"contracts/src/SessionRegistry.sol\":4449:4480  GatewayUpdated(old, newGateway) */\n      0xffffffffffffffffffffffffffffffffffffffff\n      and\n      0x68e84423772dadc3e4047f8b5bd221ddb02dc67796e7852533fd976947d86c51\n      mload(0x40)\n      mload(0x40)\n      dup1\n      swap2\n      sub\n      swap1\n      log3\n        /* \"contracts/src/SessionRegistry.sol\":4309:4488  {... */\n      pop\n        /* \"contracts/src/SessionRegistry.sol\":4250:4488  function setGateway(address newGateway) external onlyOwner {... */\n      pop\n      jump\t// out\n        /* \"contracts/src/SessionRegistry.sol\":8646:10031  function getActiveSessions()... */\n    tag_63:\n        /* \"contracts/src/SessionRegistry.sol\":8725:8747  address[] memory users */\n      0x60\n        /* \"contracts/src/SessionRegistry.sol\":8749:8775  bytes32[] memory deviceIds */\n      dup1\n        /* \"contracts/src/SessionRegistry.sol\":8777:8802  uint256[] memory expiries */\n      0x60\n        /* \"contracts/src/SessionRegistry.sol\":8820:8833  uint256 total */\n      0x00\n        /* \"contracts/src/SessionRegistry.sol\":8844:8861  uint256 userCount */\n      0x00\n        /* \"contracts/src/SessionRegistry.sol\":8864:8877  _sessionUsers */\n      0x03\n        /* \"contracts/src/SessionRegistry.sol\":8864:8884  _sessionUsers.length */\n      dup1\n      sload\n      swap1\n      pop\n        /* \"contracts/src/SessionRegistry.sol\":8844:8884  uint256 userCount = _sessionUsers.length */\n      swap1\n      pop\n        /* \"contracts/src/SessionRegistry.sol\":8948:8957  uint256 i */\n      0x00\n        /* \"contracts/src/SessionRegistry.sol\":8960:8961  0 */\n      0x00\n        /* \"contracts/src/SessionRegistry.sol\":8948:8961  uint256 i = 0 */\n      swap1\n      pop\n        /* \"contracts/src/SessionRegistry.sol\":8943:9296  for (uint256 i = 0; i < userCount; i++) {... */\n    tag_139:\n        /* \"contracts/src/SessionRegistry.sol\":8967:8976  userCount */\n      dup2\n        /* \"contracts/src/SessionRegistry.sol\":8963:8964  i */\n      dup2\n        /* \"contracts/src/SessionRegistry.sol\":8963:8976  i < userCount */\n      lt\n        /* \"contracts/src/SessionRegistry.sol\":8943:9296  for (uint256 i = 0; i < userCount; i++) {... */\n      iszero\n      tag_140\n      jumpi\n        /* \"contracts/src/SessionRegistry.sol\":8998:9007  address u */\n      0x00\n        /* \"contracts/src/SessionRegistry.sol\":9010:9023  _sessionUsers */\n      0x03\n        /* \"contracts/src/SessionRegistry.sol\":9024:9025  i */\n      dup3\n        /* \"contracts/src/SessionRegistry.sol\":9010:9026  _sessionUsers[i] */\n      dup2\n      sload\n      dup2\n      lt\n      tag_142\n      jumpi\n      tag_143\n      tag_108\n      jump\t// in\n    tag_143:\n    tag_142:\n      swap1\n      0x00\n      mstore\n      keccak256(0x00, 0x20)\n      add\n      0x00\n      swap1\n      sload\n      swap1\n      0x0100\n      exp\n      swap1\n      div\n      0xffffffffffffffffffffffffffffffffffffffff\n      and\n        /* \"contracts/src/SessionRegistry.sol\":8998:9026  address u = _sessionUsers[i] */\n      swap1\n      pop\n        /* \"contracts/src/SessionRegistry.sol\":9041:9065  bytes32[] memory devices */\n      0x00\n        /* \"contracts/src/SessionRegistry.sol\":9068:9080  _userDevices */\n      0x04\n        /* \"contracts/src/SessionRegistry.sol\":9068:9083  _userDevices[u] */\n      0x00\n        /* \"contracts/src/SessionRegistry.sol\":9081:9082  u */\n      dup4\n        /* \"contracts/src/SessionRegistry.sol\":9068:9083  _userDevices[u] */\n      0xffffffffffffffffffffffffffffffffffffffff\n      and\n      0xffffffffffffffffffffffffffffffffffffffff\n      and\n      dup2\n      mstore\n      0x20\n      add\n      swap1\n      dup2\n      mstore\n      0x20\n      add\n      0x00\n      keccak256\n        /* \"contracts/src/SessionRegistry.sol\":9041:9083  bytes32[] memory devices = _userDevices[u] */\n      dup1\n      sload\n      dup1\n      0x20\n      mul\n      0x20\n      add\n      mload(0x40)\n      swap1\n      dup2\n      add\n      0x40\n      mstore\n      dup1\n      swap3\n      swap2\n      swap1\n      dup2\n      dup2\n      mstore\n      0x20\n      add\n      dup3\n      dup1\n      sload\n      dup1\n      iszero\n      tag_145\n      jumpi\n      0x20\n      mul\n      dup3\n      add\n      swap2\n      swap1\n      0x00\n      mstore\n      keccak256(0x00, 0x20)\n      swap1\n    tag_146:\n      dup2\n      sload\n      dup2\n      mstore\n      0x20\n      add\n      swap1\n      0x01\n      add\n      swap1\n      dup1\n      dup4\n      gt\n      tag_146\n      jumpi\n    tag_145:\n      pop\n      pop\n      pop\n      pop\n      pop\n      swap1\n      pop\n        /* \"contracts/src/SessionRegistry.sol\":9103:9112  uint256 j */\n      0x00\n        /* \"contracts/src/SessionRegistry.sol\":9115:9116  0 */\n      0x00\n        /* \"contracts/src/SessionRegistry.sol\":9103:9116  uint256 j = 0 */\n      swap1\n      pop\n        /* \"contracts/src/SessionRegistry.sol\":9098:9285  for (uint256 j = 0; j < devices.length; j++) {... */\n    tag_147:\n        /* \"contracts/src/SessionRegistry.sol\":9122:9129  devices */\n      dup2\n        /* \"contracts/src/SessionRegistry.sol\":9122:9136  devices.length */\n      mload\n        /* \"contracts/src/SessionRegistry.sol\":9118:9119  j */\n      dup2\n        /* \"contracts/src/SessionRegistry.sol\":9118:9136  j < devices.length */\n      lt\n        /* \"contracts/src/SessionRegistry.sol\":9098:9285  for (uint256 j = 0; j < devices.length; j++) {... */\n      iszero\n      tag_148\n      jumpi\n        /* \"contracts/src/SessionRegistry.sol\":9203:9218  block.timestamp */\n      timestamp\n        /* \"contracts/src/SessionRegistry.sol\":9166:9175  _sessions */\n      0x02\n        /* \"contracts/src/SessionRegistry.sol\":9166:9178  _sessions[u] */\n      0x00\n        /* \"contracts/src/SessionRegistry.sol\":9176:9177  u */\n      dup6\n        /* \"contracts/src/SessionRegistry.sol\":9166:9178  _sessions[u] */\n      0xffffffffffffffffffffffffffffffffffffffff\n      and\n      0xffffffffffffffffffffffffffffffffffffffff\n      and\n      dup2\n      mstore\n      0x20\n      add\n      swap1\n      dup2\n      mstore\n      0x20\n      add\n      0x00\n      keccak256\n        /* \"contracts/src/SessionRegistry.sol\":9166:9190  _sessions[u][devices[j]] */\n      0x00\n        /* \"contracts/src/SessionRegistry.sol\":9179:9186  devices */\n      dup5\n        /* \"contracts/src/SessionRegistry.sol\":9187:9188  j */\n      dup5\n        /* \"contracts/src/SessionRegistry.sol\":9179:9189  devices[j] */\n      dup2\n      mload\n      dup2\n      lt\n      tag_150\n      jumpi\n      tag_151\n      tag_108\n      jump\t// in\n    tag_151:\n    tag_150:\n      0x20\n      mul\n      0x20\n      add\n      add\n      mload\n        /* \"contracts/src/SessionRegistry.sol\":9166:9190  _sessions[u][devices[j]] */\n      dup2\n      mstore\n      0x20\n      add\n      swap1\n      dup2\n      mstore\n      0x20\n      add\n      0x00\n      keccak256\n        /* \"contracts/src/SessionRegistry.sol\":9166:9200  _sessions[u][devices[j]].expiresAt */\n      0x00\n      add\n      sload\n        /* \"contracts/src/SessionRegistry.sol\":9166:9218  _sessions[u][devices[j]].expiresAt > block.timestamp */\n      gt\n        /* \"contracts/src/SessionRegistry.sol\":9162:9270  if (_sessions[u][devices[j]].expiresAt > block.timestamp) {... */\n      iszero\n      tag_152\n      jumpi\n        /* \"contracts/src/SessionRegistry.sol\":9243:9250  total++ */\n      dup6\n      dup1\n      tag_153\n      swap1\n      tag_154\n      jump\t// in\n    tag_153:\n      swap7\n      pop\n      pop\n        /* \"contracts/src/SessionRegistry.sol\":9162:9270  if (_sessions[u][devices[j]].expiresAt > block.timestamp) {... */\n    tag_152:\n        /* \"contracts/src/SessionRegistry.sol\":9138:9141  j++ */\n      dup1\n      dup1\n      0x01\n      add\n      swap2\n      pop\n      pop\n        /* \"contracts/src/SessionRegistry.sol\":9098:9285  for (uint256 j = 0; j < devices.length; j++) {... */\n      jump(tag_147)\n    tag_148:\n      pop\n        /* \"contracts/src/SessionRegistry.sol\":8983:9296  {... */\n      pop\n      pop\n        /* \"contracts/src/SessionRegistry.sol\":8978:8981  i++ */\n      dup1\n      dup1\n      0x01\n      add\n      swap2\n      pop\n      pop\n        /* \"contracts/src/SessionRegistry.sol\":8943:9296  for (uint256 i = 0; i < userCount; i++) {... */\n      jump(tag_139)\n    tag_140:\n      pop\n        /* \"contracts/src/SessionRegistry.sol\":9330:9335  total */\n      dup2\n        /* \"contracts/src/SessionRegistry.sol\":9316:9336  new address[](total) */\n      0xffffffffffffffff\n      dup2\n      gt\n      iszero\n      tag_155\n      jumpi\n      tag_156\n      tag_157\n      jump\t// in\n    tag_156:\n    tag_155:\n      mload(0x40)\n      swap1\n      dup1\n      dup3\n      mstore\n      dup1\n      0x20\n      mul\n      0x20\n      add\n      dup3\n      add\n      0x40\n      mstore\n      dup1\n      iszero\n      tag_158\n      jumpi\n      dup2\n      0x20\n      add\n      0x20\n      dup3\n      mul\n      dup1\n      calldatasize\n      dup4\n      calldatacopy\n      dup1\n      dup3\n      add\n      swap2\n      pop\n      pop\n      swap1\n      pop\n    tag_158:\n      pop\n        /* \"contracts/src/SessionRegistry.sol\":9308:9336  users = new address[](total) */\n      swap5\n      pop\n        /* \"contracts/src/SessionRegistry.sol\":9373:9378  total */\n      dup2\n        /* \"contracts/src/SessionRegistry.sol\":9359:9379  new bytes32[](total) */\n      0xffffffffffffffff\n      dup2\n      gt\n      iszero\n      tag_159\n      jumpi\n      tag_160\n      tag_157\n      jump\t// in\n    tag_160:\n    tag_159:\n      mload(0x40)\n      swap1\n      dup1\n      dup3\n      mstore\n      dup1\n      0x20\n      mul\n      0x20\n      add\n      dup3\n      add\n      0x40\n      mstore\n      dup1\n      iszero\n      tag_161\n      jumpi\n      dup2\n      0x20\n      add\n      0x20\n      dup3\n      mul\n      dup1\n      calldatasize\n      dup4\n      calldatacopy\n      dup1\n      dup3\n      add\n      swap2\n      pop\n      pop\n      swap1\n      pop\n    tag_161:\n      pop\n        /* \"contracts/src/SessionRegistry.sol\":9347:9379  deviceIds = new bytes32[](total) */\n      swap4\n      pop\n        /* \"contracts/src/SessionRegistry.sol\":9415:9420  total */\n      dup2\n        /* \"contracts/src/SessionRegistry.sol\":9401:9421  new uint256[](total) */\n      0xffffffffffffffff\n      dup2\n      gt\n      iszero\n      tag_162\n      jumpi\n      tag_163\n      tag_157\n      jump\t// in\n    tag_163:\n    tag_162:\n      mload(0x40)\n      swap1\n      dup1\n      dup3\n      mstore\n      dup1\n      0x20\n      mul\n      0x20\n      add\n      dup3\n      add\n      0x40\n      mstore\n      dup1\n      iszero\n      tag_164\n      jumpi\n      dup2\n      0x20\n      add\n      0x20\n      dup3\n      mul\n      dup1\n      calldatasize\n      dup4\n      calldatacopy\n      dup1\n      dup3\n      add\n      swap2\n      pop\n      pop\n      swap1\n      pop\n    tag_164:\n      pop\n        /* \"contracts/src/SessionRegistry.sol\":9390:9421  expiries = new uint256[](total) */\n      swap3\n      pop\n        /* \"contracts/src/SessionRegistry.sol\":9432:9443  uint256 idx */\n      0x00\n        /* \"contracts/src/SessionRegistry.sol\":9502:9511  uint256 i */\n      0x00\n        /* \"contracts/src/SessionRegistry.sol\":9514:9515  0 */\n      0x00\n        /* \"contracts/src/SessionRegistry.sol\":9502:9515  uint256 i = 0 */\n      swap1\n      pop\n        /* \"contracts/src/SessionRegistry.sol\":9497:10024  for (uint256 i = 0; i < userCount; i++) {... */\n    tag_165:\n        /* \"contracts/src/SessionRegistry.sol\":9521:9530  userCount */\n      dup3\n        /* \"contracts/src/SessionRegistry.sol\":9517:9518  i */\n      dup2\n        /* \"contracts/src/SessionRegistry.sol\":9517:9530  i < userCount */\n      lt\n        /* \"contracts/src/SessionRegistry.sol\":9497:10024  for (uint256 i = 0; i < userCount; i++) {... */\n      iszero\n      tag_166\n      jumpi\n        /* \"contracts/src/SessionRegistry.sol\":9552:9561  address u */\n      0x00\n        /* \"contracts/src/SessionRegistry.sol\":9564:9577  _sessionUsers */\n      0x03\n        /* \"contracts/src/SessionRegistry.sol\":9578:9579  i */\n      dup3\n        /* \"contracts/src/SessionRegistry.sol\":9564:9580  _sessionUsers[i] */\n      dup2\n      sload\n      dup2\n      lt\n      tag_168\n      jumpi\n      tag_169\n      tag_108\n      jump\t// in\n    tag_169:\n    tag_168:\n      swap1\n      0x00\n      mstore\n      keccak256(0x00, 0x20)\n      add\n      0x00\n      swap1\n      sload\n      swap1\n      0x0100\n      exp\n      swap1\n      div\n      0xffffffffffffffffffffffffffffffffffffffff\n      and\n        /* \"contracts/src/SessionRegistry.sol\":9552:9580  address u = _sessionUsers[i] */\n      swap1\n      pop\n        /* \"contracts/src/SessionRegistry.sol\":9595:9619  bytes32[] memory devices */\n      0x00\n        /* \"contracts/src/SessionRegistry.sol\":9622:9634  _userDevices */\n      0x04\n        /* \"contracts/src/SessionRegistry.sol\":9622:9637  _userDevices[u] */\n      0x00\n        /* \"contracts/src/SessionRegistry.sol\":9635:9636  u */\n      dup4\n        /* \"contracts/src/SessionRegistry.sol\":9622:9637  _userDevices[u] */\n      0xffffffffffffffffffffffffffffffffffffffff\n      and\n      0xffffffffffffffffffffffffffffffffffffffff\n      and\n      dup2\n      mstore\n      0x20\n      add\n      swap1\n      dup2\n      mstore\n      0x20\n      add\n      0x00\n      keccak256\n        /* \"contracts/src/SessionRegistry.sol\":9595:9637  bytes32[] memory devices = _userDevices[u] */\n      dup1\n      sload\n      dup1\n      0x20\n      mul\n      0x20\n      add\n      mload(0x40)\n      swap1\n      dup2\n      add\n      0x40\n      mstore\n      dup1\n      swap3\n      swap2\n      swap1\n      dup2\n      dup2\n      mstore\n      0x20\n      add\n      dup3\n      dup1\n      sload\n      dup1\n      iszero\n      tag_171\n      jumpi\n      0x20\n      mul\n      dup3\n      add\n      swap2\n      swap1\n      0x00\n      mstore\n      keccak256(0x00, 0x20)\n      swap1\n    tag_172:\n      dup2\n      sload\n      dup2\n      mstore\n      0x20\n      add\n      swap1\n      0x01\n      add\n      swap1\n      dup1\n      dup4\n      gt\n      tag_172\n      jumpi\n    tag_171:\n      pop\n      pop\n      pop\n      pop\n      pop\n      swap1\n      pop\n        /* \"contracts/src/SessionRegistry.sol\":9657:9666  uint256 j */\n      0x00\n        /* \"contracts/src/SessionRegistry.sol\":9669:9670  0 */\n      0x00\n        /* \"contracts/src/SessionRegistry.sol\":9657:9670  uint256 j = 0 */\n      swap1\n      pop\n        /* \"contracts/src/SessionRegistry.sol\":9652:10013  for (uint256 j = 0; j < devices.length; j++) {... */\n    tag_173:\n        /* \"contracts/src/SessionRegistry.sol\":9676:9683  devices */\n      dup2\n        /* \"contracts/src/SessionRegistry.sol\":9676:9690  devices.length */\n      mload\n        /* \"contracts/src/SessionRegistry.sol\":9672:9673  j */\n      dup2\n        /* \"contracts/src/SessionRegistry.sol\":9672:9690  j < devices.length */\n      lt\n        /* \"contracts/src/SessionRegistry.sol\":9652:10013  for (uint256 j = 0; j < devices.length; j++) {... */\n      iszero\n      tag_174\n      jumpi\n        /* \"contracts/src/SessionRegistry.sol\":9716:9732  Session memory s */\n      0x00\n        /* \"contracts/src/SessionRegistry.sol\":9735:9744  _sessions */\n      0x02\n        /* \"contracts/src/SessionRegistry.sol\":9735:9747  _sessions[u] */\n      0x00\n        /* \"contracts/src/SessionRegistry.sol\":9745:9746  u */\n      dup6\n        /* \"contracts/src/SessionRegistry.sol\":9735:9747  _sessions[u] */\n      0xffffffffffffffffffffffffffffffffffffffff\n      and\n      0xffffffffffffffffffffffffffffffffffffffff\n      and\n      dup2\n      mstore\n      0x20\n      add\n      swap1\n      dup2\n      mstore\n      0x20\n      add\n      0x00\n      keccak256\n        /* \"contracts/src/SessionRegistry.sol\":9735:9759  _sessions[u][devices[j]] */\n      0x00\n        /* \"contracts/src/SessionRegistry.sol\":9748:9755  devices */\n      dup5\n        /* \"contracts/src/SessionRegistry.sol\":9756:9757  j */\n      dup5\n        /* \"contracts/src/SessionRegistry.sol\":9748:9758  devices[j] */\n      dup2\n      mload\n      dup2\n      lt\n      tag_176\n      jumpi\n      tag_177\n      tag_108\n      jump\t// in\n    tag_177:\n    tag_176:\n      0x20\n      mul\n      0x20\n      add\n      add\n      mload\n        /* \"contracts/src/SessionRegistry.sol\":9735:9759  _sessions[u][devices[j]] */\n      dup2\n      mstore\n      0x20\n      add\n      swap1\n      dup2\n      mstore\n      0x20\n      add\n      0x00\n      keccak256\n        /* \"contracts/src/SessionRegistry.sol\":9716:9759  Session memory s = _sessions[u][devices[j]] */\n      mload(0x40)\n      dup1\n      0x80\n      add\n      0x40\n      mstore\n      swap1\n      dup2\n      0x00\n      dup3\n      add\n      sload\n      dup2\n      mstore\n      0x20\n      add\n      0x01\n      dup3\n      add\n      sload\n      dup2\n      mstore\n      0x20\n      add\n      0x02\n      dup3\n      add\n      sload\n      dup2\n      mstore\n      0x20\n      add\n      0x03\n      dup3\n      add\n      sload\n      dup2\n      mstore\n      pop\n      pop\n      swap1\n      pop\n        /* \"contracts/src/SessionRegistry.sol\":9796:9811  block.timestamp */\n      timestamp\n        /* \"contracts/src/SessionRegistry.sol\":9782:9783  s */\n      dup2\n        /* \"contracts/src/SessionRegistry.sol\":9782:9793  s.expiresAt */\n      0x00\n      add\n      mload\n        /* \"contracts/src/SessionRegistry.sol\":9782:9811  s.expiresAt > block.timestamp */\n      gt\n        /* \"contracts/src/SessionRegistry.sol\":9778:9998  if (s.expiresAt > block.timestamp) {... */\n      iszero\n      tag_178\n      jumpi\n        /* \"contracts/src/SessionRegistry.sol\":9849:9850  u */\n      dup4\n        /* \"contracts/src/SessionRegistry.sol\":9836:9841  users */\n      dup12\n        /* \"contracts/src/SessionRegistry.sol\":9842:9845  idx */\n      dup8\n        /* \"contracts/src/SessionRegistry.sol\":9836:9846  users[idx] */\n      dup2\n      mload\n      dup2\n      lt\n      tag_179\n      jumpi\n      tag_180\n      tag_108\n      jump\t// in\n    tag_180:\n    tag_179:\n      0x20\n      mul\n      0x20\n      add\n      add\n        /* \"contracts/src/SessionRegistry.sol\":9836:9850  users[idx] = u */\n      swap1\n      0xffffffffffffffffffffffffffffffffffffffff\n      and\n      swap1\n      dup2\n      0xffffffffffffffffffffffffffffffffffffffff\n      and\n      dup2\n      mstore\n      pop\n      pop\n        /* \"contracts/src/SessionRegistry.sol\":9890:9897  devices */\n      dup3\n        /* \"contracts/src/SessionRegistry.sol\":9898:9899  j */\n      dup3\n        /* \"contracts/src/SessionRegistry.sol\":9890:9900  devices[j] */\n      dup2\n      mload\n      dup2\n      lt\n      tag_181\n      jumpi\n      tag_182\n      tag_108\n      jump\t// in\n    tag_182:\n    tag_181:\n      0x20\n      mul\n      0x20\n      add\n      add\n      mload\n        /* \"contracts/src/SessionRegistry.sol\":9873:9882  deviceIds */\n      dup11\n        /* \"contracts/src/SessionRegistry.sol\":9883:9886  idx */\n      dup8\n        /* \"contracts/src/SessionRegistry.sol\":9873:9887  deviceIds[idx] */\n      dup2\n      mload\n      dup2\n      lt\n      tag_183\n      jumpi\n      tag_184\n      tag_108\n      jump\t// in\n    tag_184:\n    tag_183:\n      0x20\n      mul\n      0x20\n      add\n      add\n        /* \"contracts/src/SessionRegistry.sol\":9873:9900  deviceIds[idx] = devices[j] */\n      dup2\n      dup2\n      mstore\n      pop\n      pop\n        /* \"contracts/src/SessionRegistry.sol\":9939:9940  s */\n      dup1\n        /* \"contracts/src/SessionRegistry.sol\":9939:9950  s.expiresAt */\n      0x00\n      add\n      mload\n        /* \"contracts/src/SessionRegistry.sol\":9923:9931  expiries */\n      dup10\n        /* \"contracts/src/SessionRegistry.sol\":9932:9935  idx */\n      dup8\n        /* \"contracts/src/SessionRegistry.sol\":9923:9936  expiries[idx] */\n      dup2\n      mload\n      dup2\n      lt\n      tag_185\n      jumpi\n      tag_186\n      tag_108\n      jump\t// in\n    tag_186:\n    tag_185:\n      0x20\n      mul\n      0x20\n      add\n      add\n        /* \"contracts/src/SessionRegistry.sol\":9923:9950  expiries[idx] = s.expiresAt */\n      dup2\n      dup2\n      mstore\n      pop\n      pop\n        /* \"contracts/src/SessionRegistry.sol\":9973:9978  idx++ */\n      dup6\n      dup1\n      tag_187\n      swap1\n      tag_154\n      jump\t// in\n    tag_187:\n      swap7\n      pop\n      pop\n        /* \"contracts/src/SessionRegistry.sol\":9778:9998  if (s.expiresAt > block.timestamp) {... */\n    tag_178:\n        /* \"contracts/src/SessionRegistry.sol\":9697:10013  {... */\n      pop\n        /* \"contracts/src/SessionRegistry.sol\":9692:9695  j++ */\n      dup1\n      dup1\n      0x01\n      add\n      swap2\n      pop\n      pop\n        /* \"contracts/src/SessionRegistry.sol\":9652:10013  for (uint256 j = 0; j < devices.length; j++) {... */\n      jump(tag_173)\n    tag_174:\n      pop\n        /* \"contracts/src/SessionRegistry.sol\":9537:10024  {... */\n      pop\n      pop\n        /* \"contracts/src/SessionRegistry.sol\":9532:9535  i++ */\n      dup1\n      dup1\n      0x01\n      add\n      swap2\n      pop\n      pop\n        /* \"contracts/src/SessionRegistry.sol\":9497:10024  for (uint256 i = 0; i < userCount; i++) {... */\n      jump(tag_165)\n    tag_166:\n      pop\n        /* \"contracts/src/SessionRegistry.sol\":8809:10031  {... */\n      pop\n      pop\n      pop\n        /* \"contracts/src/SessionRegistry.sol\":8646:10031  function getActiveSessions()... */\n      swap1\n      swap2\n      swap3\n      jump\t// out\n        /* \"contracts/src/SessionRegistry.sol\":6406:6579  function deleteSession(address user, bytes32 deviceId) external onlyGateway {... */\n    tag_68:\n        /* \"contracts/src/SessionRegistry.sol\":2820:2834  _onlyGateway() */\n      tag_189\n        /* \"contracts/src/SessionRegistry.sol\":2820:2832  _onlyGateway */\n      tag_94\n        /* \"contracts/src/SessionRegistry.sol\":2820:2834  _onlyGateway() */\n      jump\t// in\n    tag_189:\n        /* \"contracts/src/SessionRegistry.sol\":6500:6509  _sessions */\n      0x02\n        /* \"contracts/src/SessionRegistry.sol\":6500:6515  _sessions[user] */\n      0x00\n        /* \"contracts/src/SessionRegistry.sol\":6510:6514  user */\n      dup4\n        /* \"contracts/src/SessionRegistry.sol\":6500:6515  _sessions[user] */\n      0xffffffffffffffffffffffffffffffffffffffff\n      and\n      0xffffffffffffffffffffffffffffffffffffffff\n      and\n      dup2\n      mstore\n      0x20\n      add\n      swap1\n      dup2\n      mstore\n      0x20\n      add\n      0x00\n      keccak256\n        /* \"contracts/src/SessionRegistry.sol\":6500:6525  _sessions[user][deviceId] */\n      0x00\n        /* \"contracts/src/SessionRegistry.sol\":6516:6524  deviceId */\n      dup3\n        /* \"contracts/src/SessionRegistry.sol\":6500:6525  _sessions[user][deviceId] */\n      dup2\n      mstore\n      0x20\n      add\n      swap1\n      dup2\n      mstore\n      0x20\n      add\n      0x00\n      keccak256\n      0x00\n        /* \"contracts/src/SessionRegistry.sol\":6493:6525  delete _sessions[user][deviceId] */\n      0x00\n      dup3\n      add\n      0x00\n      swap1\n      sstore\n      0x01\n      dup3\n      add\n      0x00\n      swap1\n      sstore\n      0x02\n      dup3\n      add\n      0x00\n      swap1\n      sstore\n      0x03\n      dup3\n      add\n      0x00\n      swap1\n      sstore\n      pop\n      pop\n        /* \"contracts/src/SessionRegistry.sol\":6562:6570  deviceId */\n      dup1\n        /* \"contracts/src/SessionRegistry.sol\":6556:6560  user */\n      dup3\n        /* \"contracts/src/SessionRegistry.sol\":6541:6571  SessionDeleted(user, deviceId) */\n      0xffffffffffffffffffffffffffffffffffffffff\n      and\n      0x6dfcdd7c3a670de39b2a722be00af76cfd69168402b0a0ca88a632f94d612e3e\n      mload(0x40)\n      mload(0x40)\n      dup1\n      swap2\n      sub\n      swap1\n      log3\n        /* \"contracts/src/SessionRegistry.sol\":6406:6579  function deleteSession(address user, bytes32 deviceId) external onlyGateway {... */\n      pop\n      pop\n      jump\t// out\n        /* \"contracts/src/SessionRegistry.sol\":8423:8549  function getDevicesForUser(address user) external view returns (bytes32[] memory) {... */\n    tag_71:\n        /* \"contracts/src/SessionRegistry.sol\":8487:8503  bytes32[] memory */\n      0x60\n        /* \"contracts/src/SessionRegistry.sol\":8523:8535  _userDevices */\n      0x04\n        /* \"contracts/src/SessionRegistry.sol\":8523:8541  _userDevices[user] */\n      0x00\n        /* \"contracts/src/SessionRegistry.sol\":8536:8540  user */\n      dup4\n        /* \"contracts/src/SessionRegistry.sol\":8523:8541  _userDevices[user] */\n      0xffffffffffffffffffffffffffffffffffffffff\n      and\n      0xffffffffffffffffffffffffffffffffffffffff\n      and\n      dup2\n      mstore\n      0x20\n      add\n      swap1\n      dup2\n      mstore\n      0x20\n      add\n      0x00\n      keccak256\n        /* \"contracts/src/SessionRegistry.sol\":8516:8541  return _userDevices[user] */\n      dup1\n      sload\n      dup1\n      0x20\n      mul\n      0x20\n      add\n      mload(0x40)\n      swap1\n      dup2\n      add\n      0x40\n      mstore\n      dup1\n      swap3\n      swap2\n      swap1\n      dup2\n      dup2\n      mstore\n      0x20\n      add\n      dup3\n      dup1\n      sload\n      dup1\n      iszero\n      tag_192\n      jumpi\n      0x20\n      mul\n      dup3\n      add\n      swap2\n      swap1\n      0x00\n      mstore\n      keccak256(0x00, 0x20)\n      swap1\n    tag_193:\n      dup2\n      sload\n      dup2\n      mstore\n      0x20\n      add\n      swap1\n      0x01\n      add\n      swap1\n      dup1\n      dup4\n      gt\n      tag_193\n      jumpi\n    tag_192:\n      pop\n      pop\n      pop\n      pop\n      pop\n      swap1\n      pop\n        /* \"contracts/src/SessionRegistry.sol\":8423:8549  function getDevicesForUser(address user) external view returns (bytes32[] memory) {... */\n      swap2\n      swap1\n      pop\n      jump\t// out\n        /* \"contracts/src/SessionRegistry.sol\":6846:7020  function getSession(address user, bytes32 deviceId)... */\n    tag_76:\n        /* \"contracts/src/SessionRegistry.sol\":6948:6962  Session memory */\n      tag_194\n      tag_195\n      jump\t// in\n    tag_194:\n        /* \"contracts/src/SessionRegistry.sol\":6987:6996  _sessions */\n      0x02\n        /* \"contracts/src/SessionRegistry.sol\":6987:7002  _sessions[user] */\n      0x00\n        /* \"contracts/src/SessionRegistry.sol\":6997:7001  user */\n      dup5\n        /* \"contracts/src/SessionRegistry.sol\":6987:7002  _sessions[user] */\n      0xffffffffffffffffffffffffffffffffffffffff\n      and\n      0xffffffffffffffffffffffffffffffffffffffff\n      and\n      dup2\n      mstore\n      0x20\n      add\n      swap1\n      dup2\n      mstore\n      0x20\n      add\n      0x00\n      keccak256\n        /* \"contracts/src/SessionRegistry.sol\":6987:7012  _sessions[user][deviceId] */\n      0x00\n        /* \"contracts/src/SessionRegistry.sol\":7003:7011  deviceId */\n      dup4\n        /* \"contracts/src/SessionRegistry.sol\":6987:7012  _sessions[user][deviceId] */\n      dup2\n      mstore\n      0x20\n      add\n      swap1\n      dup2\n      mstore\n      0x20\n      add\n      0x00\n      keccak256\n        /* \"contracts/src/SessionRegistry.sol\":6980:7012  return _sessions[user][deviceId] */\n      mload(0x40)\n      dup1\n      0x80\n      add\n      0x40\n      mstore\n      swap1\n      dup2\n      0x00\n      dup3\n      add\n      sload\n      dup2\n      mstore\n      0x20\n      add\n      0x01\n      dup3\n      add\n      sload\n      dup2\n      mstore\n      0x20\n      add\n      0x02\n      dup3\n      add\n      sload\n      dup2\n      mstore\n      0x20\n      add\n      0x03\n      dup3\n      add\n      sload\n      dup2\n      mstore\n      pop\n      pop\n      swap1\n      pop\n        /* \"contracts/src/SessionRegistry.sol\":6846:7020  function getSession(address user, bytes32 deviceId)... */\n      swap3\n      swap2\n      pop\n      pop\n      jump\t// out\n        /* \"contracts/src/SessionRegistry.sol\":8092:8192  function totalUsers() external view returns (uint256) {... */\n    tag_80:\n        /* \"contracts/src/SessionRegistry.sol\":8137:8144  uint256 */\n      0x00\n        /* \"contracts/src/SessionRegistry.sol\":8164:8177  _sessionUsers */\n      0x03\n        /* \"contracts/src/SessionRegistry.sol\":8164:8184  _sessionUsers.length */\n      dup1\n      sload\n      swap1\n      pop\n        /* \"contracts/src/SessionRegistry.sol\":8157:8184  return _sessionUsers.length */\n      swap1\n      pop\n        /* \"contracts/src/SessionRegistry.sol\":8092:8192  function totalUsers() external view returns (uint256) {... */\n      swap1\n      jump\t// out\n        /* \"contracts/src/SessionRegistry.sol\":7542:7795  function remainingSeconds(address user, bytes32 deviceId) external view returns (uint256) {... */\n    tag_84:\n        /* \"contracts/src/SessionRegistry.sol\":7623:7630  uint256 */\n      0x00\n        /* \"contracts/src/SessionRegistry.sol\":7643:7657  uint256 expiry */\n      0x00\n        /* \"contracts/src/SessionRegistry.sol\":7660:7669  _sessions */\n      0x02\n        /* \"contracts/src/SessionRegistry.sol\":7660:7675  _sessions[user] */\n      0x00\n        /* \"contracts/src/SessionRegistry.sol\":7670:7674  user */\n      dup6\n        /* \"contracts/src/SessionRegistry.sol\":7660:7675  _sessions[user] */\n      0xffffffffffffffffffffffffffffffffffffffff\n      and\n      0xffffffffffffffffffffffffffffffffffffffff\n      and\n      dup2\n      mstore\n      0x20\n      add\n      swap1\n      dup2\n      mstore\n      0x20\n      add\n      0x00\n      keccak256\n        /* \"contracts/src/SessionRegistry.sol\":7660:7685  _sessions[user][deviceId] */\n      0x00\n        /* \"contracts/src/SessionRegistry.sol\":7676:7684  deviceId */\n      dup5\n        /* \"contracts/src/SessionRegistry.sol\":7660:7685  _sessions[user][deviceId] */\n      dup2\n      mstore\n      0x20\n      add\n      swap1\n      dup2\n      mstore\n      0x20\n      add\n      0x00\n      keccak256\n        /* \"contracts/src/SessionRegistry.sol\":7660:7695  _sessions[user][deviceId].expiresAt */\n      0x00\n      add\n      sload\n        /* \"contracts/src/SessionRegistry.sol\":7643:7695  uint256 expiry = _sessions[user][deviceId].expiresAt */\n      swap1\n      pop\n        /* \"contracts/src/SessionRegistry.sol\":7720:7735  block.timestamp */\n      timestamp\n        /* \"contracts/src/SessionRegistry.sol\":7710:7716  expiry */\n      dup2\n        /* \"contracts/src/SessionRegistry.sol\":7710:7735  expiry <= block.timestamp */\n      gt\n        /* \"contracts/src/SessionRegistry.sol\":7706:7745  if (expiry <= block.timestamp) return 0 */\n      tag_199\n      jumpi\n        /* \"contracts/src/SessionRegistry.sol\":7744:7745  0 */\n      0x00\n        /* \"contracts/src/SessionRegistry.sol\":7737:7745  return 0 */\n      swap2\n      pop\n      pop\n      jump(tag_198)\n        /* \"contracts/src/SessionRegistry.sol\":7706:7745  if (expiry <= block.timestamp) return 0 */\n    tag_199:\n        /* \"contracts/src/SessionRegistry.sol\":7772:7787  block.timestamp */\n      timestamp\n        /* \"contracts/src/SessionRegistry.sol\":7763:7769  expiry */\n      dup2\n        /* \"contracts/src/SessionRegistry.sol\":7763:7787  expiry - block.timestamp */\n      tag_200\n      swap2\n      swap1\n      tag_201\n      jump\t// in\n    tag_200:\n        /* \"contracts/src/SessionRegistry.sol\":7756:7787  return expiry - block.timestamp */\n      swap2\n      pop\n      pop\n        /* \"contracts/src/SessionRegistry.sol\":7542:7795  function remainingSeconds(address user, bytes32 deviceId) external view returns (uint256) {... */\n    tag_198:\n      swap3\n      swap2\n      pop\n      pop\n      jump\t// out\n        /* \"@openzeppelin/contracts/access/Ownable2Step.sol\":1232:1331  function pendingOwner() public view virtual returns (address) {... */\n    tag_87:\n        /* \"@openzeppelin/contracts/access/Ownable2Step.sol\":1285:1292  address */\n      0x00\n        /* \"@openzeppelin/contracts/access/Ownable2Step.sol\":1311:1324  _pendingOwner */\n      0x01\n      0x00\n      swap1\n      sload\n      swap1\n      0x0100\n      exp\n      swap1\n      div\n      0xffffffffffffffffffffffffffffffffffffffff\n      and\n        /* \"@openzeppelin/contracts/access/Ownable2Step.sol\":1304:1324  return _pendingOwner */\n      swap1\n      pop\n        /* \"@openzeppelin/contracts/access/Ownable2Step.sol\":1232:1331  function pendingOwner() public view virtual returns (address) {... */\n      swap1\n      jump\t// out\n        /* \"contracts/src/SessionRegistry.sol\":3488:3683  function transferOwnership(address newOwner)... */\n    tag_91:\n        /* \"@openzeppelin/contracts/access/Ownable.sol\":1531:1544  _checkOwner() */\n      tag_204\n        /* \"@openzeppelin/contracts/access/Ownable.sol\":1531:1542  _checkOwner */\n      tag_112\n        /* \"@openzeppelin/contracts/access/Ownable.sol\":1531:1544  _checkOwner() */\n      jump\t// in\n    tag_204:\n        /* \"contracts/src/SessionRegistry.sol\":3642:3675  super.transferOwnership(newOwner) */\n      tag_206\n        /* \"contracts/src/SessionRegistry.sol\":3666:3674  newOwner */\n      dup2\n        /* \"contracts/src/SessionRegistry.sol\":3642:3665  super.transferOwnership */\n      tag_207\n        /* \"contracts/src/SessionRegistry.sol\":3642:3675  super.transferOwnership(newOwner) */\n      jump\t// in\n    tag_206:\n        /* \"contracts/src/SessionRegistry.sol\":3488:3683  function transferOwnership(address newOwner)... */\n      pop\n      jump\t// out\n        /* \"contracts/src/SessionRegistry.sol\":2862:2975  function _onlyGateway() internal view {... */\n    tag_94:\n        /* \"contracts/src/SessionRegistry.sol\":2929:2936  gateway */\n      0x06\n      0x00\n      swap1\n      sload\n      swap1\n      0x0100\n      exp\n      swap1\n      div\n      0xffffffffffffffffffffffffffffffffffffffff\n      and\n        /* \"contracts/src/SessionRegistry.sol\":2915:2936  msg.sender != gateway */\n      0xffffffffffffffffffffffffffffffffffffffff\n      and\n        /* \"contracts/src/SessionRegistry.sol\":2915:2925  msg.sender */\n      caller\n        /* \"contracts/src/SessionRegistry.sol\":2915:2936  msg.sender != gateway */\n      0xffffffffffffffffffffffffffffffffffffffff\n      and\n      eq\n        /* \"contracts/src/SessionRegistry.sol\":2911:2967  if (msg.sender != gateway) revert NotGateway(msg.sender) */\n      tag_209\n      jumpi\n        /* \"contracts/src/SessionRegistry.sol\":2956:2966  msg.sender */\n      caller\n        /* \"contracts/src/SessionRegistry.sol\":2945:2967  NotGateway(msg.sender) */\n      mload(0x40)\n      0x0b1c2e6100000000000000000000000000000000000000000000000000000000\n      dup2\n      mstore\n      0x04\n      add\n      tag_210\n      swap2\n      swap1\n      tag_27\n      jump\t// in\n    tag_210:\n      mload(0x40)\n      dup1\n      swap2\n      sub\n      swap1\n      revert\n        /* \"contracts/src/SessionRegistry.sol\":2911:2967  if (msg.sender != gateway) revert NotGateway(msg.sender) */\n    tag_209:\n        /* \"contracts/src/SessionRegistry.sol\":2862:2975  function _onlyGateway() internal view {... */\n      jump\t// out\n        /* \"@openzeppelin/contracts/access/Ownable.sol\":1796:1958  function _checkOwner() internal view virtual {... */\n    tag_112:\n        /* \"@openzeppelin/contracts/access/Ownable.sol\":1866:1878  _msgSender() */\n      tag_212\n        /* \"@openzeppelin/contracts/access/Ownable.sol\":1866:1876  _msgSender */\n      tag_118\n        /* \"@openzeppelin/contracts/access/Ownable.sol\":1866:1878  _msgSender() */\n      jump\t// in\n    tag_212:\n        /* \"@openzeppelin/contracts/access/Ownable.sol\":1855:1878  owner() != _msgSender() */\n      0xffffffffffffffffffffffffffffffffffffffff\n      and\n        /* \"@openzeppelin/contracts/access/Ownable.sol\":1855:1862  owner() */\n      tag_213\n        /* \"@openzeppelin/contracts/access/Ownable.sol\":1855:1860  owner */\n      tag_53\n        /* \"@openzeppelin/contracts/access/Ownable.sol\":1855:1862  owner() */\n      jump\t// in\n    tag_213:\n        /* \"@openzeppelin/contracts/access/Ownable.sol\":1855:1878  owner() != _msgSender() */\n      0xffffffffffffffffffffffffffffffffffffffff\n      and\n      eq\n        /* \"@openzeppelin/contracts/access/Ownable.sol\":1851:1952  if (owner() != _msgSender()) {... */\n      tag_214\n      jumpi\n        /* \"@openzeppelin/contracts/access/Ownable.sol\":1928:1940  _msgSender() */\n      tag_215\n        /* \"@openzeppelin/contracts/access/Ownable.sol\":1928:1938  _msgSender */\n      tag_118\n        /* \"@openzeppelin/contracts/access/Ownable.sol\":1928:1940  _msgSender() */\n      jump\t// in\n    tag_215:\n        /* \"@openzeppelin/contracts/access/Ownable.sol\":1901:1941  OwnableUnauthorizedAccount(_msgSender()) */\n      mload(0x40)\n      0x118cdaa700000000000000000000000000000000000000000000000000000000\n      dup2\n      mstore\n      0x04\n      add\n      tag_216\n      swap2\n      swap1\n      tag_27\n      jump\t// in\n    tag_216:\n      mload(0x40)\n      dup1\n      swap2\n      sub\n      swap1\n      revert\n        /* \"@openzeppelin/contracts/access/Ownable.sol\":1851:1952  if (owner() != _msgSender()) {... */\n    tag_214:\n        /* \"@openzeppelin/contracts/access/Ownable.sol\":1796:1958  function _checkOwner() internal view virtual {... */\n      jump\t// out\n        /* \"contracts/src/SessionRegistry.sol\":3691:3871  function _transferOwnership(address newOwner)... */\n    tag_115:\n        /* \"contracts/src/SessionRegistry.sol\":3829:3863  super._transferOwnership(newOwner) */\n      tag_218\n        /* \"contracts/src/SessionRegistry.sol\":3854:3862  newOwner */\n      dup2\n        /* \"contracts/src/SessionRegistry.sol\":3829:3853  super._transferOwnership */\n      tag_219\n        /* \"contracts/src/SessionRegistry.sol\":3829:3863  super._transferOwnership(newOwner) */\n      jump\t// in\n    tag_218:\n        /* \"contracts/src/SessionRegistry.sol\":3691:3871  function _transferOwnership(address newOwner)... */\n      pop\n      jump\t// out\n        /* \"@openzeppelin/contracts/utils/Context.sol\":656:752  function _msgSender() internal view virtual returns (address) {... */\n    tag_118:\n        /* \"@openzeppelin/contracts/utils/Context.sol\":709:716  address */\n      0x00\n        /* \"@openzeppelin/contracts/utils/Context.sol\":735:745  msg.sender */\n      caller\n        /* \"@openzeppelin/contracts/utils/Context.sol\":728:745  return msg.sender */\n      swap1\n      pop\n        /* \"@openzeppelin/contracts/utils/Context.sol\":656:752  function _msgSender() internal view virtual returns (address) {... */\n      swap1\n      jump\t// out\n        /* \"@openzeppelin/contracts/access/Ownable2Step.sol\":1649:1827  function transferOwnership(address newOwner) public virtual override onlyOwner {... */\n    tag_207:\n        /* \"@openzeppelin/contracts/access/Ownable.sol\":1531:1544  _checkOwner() */\n      tag_222\n        /* \"@openzeppelin/contracts/access/Ownable.sol\":1531:1542  _checkOwner */\n      tag_112\n        /* \"@openzeppelin/contracts/access/Ownable.sol\":1531:1544  _checkOwner() */\n      jump\t// in\n    tag_222:\n        /* \"@openzeppelin/contracts/access/Ownable2Step.sol\":1754:1762  newOwner */\n      dup1\n        /* \"@openzeppelin/contracts/access/Ownable2Step.sol\":1738:1751  _pendingOwner */\n      0x01\n      0x00\n        /* \"@openzeppelin/contracts/access/Ownable2Step.sol\":1738:1762  _pendingOwner = newOwner */\n      0x0100\n      exp\n      dup2\n      sload\n      dup2\n      0xffffffffffffffffffffffffffffffffffffffff\n      mul\n      not\n      and\n      swap1\n      dup4\n      0xffffffffffffffffffffffffffffffffffffffff\n      and\n      mul\n      or\n      swap1\n      sstore\n      pop\n        /* \"@openzeppelin/contracts/access/Ownable2Step.sol\":1811:1819  newOwner */\n      dup1\n        /* \"@openzeppelin/contracts/access/Ownable2Step.sol\":1777:1820  OwnershipTransferStarted(owner(), newOwner) */\n      0xffffffffffffffffffffffffffffffffffffffff\n      and\n        /* \"@openzeppelin/contracts/access/Ownable2Step.sol\":1802:1809  owner() */\n      tag_224\n        /* \"@openzeppelin/contracts/access/Ownable2Step.sol\":1802:1807  owner */\n      tag_53\n        /* \"@openzeppelin/contracts/access/Ownable2Step.sol\":1802:1809  owner() */\n      jump\t// in\n    tag_224:\n        /* \"@openzeppelin/contracts/access/Ownable2Step.sol\":1777:1820  OwnershipTransferStarted(owner(), newOwner) */\n      0xffffffffffffffffffffffffffffffffffffffff\n      and\n      0x38d16b8cac22d99fc7c124b9cd0de2d3fa1faef420bfe791d8c362d765e22700\n      mload(0x40)\n      mload(0x40)\n      dup1\n      swap2\n      sub\n      swap1\n      log3\n        /* \"@openzeppelin/contracts/access/Ownable2Step.sol\":1649:1827  function transferOwnership(address newOwner) public virtual override onlyOwner {... */\n      pop\n      jump\t// out\n        /* \"@openzeppelin/contracts/access/Ownable2Step.sol\":2011:2164  function _transferOwnership(address newOwner) internal virtual override {... */\n    tag_219:\n        /* \"@openzeppelin/contracts/access/Ownable2Step.sol\":2100:2113  _pendingOwner */\n      0x01\n      0x00\n        /* \"@openzeppelin/contracts/access/Ownable2Step.sol\":2093:2113  delete _pendingOwner */\n      0x0100\n      exp\n      dup2\n      sload\n      swap1\n      0xffffffffffffffffffffffffffffffffffffffff\n      mul\n      not\n      and\n      swap1\n      sstore\n        /* \"@openzeppelin/contracts/access/Ownable2Step.sol\":2123:2157  super._transferOwnership(newOwner) */\n      tag_226\n        /* \"@openzeppelin/contracts/access/Ownable2Step.sol\":2148:2156  newOwner */\n      dup2\n        /* \"@openzeppelin/contracts/access/Ownable2Step.sol\":2123:2147  super._transferOwnership */\n      tag_227\n        /* \"@openzeppelin/contracts/access/Ownable2Step.sol\":2123:2157  super._transferOwnership(newOwner) */\n      jump\t// in\n    tag_226:\n        /* \"@openzeppelin/contracts/access/Ownable2Step.sol\":2011:2164  function _transferOwnership(address newOwner) internal virtual override {... */\n      pop\n      jump\t// out\n        /* \"@openzeppelin/contracts/access/Ownable.sol\":2912:3099  function _transferOwnership(address newOwner) internal virtual {... */\n    tag_227:\n        /* \"@openzeppelin/contracts/access/Ownable.sol\":2985:3001  address oldOwner */\n      0x00\n        /* \"@openzeppelin/contracts/access/Ownable.sol\":3004:3010  _owner */\n      0x00\n      0x00\n      swap1\n      sload\n      swap1\n      0x0100\n      exp\n      swap1\n      div\n      0xffffffffffffffffffffffffffffffffffffffff\n      and\n        /* \"@openzeppelin/contracts/access/Ownable.sol\":2985:3010  address oldOwner = _owner */\n      swap1\n      pop\n        /* \"@openzeppelin/contracts/access/Ownable.sol\":3029:3037  newOwner */\n      dup2\n        /* \"@openzeppelin/contracts/access/Ownable.sol\":3020:3026  _owner */\n      0x00\n      0x00\n        /* \"@openzeppelin/contracts/access/Ownable.sol\":3020:3037  _owner = newOwner */\n      0x0100\n      exp\n      dup2\n      sload\n      dup2\n      0xffffffffffffffffffffffffffffffffffffffff\n      mul\n      not\n      and\n      swap1\n      dup4\n      0xffffffffffffffffffffffffffffffffffffffff\n      and\n      mul\n      or\n      swap1\n      sstore\n      pop\n        /* \"@openzeppelin/contracts/access/Ownable.sol\":3083:3091  newOwner */\n      dup2\n        /* \"@openzeppelin/contracts/access/Ownable.sol\":3052:3092  OwnershipTransferred(oldOwner, newOwner) */\n      0xffffffffffffffffffffffffffffffffffffffff\n      and\n        /* \"@openzeppelin/contracts/access/Ownable.sol\":3073:3081  oldOwner */\n      dup2\n        /* \"@openzeppelin/contracts/access/Ownable.sol\":3052:3092  OwnershipTransferred(oldOwner, newOwner) */\n      0xffffffffffffffffffffffffffffffffffffffff\n      and\n      0x8be0079c531659141344cd1fd0a4f28419497f9722a3daafe3b4186f6b6457e0\n      mload(0x40)\n      mload(0x40)\n      dup1\n      swap2\n      sub\n      swap1\n      log3\n        /* \"@openzeppelin/contracts/access/Ownable.sol\":2975:3099  {... */\n      pop\n        /* \"@openzeppelin/contracts/access/Ownable.sol\":2912:3099  function _transferOwnership(address newOwner) internal virtual {... */\n      pop\n      jump\t// out\n    tag_195:\n      mload(0x40)\n      dup1\n      0x80\n      add\n      0x40\n      mstore\n      dup1\n      0x00\n      dup2\n      mstore\n      0x20\n      add\n      0x00\n      dup2\n      mstore\n      0x20\n      add\n      0x00\n      dup2\n      mstore\n      0x20\n      add\n      0x00\n      dup2\n      mstore\n      pop\n      swap1\n      jump\t// out\n        /* \"#utility.yul\":7:133   */\n    tag_229:\n        /* \"#utility.yul\":44:51   */\n      0x00\n        /* \"#utility.yul\":84:126   */\n      0xffffffffffffffffffffffffffffffffffffffff\n        /* \"#utility.yul\":77:82   */\n      dup3\n        /* \"#utility.yul\":73:127   */\n      and\n        /* \"#utility.yul\":62:127   */\n      swap1\n      pop\n        /* \"#utility.yul\":7:133   */\n      swap2\n      swap1\n      pop\n      jump\t// out\n        /* \"#utility.yul\":139:235   */\n    tag_230:\n        /* \"#utility.yul\":176:183   */\n      0x00\n        /* \"#utility.yul\":205:229   */\n      tag_272\n        /* \"#utility.yul\":223:228   */\n      dup3\n        /* \"#utility.yul\":205:229   */\n      tag_229\n      jump\t// in\n    tag_272:\n        /* \"#utility.yul\":194:229   */\n      swap1\n      pop\n        /* \"#utility.yul\":139:235   */\n      swap2\n      swap1\n      pop\n      jump\t// out\n        /* \"#utility.yul\":241:359   */\n    tag_231:\n        /* \"#utility.yul\":328:352   */\n      tag_274\n        /* \"#utility.yul\":346:351   */\n      dup2\n        /* \"#utility.yul\":328:352   */\n      tag_230\n      jump\t// in\n    tag_274:\n        /* \"#utility.yul\":323:326   */\n      dup3\n        /* \"#utility.yul\":316:353   */\n      mstore\n        /* \"#utility.yul\":241:359   */\n      pop\n      pop\n      jump\t// out\n        /* \"#utility.yul\":365:587   */\n    tag_27:\n        /* \"#utility.yul\":458:462   */\n      0x00\n        /* \"#utility.yul\":496:498   */\n      0x20\n        /* \"#utility.yul\":485:494   */\n      dup3\n        /* \"#utility.yul\":481:499   */\n      add\n        /* \"#utility.yul\":473:499   */\n      swap1\n      pop\n        /* \"#utility.yul\":509:580   */\n      tag_276\n        /* \"#utility.yul\":577:578   */\n      0x00\n        /* \"#utility.yul\":566:575   */\n      dup4\n        /* \"#utility.yul\":562:579   */\n      add\n        /* \"#utility.yul\":553:559   */\n      dup5\n        /* \"#utility.yul\":509:580   */\n      tag_231\n      jump\t// in\n    tag_276:\n        /* \"#utility.yul\":365:587   */\n      swap3\n      swap2\n      pop\n      pop\n      jump\t// out\n        /* \"#utility.yul\":674:791   */\n    tag_233:\n        /* \"#utility.yul\":783:784   */\n      0x00\n        /* \"#utility.yul\":780:781   */\n      0x00\n        /* \"#utility.yul\":773:785   */\n      revert\n        /* \"#utility.yul\":920:1042   */\n    tag_235:\n        /* \"#utility.yul\":993:1017   */\n      tag_281\n        /* \"#utility.yul\":1011:1016   */\n      dup2\n        /* \"#utility.yul\":993:1017   */\n      tag_230\n      jump\t// in\n    tag_281:\n        /* \"#utility.yul\":986:991   */\n      dup2\n        /* \"#utility.yul\":983:1018   */\n      eq\n        /* \"#utility.yul\":973:1036   */\n      tag_282\n      jumpi\n        /* \"#utility.yul\":1032:1033   */\n      0x00\n        /* \"#utility.yul\":1029:1030   */\n      0x00\n        /* \"#utility.yul\":1022:1034   */\n      revert\n        /* \"#utility.yul\":973:1036   */\n    tag_282:\n        /* \"#utility.yul\":920:1042   */\n      pop\n      jump\t// out\n        /* \"#utility.yul\":1048:1187   */\n    tag_236:\n        /* \"#utility.yul\":1094:1099   */\n      0x00\n        /* \"#utility.yul\":1132:1138   */\n      dup2\n        /* \"#utility.yul\":1119:1139   */\n      calldataload\n        /* \"#utility.yul\":1110:1139   */\n      swap1\n      pop\n        /* \"#utility.yul\":1148:1181   */\n      tag_284\n        /* \"#utility.yul\":1175:1180   */\n      dup2\n        /* \"#utility.yul\":1148:1181   */\n      tag_235\n      jump\t// in\n    tag_284:\n        /* \"#utility.yul\":1048:1187   */\n      swap3\n      swap2\n      pop\n      pop\n      jump\t// out\n        /* \"#utility.yul\":1193:1270   */\n    tag_237:\n        /* \"#utility.yul\":1230:1237   */\n      0x00\n        /* \"#utility.yul\":1259:1264   */\n      dup2\n        /* \"#utility.yul\":1248:1264   */\n      swap1\n      pop\n        /* \"#utility.yul\":1193:1270   */\n      swap2\n      swap1\n      pop\n      jump\t// out\n        /* \"#utility.yul\":1276:1398   */\n    tag_238:\n        /* \"#utility.yul\":1349:1373   */\n      tag_287\n        /* \"#utility.yul\":1367:1372   */\n      dup2\n        /* \"#utility.yul\":1349:1373   */\n      tag_237\n      jump\t// in\n    tag_287:\n        /* \"#utility.yul\":1342:1347   */\n      dup2\n        /* \"#utility.yul\":1339:1374   */\n      eq\n        /* \"#utility.yul\":1329:1392   */\n      tag_288\n      jumpi\n        /* \"#utility.yul\":1388:1389   */\n      0x00\n        /* \"#utility.yul\":1385:1386   */\n      0x00\n        /* \"#utility.yul\":1378:1390   */\n      revert\n        /* \"#utility.yul\":1329:1392   */\n    tag_288:\n        /* \"#utility.yul\":1276:1398   */\n      pop\n      jump\t// out\n        /* \"#utility.yul\":1404:1543   */\n    tag_239:\n        /* \"#utility.yul\":1450:1455   */\n      0x00\n        /* \"#utility.yul\":1488:1494   */\n      dup2\n        /* \"#utility.yul\":1475:1495   */\n      calldataload\n        /* \"#utility.yul\":1466:1495   */\n      swap1\n      pop\n        /* \"#utility.yul\":1504:1537   */\n      tag_290\n        /* \"#utility.yul\":1531:1536   */\n      dup2\n        /* \"#utility.yul\":1504:1537   */\n      tag_238\n      jump\t// in\n    tag_290:\n        /* \"#utility.yul\":1404:1543   */\n      swap3\n      swap2\n      pop\n      pop\n      jump\t// out\n        /* \"#utility.yul\":1549:1626   */\n    tag_240:\n        /* \"#utility.yul\":1586:1593   */\n      0x00\n        /* \"#utility.yul\":1615:1620   */\n      dup2\n        /* \"#utility.yul\":1604:1620   */\n      swap1\n      pop\n        /* \"#utility.yul\":1549:1626   */\n      swap2\n      swap1\n      pop\n      jump\t// out\n        /* \"#utility.yul\":1632:1754   */\n    tag_241:\n        /* \"#utility.yul\":1705:1729   */\n      tag_293\n        /* \"#utility.yul\":1723:1728   */\n      dup2\n        /* \"#utility.yul\":1705:1729   */\n      tag_240\n      jump\t// in\n    tag_293:\n        /* \"#utility.yul\":1698:1703   */\n      dup2\n        /* \"#utility.yul\":1695:1730   */\n      eq\n        /* \"#utility.yul\":1685:1748   */\n      tag_294\n      jumpi\n        /* \"#utility.yul\":1744:1745   */\n      0x00\n        /* \"#utility.yul\":1741:1742   */\n      0x00\n        /* \"#utility.yul\":1734:1746   */\n      revert\n        /* \"#utility.yul\":1685:1748   */\n    tag_294:\n        /* \"#utility.yul\":1632:1754   */\n      pop\n      jump\t// out\n        /* \"#utility.yul\":1760:1899   */\n    tag_242:\n        /* \"#utility.yul\":1806:1811   */\n      0x00\n        /* \"#utility.yul\":1844:1850   */\n      dup2\n        /* \"#utility.yul\":1831:1851   */\n      calldataload\n        /* \"#utility.yul\":1822:1851   */\n      swap1\n      pop\n        /* \"#utility.yul\":1860:1893   */\n      tag_296\n        /* \"#utility.yul\":1887:1892   */\n      dup2\n        /* \"#utility.yul\":1860:1893   */\n      tag_241\n      jump\t// in\n    tag_296:\n        /* \"#utility.yul\":1760:1899   */\n      swap3\n      swap2\n      pop\n      pop\n      jump\t// out\n        /* \"#utility.yul\":1905:2816   */\n    tag_30:\n        /* \"#utility.yul\":2000:2006   */\n      0x00\n        /* \"#utility.yul\":2008:2014   */\n      0x00\n        /* \"#utility.yul\":2016:2022   */\n      0x00\n        /* \"#utility.yul\":2024:2030   */\n      0x00\n        /* \"#utility.yul\":2032:2038   */\n      0x00\n        /* \"#utility.yul\":2081:2084   */\n      0xa0\n        /* \"#utility.yul\":2069:2078   */\n      dup7\n        /* \"#utility.yul\":2060:2067   */\n      dup9\n        /* \"#utility.yul\":2056:2079   */\n      sub\n        /* \"#utility.yul\":2052:2085   */\n      slt\n        /* \"#utility.yul\":2049:2169   */\n      iszero\n      tag_298\n      jumpi\n        /* \"#utility.yul\":2088:2167   */\n      tag_299\n      tag_233\n      jump\t// in\n    tag_299:\n        /* \"#utility.yul\":2049:2169   */\n    tag_298:\n        /* \"#utility.yul\":2208:2209   */\n      0x00\n        /* \"#utility.yul\":2233:2286   */\n      tag_300\n        /* \"#utility.yul\":2278:2285   */\n      dup9\n        /* \"#utility.yul\":2269:2275   */\n      dup3\n        /* \"#utility.yul\":2258:2267   */\n      dup10\n        /* \"#utility.yul\":2254:2276   */\n      add\n        /* \"#utility.yul\":2233:2286   */\n      tag_236\n      jump\t// in\n    tag_300:\n        /* \"#utility.yul\":2223:2286   */\n      swap6\n      pop\n        /* \"#utility.yul\":2179:2296   */\n      pop\n        /* \"#utility.yul\":2335:2337   */\n      0x20\n        /* \"#utility.yul\":2361:2414   */\n      tag_301\n        /* \"#utility.yul\":2406:2413   */\n      dup9\n        /* \"#utility.yul\":2397:2403   */\n      dup3\n        /* \"#utility.yul\":2386:2395   */\n      dup10\n        /* \"#utility.yul\":2382:2404   */\n      add\n        /* \"#utility.yul\":2361:2414   */\n      tag_239\n      jump\t// in\n    tag_301:\n        /* \"#utility.yul\":2351:2414   */\n      swap5\n      pop\n        /* \"#utility.yul\":2306:2424   */\n      pop\n        /* \"#utility.yul\":2463:2465   */\n      0x40\n        /* \"#utility.yul\":2489:2542   */\n      tag_302\n        /* \"#utility.yul\":2534:2541   */\n      dup9\n        /* \"#utility.yul\":2525:2531   */\n      dup3\n        /* \"#utility.yul\":2514:2523   */\n      dup10\n        /* \"#utility.yul\":2510:2532   */\n      add\n        /* \"#utility.yul\":2489:2542   */\n      tag_242\n      jump\t// in\n    tag_302:\n        /* \"#utility.yul\":2479:2542   */\n      swap4\n      pop\n        /* \"#utility.yul\":2434:2552   */\n      pop\n        /* \"#utility.yul\":2591:2593   */\n      0x60\n        /* \"#utility.yul\":2617:2670   */\n      tag_303\n        /* \"#utility.yul\":2662:2669   */\n      dup9\n        /* \"#utility.yul\":2653:2659   */\n      dup3\n        /* \"#utility.yul\":2642:2651   */\n      dup10\n        /* \"#utility.yul\":2638:2660   */\n      add\n        /* \"#utility.yul\":2617:2670   */\n      tag_242\n      jump\t// in\n    tag_303:\n        /* \"#utility.yul\":2607:2670   */\n      swap3\n      pop\n        /* \"#utility.yul\":2562:2680   */\n      pop\n        /* \"#utility.yul\":2719:2722   */\n      0x80\n        /* \"#utility.yul\":2746:2799   */\n      tag_304\n        /* \"#utility.yul\":2791:2798   */\n      dup9\n        /* \"#utility.yul\":2782:2788   */\n      dup3\n        /* \"#utility.yul\":2771:2780   */\n      dup10\n        /* \"#utility.yul\":2767:2789   */\n      add\n        /* \"#utility.yul\":2746:2799   */\n      tag_242\n      jump\t// in\n    tag_304:\n        /* \"#utility.yul\":2736:2799   */\n      swap2\n      pop\n        /* \"#utility.yul\":2690:2809   */\n      pop\n        /* \"#utility.yul\":1905:2816   */\n      swap3\n      swap6\n      pop\n      swap3\n      swap6\n      swap1\n      swap4\n      pop\n      jump\t// out\n        /* \"#utility.yul\":2822:3296   */\n    tag_34:\n        /* \"#utility.yul\":2890:2896   */\n      0x00\n        /* \"#utility.yul\":2898:2904   */\n      0x00\n        /* \"#utility.yul\":2947:2949   */\n      0x40\n        /* \"#utility.yul\":2935:2944   */\n      dup4\n        /* \"#utility.yul\":2926:2933   */\n      dup6\n        /* \"#utility.yul\":2922:2945   */\n      sub\n        /* \"#utility.yul\":2918:2950   */\n      slt\n        /* \"#utility.yul\":2915:3034   */\n      iszero\n      tag_306\n      jumpi\n        /* \"#utility.yul\":2953:3032   */\n      tag_307\n      tag_233\n      jump\t// in\n    tag_307:\n        /* \"#utility.yul\":2915:3034   */\n    tag_306:\n        /* \"#utility.yul\":3073:3074   */\n      0x00\n        /* \"#utility.yul\":3098:3151   */\n      tag_308\n        /* \"#utility.yul\":3143:3150   */\n      dup6\n        /* \"#utility.yul\":3134:3140   */\n      dup3\n        /* \"#utility.yul\":3123:3132   */\n      dup7\n        /* \"#utility.yul\":3119:3141   */\n      add\n        /* \"#utility.yul\":3098:3151   */\n      tag_236\n      jump\t// in\n    tag_308:\n        /* \"#utility.yul\":3088:3151   */\n      swap3\n      pop\n        /* \"#utility.yul\":3044:3161   */\n      pop\n        /* \"#utility.yul\":3200:3202   */\n      0x20\n        /* \"#utility.yul\":3226:3279   */\n      tag_309\n        /* \"#utility.yul\":3271:3278   */\n      dup6\n        /* \"#utility.yul\":3262:3268   */\n      dup3\n        /* \"#utility.yul\":3251:3260   */\n      dup7\n        /* \"#utility.yul\":3247:3269   */\n      add\n        /* \"#utility.yul\":3226:3279   */\n      tag_239\n      jump\t// in\n    tag_309:\n        /* \"#utility.yul\":3216:3279   */\n      swap2\n      pop\n        /* \"#utility.yul\":3171:3289   */\n      pop\n        /* \"#utility.yul\":2822:3296   */\n      swap3\n      pop\n      swap3\n      swap1\n      pop\n      jump\t// out\n        /* \"#utility.yul\":3302:3420   */\n    tag_243:\n        /* \"#utility.yul\":3389:3413   */\n      tag_311\n        /* \"#utility.yul\":3407:3412   */\n      dup2\n        /* \"#utility.yul\":3389:3413   */\n      tag_240\n      jump\t// in\n    tag_311:\n        /* \"#utility.yul\":3384:3387   */\n      dup3\n        /* \"#utility.yul\":3377:3414   */\n      mstore\n        /* \"#utility.yul\":3302:3420   */\n      pop\n      pop\n      jump\t// out\n        /* \"#utility.yul\":3426:3648   */\n    tag_37:\n        /* \"#utility.yul\":3519:3523   */\n      0x00\n        /* \"#utility.yul\":3557:3559   */\n      0x20\n        /* \"#utility.yul\":3546:3555   */\n      dup3\n        /* \"#utility.yul\":3542:3560   */\n      add\n        /* \"#utility.yul\":3534:3560   */\n      swap1\n      pop\n        /* \"#utility.yul\":3570:3641   */\n      tag_313\n        /* \"#utility.yul\":3638:3639   */\n      0x00\n        /* \"#utility.yul\":3627:3636   */\n      dup4\n        /* \"#utility.yul\":3623:3640   */\n      add\n        /* \"#utility.yul\":3614:3620   */\n      dup5\n        /* \"#utility.yul\":3570:3641   */\n      tag_243\n      jump\t// in\n    tag_313:\n        /* \"#utility.yul\":3426:3648   */\n      swap3\n      swap2\n      pop\n      pop\n      jump\t// out\n        /* \"#utility.yul\":3654:3983   */\n    tag_40:\n        /* \"#utility.yul\":3713:3719   */\n      0x00\n        /* \"#utility.yul\":3762:3764   */\n      0x20\n        /* \"#utility.yul\":3750:3759   */\n      dup3\n        /* \"#utility.yul\":3741:3748   */\n      dup5\n        /* \"#utility.yul\":3737:3760   */\n      sub\n        /* \"#utility.yul\":3733:3765   */\n      slt\n        /* \"#utility.yul\":3730:3849   */\n      iszero\n      tag_315\n      jumpi\n        /* \"#utility.yul\":3768:3847   */\n      tag_316\n      tag_233\n      jump\t// in\n    tag_316:\n        /* \"#utility.yul\":3730:3849   */\n    tag_315:\n        /* \"#utility.yul\":3888:3889   */\n      0x00\n        /* \"#utility.yul\":3913:3966   */\n      tag_317\n        /* \"#utility.yul\":3958:3965   */\n      dup5\n        /* \"#utility.yul\":3949:3955   */\n      dup3\n        /* \"#utility.yul\":3938:3947   */\n      dup6\n        /* \"#utility.yul\":3934:3956   */\n      add\n        /* \"#utility.yul\":3913:3966   */\n      tag_242\n      jump\t// in\n    tag_317:\n        /* \"#utility.yul\":3903:3966   */\n      swap2\n      pop\n        /* \"#utility.yul\":3859:3976   */\n      pop\n        /* \"#utility.yul\":3654:3983   */\n      swap3\n      swap2\n      pop\n      pop\n      jump\t// out\n        /* \"#utility.yul\":3989:4079   */\n    tag_244:\n        /* \"#utility.yul\":4023:4030   */\n      0x00\n        /* \"#utility.yul\":4066:4071   */\n      dup2\n        /* \"#utility.yul\":4059:4072   */\n      iszero\n        /* \"#utility.yul\":4052:4073   */\n      iszero\n        /* \"#utility.yul\":4041:4073   */\n      swap1\n      pop\n        /* \"#utility.yul\":3989:4079   */\n      swap2\n      swap1\n      pop\n      jump\t// out\n        /* \"#utility.yul\":4085:4194   */\n    tag_245:\n        /* \"#utility.yul\":4166:4187   */\n      tag_320\n        /* \"#utility.yul\":4181:4186   */\n      dup2\n        /* \"#utility.yul\":4166:4187   */\n      tag_244\n      jump\t// in\n    tag_320:\n        /* \"#utility.yul\":4161:4164   */\n      dup3\n        /* \"#utility.yul\":4154:4188   */\n      mstore\n        /* \"#utility.yul\":4085:4194   */\n      pop\n      pop\n      jump\t// out\n        /* \"#utility.yul\":4200:4410   */\n    tag_51:\n        /* \"#utility.yul\":4287:4291   */\n      0x00\n        /* \"#utility.yul\":4325:4327   */\n      0x20\n        /* \"#utility.yul\":4314:4323   */\n      dup3\n        /* \"#utility.yul\":4310:4328   */\n      add\n        /* \"#utility.yul\":4302:4328   */\n      swap1\n      pop\n        /* \"#utility.yul\":4338:4403   */\n      tag_322\n        /* \"#utility.yul\":4400:4401   */\n      0x00\n        /* \"#utility.yul\":4389:4398   */\n      dup4\n        /* \"#utility.yul\":4385:4402   */\n      add\n        /* \"#utility.yul\":4376:4382   */\n      dup5\n        /* \"#utility.yul\":4338:4403   */\n      tag_245\n      jump\t// in\n    tag_322:\n        /* \"#utility.yul\":4200:4410   */\n      swap3\n      swap2\n      pop\n      pop\n      jump\t// out\n        /* \"#utility.yul\":4416:4745   */\n    tag_60:\n        /* \"#utility.yul\":4475:4481   */\n      0x00\n        /* \"#utility.yul\":4524:4526   */\n      0x20\n        /* \"#utility.yul\":4512:4521   */\n      dup3\n        /* \"#utility.yul\":4503:4510   */\n      dup5\n        /* \"#utility.yul\":4499:4522   */\n      sub\n        /* \"#utility.yul\":4495:4527   */\n      slt\n        /* \"#utility.yul\":4492:4611   */\n      iszero\n      tag_324\n      jumpi\n        /* \"#utility.yul\":4530:4609   */\n      tag_325\n      tag_233\n      jump\t// in\n    tag_325:\n        /* \"#utility.yul\":4492:4611   */\n    tag_324:\n        /* \"#utility.yul\":4650:4651   */\n      0x00\n        /* \"#utility.yul\":4675:4728   */\n      tag_326\n        /* \"#utility.yul\":4720:4727   */\n      dup5\n        /* \"#utility.yul\":4711:4717   */\n      dup3\n        /* \"#utility.yul\":4700:4709   */\n      dup6\n        /* \"#utility.yul\":4696:4718   */\n      add\n        /* \"#utility.yul\":4675:4728   */\n      tag_236\n      jump\t// in\n    tag_326:\n        /* \"#utility.yul\":4665:4728   */\n      swap2\n      pop\n        /* \"#utility.yul\":4621:4738   */\n      pop\n        /* \"#utility.yul\":4416:4745   */\n      swap3\n      swap2\n      pop\n      pop\n      jump\t// out\n        /* \"#utility.yul\":4751:4865   */\n    tag_246:\n        /* \"#utility.yul\":4818:4824   */\n      0x00\n        /* \"#utility.yul\":4852:4857   */\n      dup2\n        /* \"#utility.yul\":4846:4858   */\n      mload\n        /* \"#utility.yul\":4836:4858   */\n      swap1\n      pop\n        /* \"#utility.yul\":4751:4865   */\n      swap2\n      swap1\n      pop\n      jump\t// out\n        /* \"#utility.yul\":4871:5055   */\n    tag_247:\n        /* \"#utility.yul\":4970:4981   */\n      0x00\n        /* \"#utility.yul\":5004:5010   */\n      dup3\n        /* \"#utility.yul\":4999:5002   */\n      dup3\n        /* \"#utility.yul\":4992:5011   */\n      mstore\n        /* \"#utility.yul\":5044:5048   */\n      0x20\n        /* \"#utility.yul\":5039:5042   */\n      dup3\n        /* \"#utility.yul\":5035:5049   */\n      add\n        /* \"#utility.yul\":5020:5049   */\n      swap1\n      pop\n        /* \"#utility.yul\":4871:5055   */\n      swap3\n      swap2\n      pop\n      pop\n      jump\t// out\n        /* \"#utility.yul\":5061:5193   */\n    tag_248:\n        /* \"#utility.yul\":5128:5132   */\n      0x00\n        /* \"#utility.yul\":5151:5154   */\n      dup2\n        /* \"#utility.yul\":5143:5154   */\n      swap1\n      pop\n        /* \"#utility.yul\":5181:5185   */\n      0x20\n        /* \"#utility.yul\":5176:5179   */\n      dup3\n        /* \"#utility.yul\":5172:5186   */\n      add\n        /* \"#utility.yul\":5164:5186   */\n      swap1\n      pop\n        /* \"#utility.yul\":5061:5193   */\n      swap2\n      swap1\n      pop\n      jump\t// out\n        /* \"#utility.yul\":5199:5307   */\n    tag_249:\n        /* \"#utility.yul\":5276:5300   */\n      tag_331\n        /* \"#utility.yul\":5294:5299   */\n      dup2\n        /* \"#utility.yul\":5276:5300   */\n      tag_230\n      jump\t// in\n    tag_331:\n        /* \"#utility.yul\":5271:5274   */\n      dup3\n        /* \"#utility.yul\":5264:5301   */\n      mstore\n        /* \"#utility.yul\":5199:5307   */\n      pop\n      pop\n      jump\t// out\n        /* \"#utility.yul\":5313:5492   */\n    tag_250:\n        /* \"#utility.yul\":5382:5392   */\n      0x00\n        /* \"#utility.yul\":5403:5449   */\n      tag_333\n        /* \"#utility.yul\":5445:5448   */\n      dup4\n        /* \"#utility.yul\":5437:5443   */\n      dup4\n        /* \"#utility.yul\":5403:5449   */\n      tag_249\n      jump\t// in\n    tag_333:\n        /* \"#utility.yul\":5481:5485   */\n      0x20\n        /* \"#utility.yul\":5476:5479   */\n      dup4\n        /* \"#utility.yul\":5472:5486   */\n      add\n        /* \"#utility.yul\":5458:5486   */\n      swap1\n      pop\n        /* \"#utility.yul\":5313:5492   */\n      swap3\n      swap2\n      pop\n      pop\n      jump\t// out\n        /* \"#utility.yul\":5498:5611   */\n    tag_251:\n        /* \"#utility.yul\":5568:5572   */\n      0x00\n        /* \"#utility.yul\":5600:5604   */\n      0x20\n        /* \"#utility.yul\":5595:5598   */\n      dup3\n        /* \"#utility.yul\":5591:5605   */\n      add\n        /* \"#utility.yul\":5583:5605   */\n      swap1\n      pop\n        /* \"#utility.yul\":5498:5611   */\n      swap2\n      swap1\n      pop\n      jump\t// out\n        /* \"#utility.yul\":5647:6379   */\n    tag_252:\n        /* \"#utility.yul\":5766:5769   */\n      0x00\n        /* \"#utility.yul\":5795:5849   */\n      tag_336\n        /* \"#utility.yul\":5843:5848   */\n      dup3\n        /* \"#utility.yul\":5795:5849   */\n      tag_246\n      jump\t// in\n    tag_336:\n        /* \"#utility.yul\":5865:5951   */\n      tag_337\n        /* \"#utility.yul\":5944:5950   */\n      dup2\n        /* \"#utility.yul\":5939:5942   */\n      dup6\n        /* \"#utility.yul\":5865:5951   */\n      tag_247\n      jump\t// in\n    tag_337:\n        /* \"#utility.yul\":5858:5951   */\n      swap4\n      pop\n        /* \"#utility.yul\":5975:6031   */\n      tag_338\n        /* \"#utility.yul\":6025:6030   */\n      dup4\n        /* \"#utility.yul\":5975:6031   */\n      tag_248\n      jump\t// in\n    tag_338:\n        /* \"#utility.yul\":6054:6061   */\n      dup1\n        /* \"#utility.yul\":6085:6086   */\n      0x00\n        /* \"#utility.yul\":6070:6354   */\n    tag_339:\n        /* \"#utility.yul\":6095:6101   */\n      dup4\n        /* \"#utility.yul\":6092:6093   */\n      dup2\n        /* \"#utility.yul\":6089:6102   */\n      lt\n        /* \"#utility.yul\":6070:6354   */\n      iszero\n      tag_341\n      jumpi\n        /* \"#utility.yul\":6171:6177   */\n      dup2\n        /* \"#utility.yul\":6165:6178   */\n      mload\n        /* \"#utility.yul\":6198:6261   */\n      tag_342\n        /* \"#utility.yul\":6257:6260   */\n      dup9\n        /* \"#utility.yul\":6242:6255   */\n      dup3\n        /* \"#utility.yul\":6198:6261   */\n      tag_250\n      jump\t// in\n    tag_342:\n        /* \"#utility.yul\":6191:6261   */\n      swap8\n      pop\n        /* \"#utility.yul\":6284:6344   */\n      tag_343\n        /* \"#utility.yul\":6337:6343   */\n      dup4\n        /* \"#utility.yul\":6284:6344   */\n      tag_251\n      jump\t// in\n    tag_343:\n        /* \"#utility.yul\":6274:6344   */\n      swap3\n      pop\n        /* \"#utility.yul\":6130:6354   */\n      pop\n        /* \"#utility.yul\":6117:6118   */\n      0x01\n        /* \"#utility.yul\":6114:6115   */\n      dup2\n        /* \"#utility.yul\":6110:6119   */\n      add\n        /* \"#utility.yul\":6105:6119   */\n      swap1\n      pop\n        /* \"#utility.yul\":6070:6354   */\n      jump(tag_339)\n    tag_341:\n        /* \"#utility.yul\":6074:6088   */\n      pop\n        /* \"#utility.yul\":6370:6373   */\n      dup6\n        /* \"#utility.yul\":6363:6373   */\n      swap4\n      pop\n        /* \"#utility.yul\":5771:6379   */\n      pop\n      pop\n      pop\n        /* \"#utility.yul\":5647:6379   */\n      swap3\n      swap2\n      pop\n      pop\n      jump\t// out\n        /* \"#utility.yul\":6385:6499   */\n    tag_253:\n        /* \"#utility.yul\":6452:6458   */\n      0x00\n        /* \"#utility.yul\":6486:6491   */\n      dup2\n        /* \"#utility.yul\":6480:6492   */\n      mload\n        /* \"#utility.yul\":6470:6492   */\n      swap1\n      pop\n        /* \"#utility.yul\":6385:6499   */\n      swap2\n      swap1\n      pop\n      jump\t// out\n        /* \"#utility.yul\":6505:6689   */\n    tag_254:\n        /* \"#utility.yul\":6604:6615   */\n      0x00\n        /* \"#utility.yul\":6638:6644   */\n      dup3\n        /* \"#utility.yul\":6633:6636   */\n      dup3\n        /* \"#utility.yul\":6626:6645   */\n      mstore\n        /* \"#utility.yul\":6678:6682   */\n      0x20\n        /* \"#utility.yul\":6673:6676   */\n      dup3\n        /* \"#utility.yul\":6669:6683   */\n      add\n        /* \"#utility.yul\":6654:6683   */\n      swap1\n      pop\n        /* \"#utility.yul\":6505:6689   */\n      swap3\n      swap2\n      pop\n      pop\n      jump\t// out\n        /* \"#utility.yul\":6695:6827   */\n    tag_255:\n        /* \"#utility.yul\":6762:6766   */\n      0x00\n        /* \"#utility.yul\":6785:6788   */\n      dup2\n        /* \"#utility.yul\":6777:6788   */\n      swap1\n      pop\n        /* \"#utility.yul\":6815:6819   */\n      0x20\n        /* \"#utility.yul\":6810:6813   */\n      dup3\n        /* \"#utility.yul\":6806:6820   */\n      add\n        /* \"#utility.yul\":6798:6820   */\n      swap1\n      pop\n        /* \"#utility.yul\":6695:6827   */\n      swap2\n      swap1\n      pop\n      jump\t// out\n        /* \"#utility.yul\":6833:6941   */\n    tag_256:\n        /* \"#utility.yul\":6910:6934   */\n      tag_348\n        /* \"#utility.yul\":6928:6933   */\n      dup2\n        /* \"#utility.yul\":6910:6934   */\n      tag_237\n      jump\t// in\n    tag_348:\n        /* \"#utility.yul\":6905:6908   */\n      dup3\n        /* \"#utility.yul\":6898:6935   */\n      mstore\n        /* \"#utility.yul\":6833:6941   */\n      pop\n      pop\n      jump\t// out\n        /* \"#utility.yul\":6947:7126   */\n    tag_257:\n        /* \"#utility.yul\":7016:7026   */\n      0x00\n        /* \"#utility.yul\":7037:7083   */\n      tag_350\n        /* \"#utility.yul\":7079:7082   */\n      dup4\n        /* \"#utility.yul\":7071:7077   */\n      dup4\n        /* \"#utility.yul\":7037:7083   */\n      tag_256\n      jump\t// in\n    tag_350:\n        /* \"#utility.yul\":7115:7119   */\n      0x20\n        /* \"#utility.yul\":7110:7113   */\n      dup4\n        /* \"#utility.yul\":7106:7120   */\n      add\n        /* \"#utility.yul\":7092:7120   */\n      swap1\n      pop\n        /* \"#utility.yul\":6947:7126   */\n      swap3\n      swap2\n      pop\n      pop\n      jump\t// out\n        /* \"#utility.yul\":7132:7245   */\n    tag_258:\n        /* \"#utility.yul\":7202:7206   */\n      0x00\n        /* \"#utility.yul\":7234:7238   */\n      0x20\n        /* \"#utility.yul\":7229:7232   */\n      dup3\n        /* \"#utility.yul\":7225:7239   */\n      add\n        /* \"#utility.yul\":7217:7239   */\n      swap1\n      pop\n        /* \"#utility.yul\":7132:7245   */\n      swap2\n      swap1\n      pop\n      jump\t// out\n        /* \"#utility.yul\":7281:8013   */\n    tag_259:\n        /* \"#utility.yul\":7400:7403   */\n      0x00\n        /* \"#utility.yul\":7429:7483   */\n      tag_353\n        /* \"#utility.yul\":7477:7482   */\n      dup3\n        /* \"#utility.yul\":7429:7483   */\n      tag_253\n      jump\t// in\n    tag_353:\n        /* \"#utility.yul\":7499:7585   */\n      tag_354\n        /* \"#utility.yul\":7578:7584   */\n      dup2\n        /* \"#utility.yul\":7573:7576   */\n      dup6\n        /* \"#utility.yul\":7499:7585   */\n      tag_254\n      jump\t// in\n    tag_354:\n        /* \"#utility.yul\":7492:7585   */\n      swap4\n      pop\n        /* \"#utility.yul\":7609:7665   */\n      tag_355\n        /* \"#utility.yul\":7659:7664   */\n      dup4\n        /* \"#utility.yul\":7609:7665   */\n      tag_255\n      jump\t// in\n    tag_355:\n        /* \"#utility.yul\":7688:7695   */\n      dup1\n        /* \"#utility.yul\":7719:7720   */\n      0x00\n        /* \"#utility.yul\":7704:7988   */\n    tag_356:\n        /* \"#utility.yul\":7729:7735   */\n      dup4\n        /* \"#utility.yul\":7726:7727   */\n      dup2\n        /* \"#utility.yul\":7723:7736   */\n      lt\n        /* \"#utility.yul\":7704:7988   */\n      iszero\n      tag_358\n      jumpi\n        /* \"#utility.yul\":7805:7811   */\n      dup2\n        /* \"#utility.yul\":7799:7812   */\n      mload\n        /* \"#utility.yul\":7832:7895   */\n      tag_359\n        /* \"#utility.yul\":7891:7894   */\n      dup9\n        /* \"#utility.yul\":7876:7889   */\n      dup3\n        /* \"#utility.yul\":7832:7895   */\n      tag_257\n      jump\t// in\n    tag_359:\n        /* \"#utility.yul\":7825:7895   */\n      swap8\n      pop\n        /* \"#utility.yul\":7918:7978   */\n      tag_360\n        /* \"#utility.yul\":7971:7977   */\n      dup4\n        /* \"#utility.yul\":7918:7978   */\n      tag_258\n      jump\t// in\n    tag_360:\n        /* \"#utility.yul\":7908:7978   */\n      swap3\n      pop\n        /* \"#utility.yul\":7764:7988   */\n      pop\n        /* \"#utility.yul\":7751:7752   */\n      0x01\n        /* \"#utility.yul\":7748:7749   */\n      dup2\n        /* \"#utility.yul\":7744:7753   */\n      add\n        /* \"#utility.yul\":7739:7753   */\n      swap1\n      pop\n        /* \"#utility.yul\":7704:7988   */\n      jump(tag_356)\n    tag_358:\n        /* \"#utility.yul\":7708:7722   */\n      pop\n        /* \"#utility.yul\":8004:8007   */\n      dup6\n        /* \"#utility.yul\":7997:8007   */\n      swap4\n      pop\n        /* \"#utility.yul\":7405:8013   */\n      pop\n      pop\n      pop\n        /* \"#utility.yul\":7281:8013   */\n      swap3\n      swap2\n      pop\n      pop\n      jump\t// out\n        /* \"#utility.yul\":8019:8133   */\n    tag_260:\n        /* \"#utility.yul\":8086:8092   */\n      0x00\n        /* \"#utility.yul\":8120:8125   */\n      dup2\n        /* \"#utility.yul\":8114:8126   */\n      mload\n        /* \"#utility.yul\":8104:8126   */\n      swap1\n      pop\n        /* \"#utility.yul\":8019:8133   */\n      swap2\n      swap1\n      pop\n      jump\t// out\n        /* \"#utility.yul\":8139:8323   */\n    tag_261:\n        /* \"#utility.yul\":8238:8249   */\n      0x00\n        /* \"#utility.yul\":8272:8278   */\n      dup3\n        /* \"#utility.yul\":8267:8270   */\n      dup3\n        /* \"#utility.yul\":8260:8279   */\n      mstore\n        /* \"#utility.yul\":8312:8316   */\n      0x20\n        /* \"#utility.yul\":8307:8310   */\n      dup3\n        /* \"#utility.yul\":8303:8317   */\n      add\n        /* \"#utility.yul\":8288:8317   */\n      swap1\n      pop\n        /* \"#utility.yul\":8139:8323   */\n      swap3\n      swap2\n      pop\n      pop\n      jump\t// out\n        /* \"#utility.yul\":8329:8461   */\n    tag_262:\n        /* \"#utility.yul\":8396:8400   */\n      0x00\n        /* \"#utility.yul\":8419:8422   */\n      dup2\n        /* \"#utility.yul\":8411:8422   */\n      swap1\n      pop\n        /* \"#utility.yul\":8449:8453   */\n      0x20\n        /* \"#utility.yul\":8444:8447   */\n      dup3\n        /* \"#utility.yul\":8440:8454   */\n      add\n        /* \"#utility.yul\":8432:8454   */\n      swap1\n      pop\n        /* \"#utility.yul\":8329:8461   */\n      swap2\n      swap1\n      pop\n      jump\t// out\n        /* \"#utility.yul\":8467:8575   */\n    tag_263:\n        /* \"#utility.yul\":8544:8568   */\n      tag_365\n        /* \"#utility.yul\":8562:8567   */\n      dup2\n        /* \"#utility.yul\":8544:8568   */\n      tag_240\n      jump\t// in\n    tag_365:\n        /* \"#utility.yul\":8539:8542   */\n      dup3\n        /* \"#utility.yul\":8532:8569   */\n      mstore\n        /* \"#utility.yul\":8467:8575   */\n      pop\n      pop\n      jump\t// out\n        /* \"#utility.yul\":8581:8760   */\n    tag_264:\n        /* \"#utility.yul\":8650:8660   */\n      0x00\n        /* \"#utility.yul\":8671:8717   */\n      tag_367\n        /* \"#utility.yul\":8713:8716   */\n      dup4\n        /* \"#utility.yul\":8705:8711   */\n      dup4\n        /* \"#utility.yul\":8671:8717   */\n      tag_263\n      jump\t// in\n    tag_367:\n        /* \"#utility.yul\":8749:8753   */\n      0x20\n        /* \"#utility.yul\":8744:8747   */\n      dup4\n        /* \"#utility.yul\":8740:8754   */\n      add\n        /* \"#utility.yul\":8726:8754   */\n      swap1\n      pop\n        /* \"#utility.yul\":8581:8760   */\n      swap3\n      swap2\n      pop\n      pop\n      jump\t// out\n        /* \"#utility.yul\":8766:8879   */\n    tag_265:\n        /* \"#utility.yul\":8836:8840   */\n      0x00\n        /* \"#utility.yul\":8868:8872   */\n      0x20\n        /* \"#utility.yul\":8863:8866   */\n      dup3\n        /* \"#utility.yul\":8859:8873   */\n      add\n        /* \"#utility.yul\":8851:8873   */\n      swap1\n      pop\n        /* \"#utility.yul\":8766:8879   */\n      swap2\n      swap1\n      pop\n      jump\t// out\n        /* \"#utility.yul\":8915:9647   */\n    tag_266:\n        /* \"#utility.yul\":9034:9037   */\n      0x00\n        /* \"#utility.yul\":9063:9117   */\n      tag_370\n        /* \"#utility.yul\":9111:9116   */\n      dup3\n        /* \"#utility.yul\":9063:9117   */\n      tag_260\n      jump\t// in\n    tag_370:\n        /* \"#utility.yul\":9133:9219   */\n      tag_371\n        /* \"#utility.yul\":9212:9218   */\n      dup2\n        /* \"#utility.yul\":9207:9210   */\n      dup6\n        /* \"#utility.yul\":9133:9219   */\n      tag_261\n      jump\t// in\n    tag_371:\n        /* \"#utility.yul\":9126:9219   */\n      swap4\n      pop\n        /* \"#utility.yul\":9243:9299   */\n      tag_372\n        /* \"#utility.yul\":9293:9298   */\n      dup4\n        /* \"#utility.yul\":9243:9299   */\n      tag_262\n      jump\t// in\n    tag_372:\n        /* \"#utility.yul\":9322:9329   */\n      dup1\n        /* \"#utility.yul\":9353:9354   */\n      0x00\n        /* \"#utility.yul\":9338:9622   */\n    tag_373:\n        /* \"#utility.yul\":9363:9369   */\n      dup4\n        /* \"#utility.yul\":9360:9361   */\n      dup2\n        /* \"#utility.yul\":9357:9370   */\n      lt\n        /* \"#utility.yul\":9338:9622   */\n      iszero\n      tag_375\n      jumpi\n        /* \"#utility.yul\":9439:9445   */\n      dup2\n        /* \"#utility.yul\":9433:9446   */\n      mload\n        /* \"#utility.yul\":9466:9529   */\n      tag_376\n        /* \"#utility.yul\":9525:9528   */\n      dup9\n        /* \"#utility.yul\":9510:9523   */\n      dup3\n        /* \"#utility.yul\":9466:9529   */\n      tag_264\n      jump\t// in\n    tag_376:\n        /* \"#utility.yul\":9459:9529   */\n      swap8\n      pop\n        /* \"#utility.yul\":9552:9612   */\n      tag_377\n        /* \"#utility.yul\":9605:9611   */\n      dup4\n        /* \"#utility.yul\":9552:9612   */\n      tag_265\n      jump\t// in\n    tag_377:\n        /* \"#utility.yul\":9542:9612   */\n      swap3\n      pop\n        /* \"#utility.yul\":9398:9622   */\n      pop\n        /* \"#utility.yul\":9385:9386   */\n      0x01\n        /* \"#utility.yul\":9382:9383   */\n      dup2\n        /* \"#utility.yul\":9378:9387   */\n      add\n        /* \"#utility.yul\":9373:9387   */\n      swap1\n      pop\n        /* \"#utility.yul\":9338:9622   */\n      jump(tag_373)\n    tag_375:\n        /* \"#utility.yul\":9342:9356   */\n      pop\n        /* \"#utility.yul\":9638:9641   */\n      dup6\n        /* \"#utility.yul\":9631:9641   */\n      swap4\n      pop\n        /* \"#utility.yul\":9039:9647   */\n      pop\n      pop\n      pop\n        /* \"#utility.yul\":8915:9647   */\n      swap3\n      swap2\n      pop\n      pop\n      jump\t// out\n        /* \"#utility.yul\":9653:10548   */\n    tag_65:\n        /* \"#utility.yul\":9952:9956   */\n      0x00\n        /* \"#utility.yul\":9990:9992   */\n      0x60\n        /* \"#utility.yul\":9979:9988   */\n      dup3\n        /* \"#utility.yul\":9975:9993   */\n      add\n        /* \"#utility.yul\":9967:9993   */\n      swap1\n      pop\n        /* \"#utility.yul\":10039:10048   */\n      dup2\n        /* \"#utility.yul\":10033:10037   */\n      dup2\n        /* \"#utility.yul\":10029:10049   */\n      sub\n        /* \"#utility.yul\":10025:10026   */\n      0x00\n        /* \"#utility.yul\":10014:10023   */\n      dup4\n        /* \"#utility.yul\":10010:10027   */\n      add\n        /* \"#utility.yul\":10003:10050   */\n      mstore\n        /* \"#utility.yul\":10067:10175   */\n      tag_379\n        /* \"#utility.yul\":10170:10174   */\n      dup2\n        /* \"#utility.yul\":10161:10167   */\n      dup7\n        /* \"#utility.yul\":10067:10175   */\n      tag_252\n      jump\t// in\n    tag_379:\n        /* \"#utility.yul\":10059:10175   */\n      swap1\n      pop\n        /* \"#utility.yul\":10222:10231   */\n      dup2\n        /* \"#utility.yul\":10216:10220   */\n      dup2\n        /* \"#utility.yul\":10212:10232   */\n      sub\n        /* \"#utility.yul\":10207:10209   */\n      0x20\n        /* \"#utility.yul\":10196:10205   */\n      dup4\n        /* \"#utility.yul\":10192:10210   */\n      add\n        /* \"#utility.yul\":10185:10233   */\n      mstore\n        /* \"#utility.yul\":10250:10358   */\n      tag_380\n        /* \"#utility.yul\":10353:10357   */\n      dup2\n        /* \"#utility.yul\":10344:10350   */\n      dup6\n        /* \"#utility.yul\":10250:10358   */\n      tag_259\n      jump\t// in\n    tag_380:\n        /* \"#utility.yul\":10242:10358   */\n      swap1\n      pop\n        /* \"#utility.yul\":10405:10414   */\n      dup2\n        /* \"#utility.yul\":10399:10403   */\n      dup2\n        /* \"#utility.yul\":10395:10415   */\n      sub\n        /* \"#utility.yul\":10390:10392   */\n      0x40\n        /* \"#utility.yul\":10379:10388   */\n      dup4\n        /* \"#utility.yul\":10375:10393   */\n      add\n        /* \"#utility.yul\":10368:10416   */\n      mstore\n        /* \"#utility.yul\":10433:10541   */\n      tag_381\n        /* \"#utility.yul\":10536:10540   */\n      dup2\n        /* \"#utility.yul\":10527:10533   */\n      dup5\n        /* \"#utility.yul\":10433:10541   */\n      tag_266\n      jump\t// in\n    tag_381:\n        /* \"#utility.yul\":10425:10541   */\n      swap1\n      pop\n        /* \"#utility.yul\":9653:10548   */\n      swap5\n      swap4\n      pop\n      pop\n      pop\n      pop\n      jump\t// out\n        /* \"#utility.yul\":10554:10927   */\n    tag_73:\n        /* \"#utility.yul\":10697:10701   */\n      0x00\n        /* \"#utility.yul\":10735:10737   */\n      0x20\n        /* \"#utility.yul\":10724:10733   */\n      dup3\n        /* \"#utility.yul\":10720:10738   */\n      add\n        /* \"#utility.yul\":10712:10738   */\n      swap1\n      pop\n        /* \"#utility.yul\":10784:10793   */\n      dup2\n        /* \"#utility.yul\":10778:10782   */\n      dup2\n        /* \"#utility.yul\":10774:10794   */\n      sub\n        /* \"#utility.yul\":10770:10771   */\n      0x00\n        /* \"#utility.yul\":10759:10768   */\n      dup4\n        /* \"#utility.yul\":10755:10772   */\n      add\n        /* \"#utility.yul\":10748:10795   */\n      mstore\n        /* \"#utility.yul\":10812:10920   */\n      tag_383\n        /* \"#utility.yul\":10915:10919   */\n      dup2\n        /* \"#utility.yul\":10906:10912   */\n      dup5\n        /* \"#utility.yul\":10812:10920   */\n      tag_259\n      jump\t// in\n    tag_383:\n        /* \"#utility.yul\":10804:10920   */\n      swap1\n      pop\n        /* \"#utility.yul\":10554:10927   */\n      swap3\n      swap2\n      pop\n      pop\n      jump\t// out\n        /* \"#utility.yul\":11005:11879   */\n    tag_267:\n        /* \"#utility.yul\":11150:11154   */\n      0x80\n        /* \"#utility.yul\":11145:11148   */\n      dup3\n        /* \"#utility.yul\":11141:11155   */\n      add\n        /* \"#utility.yul\":11242:11246   */\n      0x00\n        /* \"#utility.yul\":11235:11240   */\n      dup3\n        /* \"#utility.yul\":11231:11247   */\n      add\n        /* \"#utility.yul\":11225:11248   */\n      mload\n        /* \"#utility.yul\":11261:11324   */\n      tag_385\n        /* \"#utility.yul\":11318:11322   */\n      0x00\n        /* \"#utility.yul\":11313:11316   */\n      dup6\n        /* \"#utility.yul\":11309:11323   */\n      add\n        /* \"#utility.yul\":11295:11307   */\n      dup3\n        /* \"#utility.yul\":11261:11324   */\n      tag_263\n      jump\t// in\n    tag_385:\n        /* \"#utility.yul\":11165:11334   */\n      pop\n        /* \"#utility.yul\":11418:11422   */\n      0x20\n        /* \"#utility.yul\":11411:11416   */\n      dup3\n        /* \"#utility.yul\":11407:11423   */\n      add\n        /* \"#utility.yul\":11401:11424   */\n      mload\n        /* \"#utility.yul\":11437:11500   */\n      tag_386\n        /* \"#utility.yul\":11494:11498   */\n      0x20\n        /* \"#utility.yul\":11489:11492   */\n      dup6\n        /* \"#utility.yul\":11485:11499   */\n      add\n        /* \"#utility.yul\":11471:11483   */\n      dup3\n        /* \"#utility.yul\":11437:11500   */\n      tag_263\n      jump\t// in\n    tag_386:\n        /* \"#utility.yul\":11344:11510   */\n      pop\n        /* \"#utility.yul\":11597:11601   */\n      0x40\n        /* \"#utility.yul\":11590:11595   */\n      dup3\n        /* \"#utility.yul\":11586:11602   */\n      add\n        /* \"#utility.yul\":11580:11603   */\n      mload\n        /* \"#utility.yul\":11616:11679   */\n      tag_387\n        /* \"#utility.yul\":11673:11677   */\n      0x40\n        /* \"#utility.yul\":11668:11671   */\n      dup6\n        /* \"#utility.yul\":11664:11678   */\n      add\n        /* \"#utility.yul\":11650:11662   */\n      dup3\n        /* \"#utility.yul\":11616:11679   */\n      tag_263\n      jump\t// in\n    tag_387:\n        /* \"#utility.yul\":11520:11689   */\n      pop\n        /* \"#utility.yul\":11780:11784   */\n      0x60\n        /* \"#utility.yul\":11773:11778   */\n      dup3\n        /* \"#utility.yul\":11769:11785   */\n      add\n        /* \"#utility.yul\":11763:11786   */\n      mload\n        /* \"#utility.yul\":11799:11862   */\n      tag_388\n        /* \"#utility.yul\":11856:11860   */\n      0x60\n        /* \"#utility.yul\":11851:11854   */\n      dup6\n        /* \"#utility.yul\":11847:11861   */\n      add\n        /* \"#utility.yul\":11833:11845   */\n      dup3\n        /* \"#utility.yul\":11799:11862   */\n      tag_263\n      jump\t// in\n    tag_388:\n        /* \"#utility.yul\":11699:11872   */\n      pop\n        /* \"#utility.yul\":11119:11879   */\n      pop\n        /* \"#utility.yul\":11005:11879   */\n      pop\n      pop\n      jump\t// out\n        /* \"#utility.yul\":11885:12204   */\n    tag_78:\n        /* \"#utility.yul\":12026:12030   */\n      0x00\n        /* \"#utility.yul\":12064:12067   */\n      0x80\n        /* \"#utility.yul\":12053:12062   */\n      dup3\n        /* \"#utility.yul\":12049:12068   */\n      add\n        /* \"#utility.yul\":12041:12068   */\n      swap1\n      pop\n        /* \"#utility.yul\":12078:12197   */\n      tag_390\n        /* \"#utility.yul\":12194:12195   */\n      0x00\n        /* \"#utility.yul\":12183:12192   */\n      dup4\n        /* \"#utility.yul\":12179:12196   */\n      add\n        /* \"#utility.yul\":12170:12176   */\n      dup5\n        /* \"#utility.yul\":12078:12197   */\n      tag_267\n      jump\t// in\n    tag_390:\n        /* \"#utility.yul\":11885:12204   */\n      swap3\n      swap2\n      pop\n      pop\n      jump\t// out\n        /* \"#utility.yul\":12210:12390   */\n    tag_268:\n        /* \"#utility.yul\":12258:12335   */\n      0x4e487b7100000000000000000000000000000000000000000000000000000000\n        /* \"#utility.yul\":12255:12256   */\n      0x00\n        /* \"#utility.yul\":12248:12336   */\n      mstore\n        /* \"#utility.yul\":12355:12359   */\n      0x11\n        /* \"#utility.yul\":12352:12353   */\n      0x04\n        /* \"#utility.yul\":12345:12360   */\n      mstore\n        /* \"#utility.yul\":12379:12383   */\n      0x24\n        /* \"#utility.yul\":12376:12377   */\n      0x00\n        /* \"#utility.yul\":12369:12384   */\n      revert\n        /* \"#utility.yul\":12396:12587   */\n    tag_101:\n        /* \"#utility.yul\":12436:12439   */\n      0x00\n        /* \"#utility.yul\":12455:12475   */\n      tag_393\n        /* \"#utility.yul\":12473:12474   */\n      dup3\n        /* \"#utility.yul\":12455:12475   */\n      tag_240\n      jump\t// in\n    tag_393:\n        /* \"#utility.yul\":12450:12475   */\n      swap2\n      pop\n        /* \"#utility.yul\":12489:12509   */\n      tag_394\n        /* \"#utility.yul\":12507:12508   */\n      dup4\n        /* \"#utility.yul\":12489:12509   */\n      tag_240\n      jump\t// in\n    tag_394:\n        /* \"#utility.yul\":12484:12509   */\n      swap3\n      pop\n        /* \"#utility.yul\":12532:12533   */\n      dup3\n        /* \"#utility.yul\":12529:12530   */\n      dup3\n        /* \"#utility.yul\":12525:12534   */\n      add\n        /* \"#utility.yul\":12518:12534   */\n      swap1\n      pop\n        /* \"#utility.yul\":12553:12556   */\n      dup1\n        /* \"#utility.yul\":12550:12551   */\n      dup3\n        /* \"#utility.yul\":12547:12557   */\n      gt\n        /* \"#utility.yul\":12544:12580   */\n      iszero\n      tag_395\n      jumpi\n        /* \"#utility.yul\":12560:12578   */\n      tag_396\n      tag_268\n      jump\t// in\n    tag_396:\n        /* \"#utility.yul\":12544:12580   */\n    tag_395:\n        /* \"#utility.yul\":12396:12587   */\n      swap3\n      swap2\n      pop\n      pop\n      jump\t// out\n        /* \"#utility.yul\":12593:12773   */\n    tag_108:\n        /* \"#utility.yul\":12641:12718   */\n      0x4e487b7100000000000000000000000000000000000000000000000000000000\n        /* \"#utility.yul\":12638:12639   */\n      0x00\n        /* \"#utility.yul\":12631:12719   */\n      mstore\n        /* \"#utility.yul\":12738:12742   */\n      0x32\n        /* \"#utility.yul\":12735:12736   */\n      0x04\n        /* \"#utility.yul\":12728:12743   */\n      mstore\n        /* \"#utility.yul\":12762:12766   */\n      0x24\n        /* \"#utility.yul\":12759:12760   */\n      0x00\n        /* \"#utility.yul\":12752:12767   */\n      revert\n        /* \"#utility.yul\":12779:13012   */\n    tag_154:\n        /* \"#utility.yul\":12818:12821   */\n      0x00\n        /* \"#utility.yul\":12841:12865   */\n      tag_399\n        /* \"#utility.yul\":12859:12864   */\n      dup3\n        /* \"#utility.yul\":12841:12865   */\n      tag_240\n      jump\t// in\n    tag_399:\n        /* \"#utility.yul\":12832:12865   */\n      swap2\n      pop\n        /* \"#utility.yul\":12887:12953   */\n      0xffffffffffffffffffffffffffffffffffffffffffffffffffffffffffffffff\n        /* \"#utility.yul\":12880:12885   */\n      dup3\n        /* \"#utility.yul\":12877:12954   */\n      sub\n        /* \"#utility.yul\":12874:12977   */\n      tag_400\n      jumpi\n        /* \"#utility.yul\":12957:12975   */\n      tag_401\n      tag_268\n      jump\t// in\n    tag_401:\n        /* \"#utility.yul\":12874:12977   */\n    tag_400:\n        /* \"#utility.yul\":13004:13005   */\n      0x01\n        /* \"#utility.yul\":12997:13002   */\n      dup3\n        /* \"#utility.yul\":12993:13006   */\n      add\n        /* \"#utility.yul\":12986:13006   */\n      swap1\n      pop\n        /* \"#utility.yul\":12779:13012   */\n      swap2\n      swap1\n      pop\n      jump\t// out\n        /* \"#utility.yul\":13018:13198   */\n    tag_157:\n        /* \"#utility.yul\":13066:13143   */\n      0x4e487b7100000000000000000000000000000000000000000000000000000000\n        /* \"#utility.yul\":13063:13064   */\n      0x00\n        /* \"#utility.yul\":13056:13144   */\n      mstore\n        /* \"#utility.yul\":13163:13167   */\n      0x41\n        /* \"#utility.yul\":13160:13161   */\n      0x04\n        /* \"#utility.yul\":13153:13168   */\n      mstore\n        /* \"#utility.yul\":13187:13191   */\n      0x24\n        /* \"#utility.yul\":13184:13185   */\n      0x00\n        /* \"#utility.yul\":13177:13192   */\n      revert\n        /* \"#utility.yul\":13204:13398   */\n    tag_201:\n        /* \"#utility.yul\":13244:13248   */\n      0x00\n        /* \"#utility.yul\":13264:13284   */\n      tag_404\n        /* \"#utility.yul\":13282:13283   */\n      dup3\n        /* \"#utility.yul\":13264:13284   */\n      tag_240\n      jump\t// in\n    tag_404:\n        /* \"#utility.yul\":13259:13284   */\n      swap2\n      pop\n        /* \"#utility.yul\":13298:13318   */\n      tag_405\n        /* \"#utility.yul\":13316:13317   */\n      dup4\n        /* \"#utility.yul\":13298:13318   */\n      tag_240\n      jump\t// in\n    tag_405:\n        /* \"#utility.yul\":13293:13318   */\n      swap3\n      pop\n        /* \"#utility.yul\":13342:13343   */\n      dup3\n        /* \"#utility.yul\":13339:13340   */\n      dup3\n        /* \"#utility.yul\":13335:13344   */\n      sub\n        /* \"#utility.yul\":13327:13344   */\n      swap1\n      pop\n        /* \"#utility.yul\":13366:13367   */\n      dup2\n        /* \"#utility.yul\":13360:13364   */\n      dup2\n        /* \"#utility.yul\":13357:13368   */\n      gt\n        /* \"#utility.yul\":13354:13391   */\n      iszero\n      tag_406\n      jumpi\n        /* \"#utility.yul\":13371:13389   */\n      tag_407\n      tag_268\n      jump\t// in\n    tag_407:\n        /* \"#utility.yul\":13354:13391   */\n    tag_406:\n        /* \"#utility.yul\":13204:13398   */\n      swap3\n      swap2\n      pop\n      pop\n      jump\t// out\n\n    auxdata: 0xa26469706673582212203104291067da5ab9d21cdfe0db180e0c5002500064be3e9b63d8e2dd0bab6fd264736f6c634300081e0033\n}\n",
				"bytecode": {
					"linkReferences": {},
					"object": "608060405234801561000f575f5ffd5b50604051611e65380380611e6583398181016040528101906100319190610284565b805f73ffffffffffffffffffffffffffffffffffffffff168173ffffffffffffffffffffffffffffffffffffffff16036100a2575f6040517f1e4fbdf700000000000000000000000000000000000000000000000000000000815260040161009991906102be565b60405180910390fd5b6100b18161011d60201b60201c565b505f73ffffffffffffffffffffffffffffffffffffffff168173ffffffffffffffffffffffffffffffffffffffff1603610117576040517fd92e233d00000000000000000000000000000000000000000000000000000000815260040160405180910390fd5b506102d7565b61012c8161012f60201b60201c565b50565b60015f6101000a81549073ffffffffffffffffffffffffffffffffffffffff02191690556101628161016560201b60201c565b50565b5f5f5f9054906101000a900473ffffffffffffffffffffffffffffffffffffffff169050815f5f6101000a81548173ffffffffffffffffffffffffffffffffffffffff021916908373ffffffffffffffffffffffffffffffffffffffff1602179055508173ffffffffffffffffffffffffffffffffffffffff168173ffffffffffffffffffffffffffffffffffffffff167f8be0079c531659141344cd1fd0a4f28419497f9722a3daafe3b4186f6b6457e060405160405180910390a35050565b5f5ffd5b5f73ffffffffffffffffffffffffffffffffffffffff82169050919050565b5f6102538261022a565b9050919050565b61026381610249565b811461026d575f5ffd5b50565b5f8151905061027e8161025a565b92915050565b5f6020828403121561029957610298610226565b5b5f6102a684828501610270565b91505092915050565b6102b881610249565b82525050565b5f6020820190506102d15f8301846102af565b92915050565b611b81806102e45f395ff3fe608060405234801561000f575f5ffd5b5060043610610114575f3560e01c806390646b4a116100a0578063be2ccf921161006f578063be2ccf92146102b8578063bff1f9e1146102e8578063e00afc7614610306578063e30c397814610336578063f2fde38b1461035457610114565b806390646b4a14610230578063a00818051461024c578063ab8ea7071461026c578063bd9a84591461028857610114565b8063715018a6116100e7578063715018a6146101b257806379ba5097146101bc57806384a8f0ce146101c65780638da5cb5b146101f65780638fba5aaa1461021457610114565b8063116191b61461011857806321922e3c146101365780633b49ad4714610152578063598a96bf14610182575b5f5ffd5b610120610370565b60405161012d9190611509565b60405180910390f35b610150600480360381019061014b91906115b6565b610395565b005b61016c6004803603810190610167919061162d565b610654565b604051610179919061167a565b60405180910390f35b61019c60048036038101906101979190611693565b6106ac565b6040516101a99190611509565b60405180910390f35b6101ba6106f0565b005b6101c4610703565b005b6101e060048036038101906101db919061162d565b610791565b6040516101ed91906116d8565b60405180910390f35b6101fe6107eb565b60405161020b9190611509565b60405180910390f35b61022e600480360381019061022991906115b6565b610812565b005b61024a600480360381019061024591906116f1565b61092d565b005b610254610a5d565b60405161026393929190611941565b60405180910390f35b6102866004803603810190610281919061162d565b610f40565b005b6102a2600480360381019061029d91906116f1565b610ffa565b6040516102af919061198b565b60405180910390f35b6102d260048036038101906102cd919061162d565b61108d565b6040516102df91906119fe565b60405180910390f35b6102f061111b565b6040516102fd919061167a565b60405180910390f35b610320600480360381019061031b919061162d565b611127565b60405161032d919061167a565b60405180910390f35b61033e6111a0565b60405161034b9190611509565b60405180910390f35b61036e600480360381019061036991906116f1565b6111c8565b005b60065f9054906101000a900473ffffffffffffffffffffffffffffffffffffffff1681565b61039d6111dc565b5f60025f8773ffffffffffffffffffffffffffffffffffffffff1673ffffffffffffffffffffffffffffffffffffffff1681526020019081526020015f205f8681526020019081526020015f20905060055f8773ffffffffffffffffffffffffffffffffffffffff1673ffffffffffffffffffffffffffffffffffffffff1681526020019081526020015f205f8681526020019081526020015f205f9054906101000a900460ff166105b757600160055f8873ffffffffffffffffffffffffffffffffffffffff1673ffffffffffffffffffffffffffffffffffffffff1681526020019081526020015f205f8781526020019081526020015f205f6101000a81548160ff0219169083151502179055505f60045f8873ffffffffffffffffffffffffffffffffffffffff1673ffffffffffffffffffffffffffffffffffffffff1681526020019081526020015f20805490500361055557600386908060018154018082558091505060019003905f5260205f20015f9091909190916101000a81548173ffffffffffffffffffffffffffffffffffffffff021916908373ffffffffffffffffffffffffffffffffffffffff1602179055505b60045f8773ffffffffffffffffffffffffffffffffffffffff1673ffffffffffffffffffffffffffffffffffffffff1681526020019081526020015f2085908060018154018082558091505060019003905f5260205f20015f90919091909150555b83815f018190555082816001018190555081816002015f8282546105db9190611a44565b925050819055506001816003015f8282546105f69190611a44565b92505081905550848673ffffffffffffffffffffffffffffffffffffffff167f30e530be31051a50dac6b9e9312f59403efadf08c2739d34255eed366daa9b2986604051610644919061167a565b60405180910390a3505050505050565b5f60025f8473ffffffffffffffffffffffffffffffffffffffff1673ffffffffffffffffffffffffffffffffffffffff1681526020019081526020015f205f8381526020019081526020015f205f0154905092915050565b5f600382815481106106c1576106c0611a77565b5b905f5260205f20015f9054906101000a900473ffffffffffffffffffffffffffffffffffffffff169050919050565b6106f861126f565b6107015f6112f6565b565b5f61070c611302565b90508073ffffffffffffffffffffffffffffffffffffffff1661072d6111a0565b73ffffffffffffffffffffffffffffffffffffffff161461078557806040517f118cdaa700000000000000000000000000000000000000000000000000000000815260040161077c9190611509565b60405180910390fd5b61078e816112f6565b50565b5f4260025f8573ffffffffffffffffffffffffffffffffffffffff1673ffffffffffffffffffffffffffffffffffffffff1681526020019081526020015f205f8481526020019081526020015f205f015411905092915050565b5f5f5f9054906101000a900473ffffffffffffffffffffffffffffffffffffffff16905090565b61081a6111dc565b5f60025f8773ffffffffffffffffffffffffffffffffffffffff1673ffffffffffffffffffffffffffffffffffffffff1681526020019081526020015f205f8681526020019081526020015f2090505f42825f01541161087a574261087f565b815f01545b9050848161088d9190611a44565b825f018190555083826001018190555082826002015f8282546108b09190611a44565b925050819055506001826003015f8282546108cb9190611a44565b92505081905550858773ffffffffffffffffffffffffffffffffffffffff167f30e530be31051a50dac6b9e9312f59403efadf08c2739d34255eed366daa9b29845f015460405161091c919061167a565b60405180910390a350505050505050565b61093561126f565b5f73ffffffffffffffffffffffffffffffffffffffff168173ffffffffffffffffffffffffffffffffffffffff160361099a576040517fd92e233d00000000000000000000000000000000000000000000000000000000815260040160405180910390fd5b5f60065f9054906101000a900473ffffffffffffffffffffffffffffffffffffffff1690508160065f6101000a81548173ffffffffffffffffffffffffffffffffffffffff021916908373ffffffffffffffffffffffffffffffffffffffff1602179055508173ffffffffffffffffffffffffffffffffffffffff168173ffffffffffffffffffffffffffffffffffffffff167f68e84423772dadc3e4047f8b5bd221ddb02dc67796e7852533fd976947d86c5160405160405180910390a35050565b60608060605f5f60038054905090505f5f90505b81811015610bef575f60038281548110610a8e57610a8d611a77565b5b905f5260205f20015f9054906101000a900473ffffffffffffffffffffffffffffffffffffffff1690505f60045f8373ffffffffffffffffffffffffffffffffffffffff1673ffffffffffffffffffffffffffffffffffffffff1681526020019081526020015f20805480602002602001604051908101604052809291908181526020018280548015610b3e57602002820191905f5260205f20905b815481526020019060010190808311610b2a575b505050505090505f5f90505b8151811015610bdf574260025f8573ffffffffffffffffffffffffffffffffffffffff1673ffffffffffffffffffffffffffffffffffffffff1681526020019081526020015f205f848481518110610ba557610ba4611a77565b5b602002602001015181526020019081526020015f205f01541115610bd2578580610bce90611aa4565b9650505b8080600101915050610b4a565b5050508080600101915050610a71565b508167ffffffffffffffff811115610c0a57610c09611aeb565b5b604051908082528060200260200182016040528015610c385781602001602082028036833780820191505090505b5094508167ffffffffffffffff811115610c5557610c54611aeb565b5b604051908082528060200260200182016040528015610c835781602001602082028036833780820191505090505b5093508167ffffffffffffffff811115610ca057610c9f611aeb565b5b604051908082528060200260200182016040528015610cce5781602001602082028036833780820191505090505b5092505f5f5f90505b82811015610f37575f60038281548110610cf457610cf3611a77565b5b905f5260205f20015f9054906101000a900473ffffffffffffffffffffffffffffffffffffffff1690505f60045f8373ffffffffffffffffffffffffffffffffffffffff1673ffffffffffffffffffffffffffffffffffffffff1681526020019081526020015f20805480602002602001604051908101604052809291908181526020018280548015610da457602002820191905f5260205f20905b815481526020019060010190808311610d90575b505050505090505f5f90505b8151811015610f27575f60025f8573ffffffffffffffffffffffffffffffffffffffff1673ffffffffffffffffffffffffffffffffffffffff1681526020019081526020015f205f848481518110610e0b57610e0a611a77565b5b602002602001015181526020019081526020015f206040518060800160405290815f82015481526020016001820154815260200160028201548152602001600382015481525050905042815f01511115610f1957838b8781518110610e7357610e72611a77565b5b602002602001019073ffffffffffffffffffffffffffffffffffffffff16908173ffffffffffffffffffffffffffffffffffffffff1681525050828281518110610ec057610ebf611a77565b5b60200260200101518a8781518110610edb57610eda611a77565b5b602002602001018181525050805f0151898781518110610efe57610efd611a77565b5b6020026020010181815250508580610f1590611aa4565b9650505b508080600101915050610db0565b5050508080600101915050610cd7565b50505050909192565b610f486111dc565b60025f8373ffffffffffffffffffffffffffffffffffffffff1673ffffffffffffffffffffffffffffffffffffffff1681526020019081526020015f205f8281526020019081526020015f205f5f82015f9055600182015f9055600282015f9055600382015f90555050808273ffffffffffffffffffffffffffffffffffffffff167f6dfcdd7c3a670de39b2a722be00af76cfd69168402b0a0ca88a632f94d612e3e60405160405180910390a35050565b606060045f8373ffffffffffffffffffffffffffffffffffffffff1673ffffffffffffffffffffffffffffffffffffffff1681526020019081526020015f2080548060200260200160405190810160405280929190818152602001828054801561108157602002820191905f5260205f20905b81548152602001906001019080831161106d575b50505050509050919050565b6110956114a6565b60025f8473ffffffffffffffffffffffffffffffffffffffff1673ffffffffffffffffffffffffffffffffffffffff1681526020019081526020015f205f8381526020019081526020015f206040518060800160405290815f82015481526020016001820154815260200160028201548152602001600382015481525050905092915050565b5f600380549050905090565b5f5f60025f8573ffffffffffffffffffffffffffffffffffffffff1673ffffffffffffffffffffffffffffffffffffffff1681526020019081526020015f205f8481526020019081526020015f205f0154905042811161118a575f91505061119a565b42816111969190611b18565b9150505b92915050565b5f60015f9054906101000a900473ffffffffffffffffffffffffffffffffffffffff16905090565b6111d061126f565b6111d981611309565b50565b60065f9054906101000a900473ffffffffffffffffffffffffffffffffffffffff1673ffffffffffffffffffffffffffffffffffffffff163373ffffffffffffffffffffffffffffffffffffffff161461126d57336040517f0b1c2e610000000000000000000000000000000000000000000000000000000081526004016112649190611509565b60405180910390fd5b565b611277611302565b73ffffffffffffffffffffffffffffffffffffffff166112956107eb565b73ffffffffffffffffffffffffffffffffffffffff16146112f4576112b8611302565b6040517f118cdaa70000000000000000000000000000000000000000000000000000000081526004016112eb9190611509565b60405180910390fd5b565b6112ff816113b5565b50565b5f33905090565b61131161126f565b8060015f6101000a81548173ffffffffffffffffffffffffffffffffffffffff021916908373ffffffffffffffffffffffffffffffffffffffff1602179055508073ffffffffffffffffffffffffffffffffffffffff166113706107eb565b73ffffffffffffffffffffffffffffffffffffffff167f38d16b8cac22d99fc7c124b9cd0de2d3fa1faef420bfe791d8c362d765e2270060405160405180910390a350565b60015f6101000a81549073ffffffffffffffffffffffffffffffffffffffff02191690556113e2816113e5565b50565b5f5f5f9054906101000a900473ffffffffffffffffffffffffffffffffffffffff169050815f5f6101000a81548173ffffffffffffffffffffffffffffffffffffffff021916908373ffffffffffffffffffffffffffffffffffffffff1602179055508173ffffffffffffffffffffffffffffffffffffffff168173ffffffffffffffffffffffffffffffffffffffff167f8be0079c531659141344cd1fd0a4f28419497f9722a3daafe3b4186f6b6457e060405160405180910390a35050565b60405180608001604052805f81526020015f81526020015f81526020015f81525090565b5f73ffffffffffffffffffffffffffffffffffffffff82169050919050565b5f6114f3826114ca565b9050919050565b611503816114e9565b82525050565b5f60208201905061151c5f8301846114fa565b92915050565b5f5ffd5b61152f816114e9565b8114611539575f5ffd5b50565b5f8135905061154a81611526565b92915050565b5f819050919050565b61156281611550565b811461156c575f5ffd5b50565b5f8135905061157d81611559565b92915050565b5f819050919050565b61159581611583565b811461159f575f5ffd5b50565b5f813590506115b08161158c565b92915050565b5f5f5f5f5f60a086880312156115cf576115ce611522565b5b5f6115dc8882890161153c565b95505060206115ed8882890161156f565b94505060406115fe888289016115a2565b935050606061160f888289016115a2565b9250506080611620888289016115a2565b9150509295509295909350565b5f5f6040838503121561164357611642611522565b5b5f6116508582860161153c565b92505060206116618582860161156f565b9150509250929050565b61167481611583565b82525050565b5f60208201905061168d5f83018461166b565b92915050565b5f602082840312156116a8576116a7611522565b5b5f6116b5848285016115a2565b91505092915050565b5f8115159050919050565b6116d2816116be565b82525050565b5f6020820190506116eb5f8301846116c9565b92915050565b5f6020828403121561170657611705611522565b5b5f6117138482850161153c565b91505092915050565b5f81519050919050565b5f82825260208201905092915050565b5f819050602082019050919050565b61174e816114e9565b82525050565b5f61175f8383611745565b60208301905092915050565b5f602082019050919050565b5f6117818261171c565b61178b8185611726565b935061179683611736565b805f5b838110156117c65781516117ad8882611754565b97506117b88361176b565b925050600181019050611799565b5085935050505092915050565b5f81519050919050565b5f82825260208201905092915050565b5f819050602082019050919050565b61180581611550565b82525050565b5f61181683836117fc565b60208301905092915050565b5f602082019050919050565b5f611838826117d3565b61184281856117dd565b935061184d836117ed565b805f5b8381101561187d578151611864888261180b565b975061186f83611822565b925050600181019050611850565b5085935050505092915050565b5f81519050919050565b5f82825260208201905092915050565b5f819050602082019050919050565b6118bc81611583565b82525050565b5f6118cd83836118b3565b60208301905092915050565b5f602082019050919050565b5f6118ef8261188a565b6118f98185611894565b9350611904836118a4565b805f5b8381101561193457815161191b88826118c2565b9750611926836118d9565b925050600181019050611907565b5085935050505092915050565b5f6060820190508181035f8301526119598186611777565b9050818103602083015261196d818561182e565b9050818103604083015261198181846118e5565b9050949350505050565b5f6020820190508181035f8301526119a3818461182e565b905092915050565b608082015f8201516119bf5f8501826118b3565b5060208201516119d260208501826118b3565b5060408201516119e560408501826118b3565b5060608201516119f860608501826118b3565b50505050565b5f608082019050611a115f8301846119ab565b92915050565b7f4e487b71000000000000000000000000000000000000000000000000000000005f52601160045260245ffd5b5f611a4e82611583565b9150611a5983611583565b9250828201905080821115611a7157611a70611a17565b5b92915050565b7f4e487b71000000000000000000000000000000000000000000000000000000005f52603260045260245ffd5b5f611aae82611583565b91507fffffffffffffffffffffffffffffffffffffffffffffffffffffffffffffffff8203611ae057611adf611a17565b5b600182019050919050565b7f4e487b71000000000000000000000000000000000000000000000000000000005f52604160045260245ffd5b5f611b2282611583565b9150611b2d83611583565b9250828203905081811115611b4557611b44611a17565b5b9291505056fea26469706673582212203104291067da5ab9d21cdfe0db180e0c5002500064be3e9b63d8e2dd0bab6fd264736f6c634300081e0033",
					"opcodes": "PUSH1 0x80 PUSH1 0x40 MSTORE CALLVALUE DUP1 ISZERO PUSH2 0xF JUMPI PUSH0 PUSH0 REVERT JUMPDEST POP PUSH1 0x40 MLOAD PUSH2 0x1E65 CODESIZE SUB DUP1 PUSH2 0x1E65 DUP4 CODECOPY DUP2 DUP2 ADD PUSH1 0x40 MSTORE DUP2 ADD SWAP1 PUSH2 0x31 SWAP2 SWAP1 PUSH2 0x284 JUMP JUMPDEST DUP1 PUSH0 PUSH20 0xFFFFFFFFFFFFFFFFFFFFFFFFFFFFFFFFFFFFFFFF AND DUP2 PUSH20 0xFFFFFFFFFFFFFFFFFFFFFFFFFFFFFFFFFFFFFFFF AND SUB PUSH2 0xA2 JUMPI PUSH0 PUSH1 0x40 MLOAD PUSH32 0x1E4FBDF700000000000000000000000000000000000000000000000000000000 DUP2 MSTORE PUSH1 0x4 ADD PUSH2 0x99 SWAP2 SWAP1 PUSH2 0x2BE JUMP JUMPDEST PUSH1 0x40 MLOAD DUP1 SWAP2 SUB SWAP1 REVERT JUMPDEST PUSH2 0xB1 DUP2 PUSH2 0x11D PUSH1 0x20 SHL PUSH1 0x20 SHR JUMP JUMPDEST POP PUSH0 PUSH20 0xFFFFFFFFFFFFFFFFFFFFFFFFFFFFFFFFFFFFFFFF AND DUP2 PUSH20 0xFFFFFFFFFFFFFFFFFFFFFFFFFFFFFFFFFFFFFFFF AND SUB PUSH2 0x117 JUMPI PUSH1 0x40 MLOAD PUSH32 0xD92E233D00000000000000000000000000000000000000000000000000000000 DUP2 MSTORE PUSH1 0x4 ADD PUSH1 0x40 MLOAD DUP1 SWAP2 SUB SWAP1 REVERT JUMPDEST POP PUSH2 0x2D7 JUMP JUMPDEST PUSH2 0x12C DUP2 PUSH2 0x12F PUSH1 0x20 SHL PUSH1 0x20 SHR JUMP JUMPDEST POP JUMP JUMPDEST PUSH1 0x1 PUSH0 PUSH2 0x100 EXP DUP2 SLOAD SWAP1 PUSH20 0xFFFFFFFFFFFFFFFFFFFFFFFFFFFFFFFFFFFFFFFF MUL NOT AND SWAP1 SSTORE PUSH2 0x162 DUP2 PUSH2 0x165 PUSH1 0x20 SHL PUSH1 0x20 SHR JUMP JUMPDEST POP JUMP JUMPDEST PUSH0 PUSH0 PUSH0 SWAP1 SLOAD SWAP1 PUSH2 0x100 EXP SWAP1 DIV PUSH20 0xFFFFFFFFFFFFFFFFFFFFFFFFFFFFFFFFFFFFFFFF AND SWAP1 POP DUP2 PUSH0 PUSH0 PUSH2 0x100 EXP DUP2 SLOAD DUP2 PUSH20 0xFFFFFFFFFFFFFFFFFFFFFFFFFFFFFFFFFFFFFFFF MUL NOT AND SWAP1 DUP4 PUSH20 0xFFFFFFFFFFFFFFFFFFFFFFFFFFFFFFFFFFFFFFFF AND MUL OR SWAP1 SSTORE POP DUP2 PUSH20 0xFFFFFFFFFFFFFFFFFFFFFFFFFFFFFFFFFFFFFFFF AND DUP2 PUSH20 0xFFFFFFFFFFFFFFFFFFFFFFFFFFFFFFFFFFFFFFFF AND PUSH32 0x8BE0079C531659141344CD1FD0A4F28419497F9722A3DAAFE3B4186F6B6457E0 PUSH1 0x40 MLOAD PUSH1 0x40 MLOAD DUP1 SWAP2 SUB SWAP1 LOG3 POP POP JUMP JUMPDEST PUSH0 PUSH0 REVERT JUMPDEST PUSH0 PUSH20 0xFFFFFFFFFFFFFFFFFFFFFFFFFFFFFFFFFFFFFFFF DUP3 AND SWAP1 POP SWAP2 SWAP1 POP JUMP JUMPDEST PUSH0 PUSH2 0x253 DUP3 PUSH2 0x22A JUMP JUMPDEST SWAP1 POP SWAP2 SWAP1 POP JUMP JUMPDEST PUSH2 0x263 DUP2 PUSH2 0x249 JUMP JUMPDEST DUP2 EQ PUSH2 0x26D JUMPI PUSH0 PUSH0 REVERT JUMPDEST POP JUMP JUMPDEST PUSH0 DUP2 MLOAD SWAP1 POP PUSH2 0x27E DUP2 PUSH2 0x25A JUMP JUMPDEST SWAP3 SWAP2 POP POP JUMP JUMPDEST PUSH0 PUSH1 0x20 DUP3 DUP5 SUB SLT ISZERO PUSH2 0x299 JUMPI PUSH2 0x298 PUSH2 0x226 JUMP JUMPDEST JUMPDEST PUSH0 PUSH2 0x2A6 DUP5 DUP3 DUP6 ADD PUSH2 0x270 JUMP JUMPDEST SWAP2 POP POP SWAP3 SWAP2 POP POP JUMP JUMPDEST PUSH2 0x2B8 DUP2 PUSH2 0x249 JUMP JUMPDEST DUP3 MSTORE POP POP JUMP JUMPDEST PUSH0 PUSH1 0x20 DUP3 ADD SWAP1 POP PUSH2 0x2D1 PUSH0 DUP4 ADD DUP5 PUSH2 0x2AF JUMP JUMPDEST SWAP3 SWAP2 POP POP JUMP JUMPDEST PUSH2 0x1B81 DUP1 PUSH2 0x2E4 PUSH0 CODECOPY PUSH0 RETURN INVALID PUSH1 0x80 PUSH1 0x40 MSTORE CALLVALUE DUP1 ISZERO PUSH2 0xF JUMPI PUSH0 PUSH0 REVERT JUMPDEST POP PUSH1 0x4 CALLDATASIZE LT PUSH2 0x114 JUMPI PUSH0 CALLDATALOAD PUSH1 0xE0 SHR DUP1 PUSH4 0x90646B4A GT PUSH2 0xA0 JUMPI DUP1 PUSH4 0xBE2CCF92 GT PUSH2 0x6F JUMPI DUP1 PUSH4 0xBE2CCF92 EQ PUSH2 0x2B8 JUMPI DUP1 PUSH4 0xBFF1F9E1 EQ PUSH2 0x2E8 JUMPI DUP1 PUSH4 0xE00AFC76 EQ PUSH2 0x306 JUMPI DUP1 PUSH4 0xE30C3978 EQ PUSH2 0x336 JUMPI DUP1 PUSH4 0xF2FDE38B EQ PUSH2 0x354 JUMPI PUSH2 0x114 JUMP JUMPDEST DUP1 PUSH4 0x90646B4A EQ PUSH2 0x230 JUMPI DUP1 PUSH4 0xA0081805 EQ PUSH2 0x24C JUMPI DUP1 PUSH4 0xAB8EA707 EQ PUSH2 0x26C JUMPI DUP1 PUSH4 0xBD9A8459 EQ PUSH2 0x288 JUMPI PUSH2 0x114 JUMP JUMPDEST DUP1 PUSH4 0x715018A6 GT PUSH2 0xE7 JUMPI DUP1 PUSH4 0x715018A6 EQ PUSH2 0x1B2 JUMPI DUP1 PUSH4 0x79BA5097 EQ PUSH2 0x1BC JUMPI DUP1 PUSH4 0x84A8F0CE EQ PUSH2 0x1C6 JUMPI DUP1 PUSH4 0x8DA5CB5B EQ PUSH2 0x1F6 JUMPI DUP1 PUSH4 0x8FBA5AAA EQ PUSH2 0x214 JUMPI PUSH2 0x114 JUMP JUMPDEST DUP1 PUSH4 0x116191B6 EQ PUSH2 0x118 JUMPI DUP1 PUSH4 0x21922E3C EQ PUSH2 0x136 JUMPI DUP1 PUSH4 0x3B49AD47 EQ PUSH2 0x152 JUMPI DUP1 PUSH4 0x598A96BF EQ PUSH2 0x182 JUMPI JUMPDEST PUSH0 PUSH0 REVERT JUMPDEST PUSH2 0x120 PUSH2 0x370 JUMP JUMPDEST PUSH1 0x40 MLOAD PUSH2 0x12D SWAP2 SWAP1 PUSH2 0x1509 JUMP JUMPDEST PUSH1 0x40 MLOAD DUP1 SWAP2 SUB SWAP1 RETURN JUMPDEST PUSH2 0x150 PUSH1 0x4 DUP1 CALLDATASIZE SUB DUP2 ADD SWAP1 PUSH2 0x14B SWAP2 SWAP1 PUSH2 0x15B6 JUMP JUMPDEST PUSH2 0x395 JUMP JUMPDEST STOP JUMPDEST PUSH2 0x16C PUSH1 0x4 DUP1 CALLDATASIZE SUB DUP2 ADD SWAP1 PUSH2 0x167 SWAP2 SWAP1 PUSH2 0x162D JUMP JUMPDEST PUSH2 0x654 JUMP JUMPDEST PUSH1 0x40 MLOAD PUSH2 0x179 SWAP2 SWAP1 PUSH2 0x167A JUMP JUMPDEST PUSH1 0x40 MLOAD DUP1 SWAP2 SUB SWAP1 RETURN JUMPDEST PUSH2 0x19C PUSH1 0x4 DUP1 CALLDATASIZE SUB DUP2 ADD SWAP1 PUSH2 0x197 SWAP2 SWAP1 PUSH2 0x1693 JUMP JUMPDEST PUSH2 0x6AC JUMP JUMPDEST PUSH1 0x40 MLOAD PUSH2 0x1A9 SWAP2 SWAP1 PUSH2 0x1509 JUMP JUMPDEST PUSH1 0x40 MLOAD DUP1 SWAP2 SUB SWAP1 RETURN JUMPDEST PUSH2 0x1BA PUSH2 0x6F0 JUMP JUMPDEST STOP JUMPDEST PUSH2 0x1C4 PUSH2 0x703 JUMP JUMPDEST STOP JUMPDEST PUSH2 0x1E0 PUSH1 0x4 DUP1 CALLDATASIZE SUB DUP2 ADD SWAP1 PUSH2 0x1DB SWAP2 SWAP1 PUSH2 0x162D JUMP JUMPDEST PUSH2 0x791 JUMP JUMPDEST PUSH1 0x40 MLOAD PUSH2 0x1ED SWAP2 SWAP1 PUSH2 0x16D8 JUMP JUMPDEST PUSH1 0x40 MLOAD DUP1 SWAP2 SUB SWAP1 RETURN JUMPDEST PUSH2 0x1FE PUSH2 0x7EB JUMP JUMPDEST PUSH1 0x40 MLOAD PUSH2 0x20B SWAP2 SWAP1 PUSH2 0x1509 JUMP JUMPDEST PUSH1 0x40 MLOAD DUP1 SWAP2 SUB SWAP1 RETURN JUMPDEST PUSH2 0x22E PUSH1 0x4 DUP1 CALLDATASIZE SUB DUP2 ADD SWAP1 PUSH2 0x229 SWAP2 SWAP1 PUSH2 0x15B6 JUMP JUMPDEST PUSH2 0x812 JUMP JUMPDEST STOP JUMPDEST PUSH2 0x24A PUSH1 0x4 DUP1 CALLDATASIZE SUB DUP2 ADD SWAP1 PUSH2 0x245 SWAP2 SWAP1 PUSH2 0x16F1 JUMP JUMPDEST PUSH2 0x92D JUMP JUMPDEST STOP JUMPDEST PUSH2 0x254 PUSH2 0xA5D JUMP JUMPDEST PUSH1 0x40 MLOAD PUSH2 0x263 SWAP4 SWAP3 SWAP2 SWAP1 PUSH2 0x1941 JUMP JUMPDEST PUSH1 0x40 MLOAD DUP1 SWAP2 SUB SWAP1 RETURN JUMPDEST PUSH2 0x286 PUSH1 0x4 DUP1 CALLDATASIZE SUB DUP2 ADD SWAP1 PUSH2 0x281 SWAP2 SWAP1 PUSH2 0x162D JUMP JUMPDEST PUSH2 0xF40 JUMP JUMPDEST STOP JUMPDEST PUSH2 0x2A2 PUSH1 0x4 DUP1 CALLDATASIZE SUB DUP2 ADD SWAP1 PUSH2 0x29D SWAP2 SWAP1 PUSH2 0x16F1 JUMP JUMPDEST PUSH2 0xFFA JUMP JUMPDEST PUSH1 0x40 MLOAD PUSH2 0x2AF SWAP2 SWAP1 PUSH2 0x198B JUMP JUMPDEST PUSH1 0x40 MLOAD DUP1 SWAP2 SUB SWAP1 RETURN JUMPDEST PUSH2 0x2D2 PUSH1 0x4 DUP1 CALLDATASIZE SUB DUP2 ADD SWAP1 PUSH2 0x2CD SWAP2 SWAP1 PUSH2 0x162D JUMP JUMPDEST PUSH2 0x108D JUMP JUMPDEST PUSH1 0x40 MLOAD PUSH2 0x2DF SWAP2 SWAP1 PUSH2 0x19FE JUMP JUMPDEST PUSH1 0x40 MLOAD DUP1 SWAP2 SUB SWAP1 RETURN JUMPDEST PUSH2 0x2F0 PUSH2 0x111B JUMP JUMPDEST PUSH1 0x40 MLOAD PUSH2 0x2FD SWAP2 SWAP1 PUSH2 0x167A JUMP JUMPDEST PUSH1 0x40 MLOAD DUP1 SWAP2 SUB SWAP1 RETURN JUMPDEST PUSH2 0x320 PUSH1 0x4 DUP1 CALLDATASIZE SUB DUP2 ADD SWAP1 PUSH2 0x31B SWAP2 SWAP1 PUSH2 0x162D JUMP JUMPDEST PUSH2 0x1127 JUMP JUMPDEST PUSH1 0x40 MLOAD PUSH2 0x32D SWAP2 SWAP1 PUSH2 0x167A JUMP JUMPDEST PUSH1 0x40 MLOAD DUP1 SWAP2 SUB SWAP1 RETURN JUMPDEST PUSH2 0x33E PUSH2 0x11A0 JUMP JUMPDEST PUSH1 0x40 MLOAD PUSH2 0x34B SWAP2 SWAP1 PUSH2 0x1509 JUMP JUMPDEST PUSH1 0x40 MLOAD DUP1 SWAP2 SUB SWAP1 RETURN JUMPDEST PUSH2 0x36E PUSH1 0x4 DUP1 CALLDATASIZE SUB DUP2 ADD SWAP1 PUSH2 0x369 SWAP2 SWAP1 PUSH2 0x16F1 JUMP JUMPDEST PUSH2 0x11C8 JUMP JUMPDEST STOP JUMPDEST PUSH1 0x6 PUSH0 SWAP1 SLOAD SWAP1 PUSH2 0x100 EXP SWAP1 DIV PUSH20 0xFFFFFFFFFFFFFFFFFFFFFFFFFFFFFFFFFFFFFFFF AND DUP2 JUMP JUMPDEST PUSH2 0x39D PUSH2 0x11DC JUMP JUMPDEST PUSH0 PUSH1 0x2 PUSH0 DUP8 PUSH20 0xFFFFFFFFFFFFFFFFFFFFFFFFFFFFFFFFFFFFFFFF AND PUSH20 0xFFFFFFFFFFFFFFFFFFFFFFFFFFFFFFFFFFFFFFFF AND DUP2 MSTORE PUSH1 0x20 ADD SWAP1 DUP2 MSTORE PUSH1 0x20 ADD PUSH0 KECCAK256 PUSH0 DUP7 DUP2 MSTORE PUSH1 0x20 ADD SWAP1 DUP2 MSTORE PUSH1 0x20 ADD PUSH0 KECCAK256 SWAP1 POP PUSH1 0x5 PUSH0 DUP8 PUSH20 0xFFFFFFFFFFFFFFFFFFFFFFFFFFFFFFFFFFFFFFFF AND PUSH20 0xFFFFFFFFFFFFFFFFFFFFFFFFFFFFFFFFFFFFFFFF AND DUP2 MSTORE PUSH1 0x20 ADD SWAP1 DUP2 MSTORE PUSH1 0x20 ADD PUSH0 KECCAK256 PUSH0 DUP7 DUP2 MSTORE PUSH1 0x20 ADD SWAP1 DUP2 MSTORE PUSH1 0x20 ADD PUSH0 KECCAK256 PUSH0 SWAP1 SLOAD SWAP1 PUSH2 0x100 EXP SWAP1 DIV PUSH1 0xFF AND PUSH2 0x5B7 JUMPI PUSH1 0x1 PUSH1 0x5 PUSH0 DUP9 PUSH20 0xFFFFFFFFFFFFFFFFFFFFFFFFFFFFFFFFFFFFFFFF AND PUSH20 0xFFFFFFFFFFFFFFFFFFFFFFFFFFFFFFFFFFFFFFFF AND DUP2 MSTORE PUSH1 0x20 ADD SWAP1 DUP2 MSTORE PUSH1 0x20 ADD PUSH0 KECCAK256 PUSH0 DUP8 DUP2 MSTORE PUSH1 0x20 ADD SWAP1 DUP2 MSTORE PUSH1 0x20 ADD PUSH0 KECCAK256 PUSH0 PUSH2 0x100 EXP DUP2 SLOAD DUP2 PUSH1 0xFF MUL NOT AND SWAP1 DUP4 ISZERO ISZERO MUL OR SWAP1 SSTORE POP PUSH0 PUSH1 0x4 PUSH0 DUP9 PUSH20 0xFFFFFFFFFFFFFFFFFFFFFFFFFFFFFFFFFFFFFFFF AND PUSH20 0xFFFFFFFFFFFFFFFFFFFFFFFFFFFFFFFFFFFFFFFF AND DUP2 MSTORE PUSH1 0x20 ADD SWAP1 DUP2 MSTORE PUSH1 0x20 ADD PUSH0 KECCAK256 DUP1 SLOAD SWAP1 POP SUB PUSH2 0x555 JUMPI PUSH1 0x3 DUP7 SWAP1 DUP1 PUSH1 0x1 DUP2 SLOAD ADD DUP1 DUP3 SSTORE DUP1 SWAP2 POP POP PUSH1 0x1 SWAP1 SUB SWAP1 PUSH0 MSTORE PUSH1 0x20 PUSH0 KECCAK256 ADD PUSH0 SWAP1 SWAP2 SWAP1 SWAP2 SWAP1 SWAP2 PUSH2 0x100 EXP DUP2 SLOAD DUP2 PUSH20 0xFFFFFFFFFFFFFFFFFFFFFFFFFFFFFFFFFFFFFFFF MUL NOT AND SWAP1 DUP4 PUSH20 0xFFFFFFFFFFFFFFFFFFFFFFFFFFFFFFFFFFFFFFFF AND MUL OR SWAP1 SSTORE POP JUMPDEST PUSH1 0x4 PUSH0 DUP8 PUSH20 0xFFFFFFFFFFFFFFFFFFFFFFFFFFFFFFFFFFFFFFFF AND PUSH20 0xFFFFFFFFFFFFFFFFFFFFFFFFFFFFFFFFFFFFFFFF AND DUP2 MSTORE PUSH1 0x20 ADD SWAP1 DUP2 MSTORE PUSH1 0x20 ADD PUSH0 KECCAK256 DUP6 SWAP1 DUP1 PUSH1 0x1 DUP2 SLOAD ADD DUP1 DUP3 SSTORE DUP1 SWAP2 POP POP PUSH1 0x1 SWAP1 SUB SWAP1 PUSH0 MSTORE PUSH1 0x20 PUSH0 KECCAK256 ADD PUSH0 SWAP1 SWAP2 SWAP1 SWAP2 SWAP1 SWAP2 POP SSTORE JUMPDEST DUP4 DUP2 PUSH0 ADD DUP2 SWAP1 SSTORE POP DUP3 DUP2 PUSH1 0x1 ADD DUP2 SWAP1 SSTORE POP DUP2 DUP2 PUSH1 0x2 ADD PUSH0 DUP3 DUP3 SLOAD PUSH2 0x5DB SWAP2 SWAP1 PUSH2 0x1A44 JUMP JUMPDEST SWAP3 POP POP DUP2 SWAP1 SSTORE POP PUSH1 0x1 DUP2 PUSH1 0x3 ADD PUSH0 DUP3 DUP3 SLOAD PUSH2 0x5F6 SWAP2 SWAP1 PUSH2 0x1A44 JUMP JUMPDEST SWAP3 POP POP DUP2 SWAP1 SSTORE POP DUP5 DUP7 PUSH20 0xFFFFFFFFFFFFFFFFFFFFFFFFFFFFFFFFFFFFFFFF AND PUSH32 0x30E530BE31051A50DAC6B9E9312F59403EFADF08C2739D34255EED366DAA9B29 DUP7 PUSH1 0x40 MLOAD PUSH2 0x644 SWAP2 SWAP1 PUSH2 0x167A JUMP JUMPDEST PUSH1 0x40 MLOAD DUP1 SWAP2 SUB SWAP1 LOG3 POP POP POP POP POP POP JUMP JUMPDEST PUSH0 PUSH1 0x2 PUSH0 DUP5 PUSH20 0xFFFFFFFFFFFFFFFFFFFFFFFFFFFFFFFFFFFFFFFF AND PUSH20 0xFFFFFFFFFFFFFFFFFFFFFFFFFFFFFFFFFFFFFFFF AND DUP2 MSTORE PUSH1 0x20 ADD SWAP1 DUP2 MSTORE PUSH1 0x20 ADD PUSH0 KECCAK256 PUSH0 DUP4 DUP2 MSTORE PUSH1 0x20 ADD SWAP1 DUP2 MSTORE PUSH1 0x20 ADD PUSH0 KECCAK256 PUSH0 ADD SLOAD SWAP1 POP SWAP3 SWAP2 POP POP JUMP JUMPDEST PUSH0 PUSH1 0x3 DUP3 DUP2 SLOAD DUP2 LT PUSH2 0x6C1 JUMPI PUSH2 0x6C0 PUSH2 0x1A77 JUMP JUMPDEST JUMPDEST SWAP1 PUSH0 MSTORE PUSH1 0x20 PUSH0 KECCAK256 ADD PUSH0 SWAP1 SLOAD SWAP1 PUSH2 0x100 EXP SWAP1 DIV PUSH20 0xFFFFFFFFFFFFFFFFFFFFFFFFFFFFFFFFFFFFFFFF AND SWAP1 POP SWAP2 SWAP1 POP JUMP JUMPDEST PUSH2 0x6F8 PUSH2 0x126F JUMP JUMPDEST PUSH2 0x701 PUSH0 PUSH2 0x12F6 JUMP JUMPDEST JUMP JUMPDEST PUSH0 PUSH2 0x70C PUSH2 0x1302 JUMP JUMPDEST SWAP1 POP DUP1 PUSH20 0xFFFFFFFFFFFFFFFFFFFFFFFFFFFFFFFFFFFFFFFF AND PUSH2 0x72D PUSH2 0x11A0 JUMP JUMPDEST PUSH20 0xFFFFFFFFFFFFFFFFFFFFFFFFFFFFFFFFFFFFFFFF AND EQ PUSH2 0x785 JUMPI DUP1 PUSH1 0x40 MLOAD PUSH32 0x118CDAA700000000000000000000000000000000000000000000000000000000 DUP2 MSTORE PUSH1 0x4 ADD PUSH2 0x77C SWAP2 SWAP1 PUSH2 0x1509 JUMP JUMPDEST PUSH1 0x40 MLOAD DUP1 SWAP2 SUB SWAP1 REVERT JUMPDEST PUSH2 0x78E DUP2 PUSH2 0x12F6 JUMP JUMPDEST POP JUMP JUMPDEST PUSH0 TIMESTAMP PUSH1 0x2 PUSH0 DUP6 PUSH20 0xFFFFFFFFFFFFFFFFFFFFFFFFFFFFFFFFFFFFFFFF AND PUSH20 0xFFFFFFFFFFFFFFFFFFFFFFFFFFFFFFFFFFFFFFFF AND DUP2 MSTORE PUSH1 0x20 ADD SWAP1 DUP2 MSTORE PUSH1 0x20 ADD PUSH0 KECCAK256 PUSH0 DUP5 DUP2 MSTORE PUSH1 0x20 ADD SWAP1 DUP2 MSTORE PUSH1 0x20 ADD PUSH0 KECCAK256 PUSH0 ADD SLOAD GT SWAP1 POP SWAP3 SWAP2 POP POP JUMP JUMPDEST PUSH0 PUSH0 PUSH0 SWAP1 SLOAD SWAP1 PUSH2 0x100 EXP SWAP1 DIV PUSH20 0xFFFFFFFFFFFFFFFFFFFFFFFFFFFFFFFFFFFFFFFF AND SWAP1 POP SWAP1 JUMP JUMPDEST PUSH2 0x81A PUSH2 0x11DC JUMP JUMPDEST PUSH0 PUSH1 0x2 PUSH0 DUP8 PUSH20 0xFFFFFFFFFFFFFFFFFFFFFFFFFFFFFFFFFFFFFFFF AND PUSH20 0xFFFFFFFFFFFFFFFFFFFFFFFFFFFFFFFFFFFFFFFF AND DUP2 MSTORE PUSH1 0x20 ADD SWAP1 DUP2 MSTORE PUSH1 0x20 ADD PUSH0 KECCAK256 PUSH0 DUP7 DUP2 MSTORE PUSH1 0x20 ADD SWAP1 DUP2 MSTORE PUSH1 0x20 ADD PUSH0 KECCAK256 SWAP1 POP PUSH0 TIMESTAMP DUP3 PUSH0 ADD SLOAD GT PUSH2 0x87A JUMPI TIMESTAMP PUSH2 0x87F JUMP JUMPDEST DUP2 PUSH0 ADD SLOAD JUMPDEST SWAP1 POP DUP5 DUP2 PUSH2 0x88D SWAP2 SWAP1 PUSH2 0x1A44 JUMP JUMPDEST DUP3 PUSH0 ADD DUP2 SWAP1 SSTORE POP DUP4 DUP3 PUSH1 0x1 ADD DUP2 SWAP1 SSTORE POP DUP3 DUP3 PUSH1 0x2 ADD PUSH0 DUP3 DUP3 SLOAD PUSH2 0x8B0 SWAP2 SWAP1 PUSH2 0x1A44 JUMP JUMPDEST SWAP3 POP POP DUP2 SWAP1 SSTORE POP PUSH1 0x1 DUP3 PUSH1 0x3 ADD PUSH0 DUP3 DUP3 SLOAD PUSH2 0x8CB SWAP2 SWAP1 PUSH2 0x1A44 JUMP JUMPDEST SWAP3 POP POP DUP2 SWAP1 SSTORE POP DUP6 DUP8 PUSH20 0xFFFFFFFFFFFFFFFFFFFFFFFFFFFFFFFFFFFFFFFF AND PUSH32 0x30E530BE31051A50DAC6B9E9312F59403EFADF08C2739D34255EED366DAA9B29 DUP5 PUSH0 ADD SLOAD PUSH1 0x40 MLOAD PUSH2 0x91C SWAP2 SWAP1 PUSH2 0x167A JUMP JUMPDEST PUSH1 0x40 MLOAD DUP1 SWAP2 SUB SWAP1 LOG3 POP POP POP POP POP POP POP JUMP JUMPDEST PUSH2 0x935 PUSH2 0x126F JUMP JUMPDEST PUSH0 PUSH20 0xFFFFFFFFFFFFFFFFFFFFFFFFFFFFFFFFFFFFFFFF AND DUP2 PUSH20 0xFFFFFFFFFFFFFFFFFFFFFFFFFFFFFFFFFFFFFFFF AND SUB PUSH2 0x99A JUMPI PUSH1 0x40 MLOAD PUSH32 0xD92E233D00000000000000000000000000000000000000000000000000000000 DUP2 MSTORE PUSH1 0x4 ADD PUSH1 0x40 MLOAD DUP1 SWAP2 SUB SWAP1 REVERT JUMPDEST PUSH0 PUSH1 0x6 PUSH0 SWAP1 SLOAD SWAP1 PUSH2 0x100 EXP SWAP1 DIV PUSH20 0xFFFFFFFFFFFFFFFFFFFFFFFFFFFFFFFFFFFFFFFF AND SWAP1 POP DUP2 PUSH1 0x6 PUSH0 PUSH2 0x100 EXP DUP2 SLOAD DUP2 PUSH20 0xFFFFFFFFFFFFFFFFFFFFFFFFFFFFFFFFFFFFFFFF MUL NOT AND SWAP1 DUP4 PUSH20 0xFFFFFFFFFFFFFFFFFFFFFFFFFFFFFFFFFFFFFFFF AND MUL OR SWAP1 SSTORE POP DUP2 PUSH20 0xFFFFFFFFFFFFFFFFFFFFFFFFFFFFFFFFFFFFFFFF AND DUP2 PUSH20 0xFFFFFFFFFFFFFFFFFFFFFFFFFFFFFFFFFFFFFFFF AND PUSH32 0x68E84423772DADC3E4047F8B5BD221DDB02DC67796E7852533FD976947D86C51 PUSH1 0x40 MLOAD PUSH1 0x40 MLOAD DUP1 SWAP2 SUB SWAP1 LOG3 POP POP JUMP JUMPDEST PUSH1 0x60 DUP1 PUSH1 0x60 PUSH0 PUSH0 PUSH1 0x3 DUP1 SLOAD SWAP1 POP SWAP1 POP PUSH0 PUSH0 SWAP1 POP JUMPDEST DUP2 DUP2 LT ISZERO PUSH2 0xBEF JUMPI PUSH0 PUSH1 0x3 DUP3 DUP2 SLOAD DUP2 LT PUSH2 0xA8E JUMPI PUSH2 0xA8D PUSH2 0x1A77 JUMP JUMPDEST JUMPDEST SWAP1 PUSH0 MSTORE PUSH1 0x20 PUSH0 KECCAK256 ADD PUSH0 SWAP1 SLOAD SWAP1 PUSH2 0x100 EXP SWAP1 DIV PUSH20 0xFFFFFFFFFFFFFFFFFFFFFFFFFFFFFFFFFFFFFFFF AND SWAP1 POP PUSH0 PUSH1 0x4 PUSH0 DUP4 PUSH20 0xFFFFFFFFFFFFFFFFFFFFFFFFFFFFFFFFFFFFFFFF AND PUSH20 0xFFFFFFFFFFFFFFFFFFFFFFFFFFFFFFFFFFFFFFFF AND DUP2 MSTORE PUSH1 0x20 ADD SWAP1 DUP2 MSTORE PUSH1 0x20 ADD PUSH0 KECCAK256 DUP1 SLOAD DUP1 PUSH1 0x20 MUL PUSH1 0x20 ADD PUSH1 0x40 MLOAD SWAP1 DUP2 ADD PUSH1 0x40 MSTORE DUP1 SWAP3 SWAP2 SWAP1 DUP2 DUP2 MSTORE PUSH1 0x20 ADD DUP3 DUP1 SLOAD DUP1 ISZERO PUSH2 0xB3E JUMPI PUSH1 0x20 MUL DUP3 ADD SWAP2 SWAP1 PUSH0 MSTORE PUSH1 0x20 PUSH0 KECCAK256 SWAP1 JUMPDEST DUP2 SLOAD DUP2 MSTORE PUSH1 0x20 ADD SWAP1 PUSH1 0x1 ADD SWAP1 DUP1 DUP4 GT PUSH2 0xB2A JUMPI JUMPDEST POP POP POP POP POP SWAP1 POP PUSH0 PUSH0 SWAP1 POP JUMPDEST DUP2 MLOAD DUP2 LT ISZERO PUSH2 0xBDF JUMPI TIMESTAMP PUSH1 0x2 PUSH0 DUP6 PUSH20 0xFFFFFFFFFFFFFFFFFFFFFFFFFFFFFFFFFFFFFFFF AND PUSH20 0xFFFFFFFFFFFFFFFFFFFFFFFFFFFFFFFFFFFFFFFF AND DUP2 MSTORE PUSH1 0x20 ADD SWAP1 DUP2 MSTORE PUSH1 0x20 ADD PUSH0 KECCAK256 PUSH0 DUP5 DUP5 DUP2 MLOAD DUP2 LT PUSH2 0xBA5 JUMPI PUSH2 0xBA4 PUSH2 0x1A77 JUMP JUMPDEST JUMPDEST PUSH1 0x20 MUL PUSH1 0x20 ADD ADD MLOAD DUP2 MSTORE PUSH1 0x20 ADD SWAP1 DUP2 MSTORE PUSH1 0x20 ADD PUSH0 KECCAK256 PUSH0 ADD SLOAD GT ISZERO PUSH2 0xBD2 JUMPI DUP6 DUP1 PUSH2 0xBCE SWAP1 PUSH2 0x1AA4 JUMP JUMPDEST SWAP7 POP POP JUMPDEST DUP1 DUP1 PUSH1 0x1 ADD SWAP2 POP POP PUSH2 0xB4A JUMP JUMPDEST POP POP POP DUP1 DUP1 PUSH1 0x1 ADD SWAP2 POP POP PUSH2 0xA71 JUMP JUMPDEST POP DUP2 PUSH8 0xFFFFFFFFFFFFFFFF DUP2 GT ISZERO PUSH2 0xC0A JUMPI PUSH2 0xC09 PUSH2 0x1AEB JUMP JUMPDEST JUMPDEST PUSH1 0x40 MLOAD SWAP1 DUP1 DUP3 MSTORE DUP1 PUSH1 0x20 MUL PUSH1 0x20 ADD DUP3 ADD PUSH1 0x40 MSTORE DUP1 ISZERO PUSH2 0xC38 JUMPI DUP2 PUSH1 0x20 ADD PUSH1 0x20 DUP3 MUL DUP1 CALLDATASIZE DUP4 CALLDATACOPY DUP1 DUP3 ADD SWAP2 POP POP SWAP1 POP JUMPDEST POP SWAP5 POP DUP2 PUSH8 0xFFFFFFFFFFFFFFFF DUP2 GT ISZERO PUSH2 0xC55 JUMPI PUSH2 0xC54 PUSH2 0x1AEB JUMP JUMPDEST JUMPDEST PUSH1 0x40 MLOAD SWAP1 DUP1 DUP3 MSTORE DUP1 PUSH1 0x20 MUL PUSH1 0x20 ADD DUP3 ADD PUSH1 0x40 MSTORE DUP1 ISZERO PUSH2 0xC83 JUMPI DUP2 PUSH1 0x20 ADD PUSH1 0x20 DUP3 MUL DUP1 CALLDATASIZE DUP4 CALLDATACOPY DUP1 DUP3 ADD SWAP2 POP POP SWAP1 POP JUMPDEST POP SWAP4 POP DUP2 PUSH8 0xFFFFFFFFFFFFFFFF DUP2 GT ISZERO PUSH2 0xCA0 JUMPI PUSH2 0xC9F PUSH2 0x1AEB JUMP JUMPDEST JUMPDEST PUSH1 0x40 MLOAD SWAP1 DUP1 DUP3 MSTORE DUP1 PUSH1 0x20 MUL PUSH1 0x20 ADD DUP3 ADD PUSH1 0x40 MSTORE DUP1 ISZERO PUSH2 0xCCE JUMPI DUP2 PUSH1 0x20 ADD PUSH1 0x20 DUP3 MUL DUP1 CALLDATASIZE DUP4 CALLDATACOPY DUP1 DUP3 ADD SWAP2 POP POP SWAP1 POP JUMPDEST POP SWAP3 POP PUSH0 PUSH0 PUSH0 SWAP1 POP JUMPDEST DUP3 DUP2 LT ISZERO PUSH2 0xF37 JUMPI PUSH0 PUSH1 0x3 DUP3 DUP2 SLOAD DUP2 LT PUSH2 0xCF4 JUMPI PUSH2 0xCF3 PUSH2 0x1A77 JUMP JUMPDEST JUMPDEST SWAP1 PUSH0 MSTORE PUSH1 0x20 PUSH0 KECCAK256 ADD PUSH0 SWAP1 SLOAD SWAP1 PUSH2 0x100 EXP SWAP1 DIV PUSH20 0xFFFFFFFFFFFFFFFFFFFFFFFFFFFFFFFFFFFFFFFF AND SWAP1 POP PUSH0 PUSH1 0x4 PUSH0 DUP4 PUSH20 0xFFFFFFFFFFFFFFFFFFFFFFFFFFFFFFFFFFFFFFFF AND PUSH20 0xFFFFFFFFFFFFFFFFFFFFFFFFFFFFFFFFFFFFFFFF AND DUP2 MSTORE PUSH1 0x20 ADD SWAP1 DUP2 MSTORE PUSH1 0x20 ADD PUSH0 KECCAK256 DUP1 SLOAD DUP1 PUSH1 0x20 MUL PUSH1 0x20 ADD PUSH1 0x40 MLOAD SWAP1 DUP2 ADD PUSH1 0x40 MSTORE DUP1 SWAP3 SWAP2 SWAP1 DUP2 DUP2 MSTORE PUSH1 0x20 ADD DUP3 DUP1 SLOAD DUP1 ISZERO PUSH2 0xDA4 JUMPI PUSH1 0x20 MUL DUP3 ADD SWAP2 SWAP1 PUSH0 MSTORE PUSH1 0x20 PUSH0 KECCAK256 SWAP1 JUMPDEST DUP2 SLOAD DUP2 MSTORE PUSH1 0x20 ADD SWAP1 PUSH1 0x1 ADD SWAP1 DUP1 DUP4 GT PUSH2 0xD90 JUMPI JUMPDEST POP POP POP POP POP SWAP1 POP PUSH0 PUSH0 SWAP1 POP JUMPDEST DUP2 MLOAD DUP2 LT ISZERO PUSH2 0xF27 JUMPI PUSH0 PUSH1 0x2 PUSH0 DUP6 PUSH20 0xFFFFFFFFFFFFFFFFFFFFFFFFFFFFFFFFFFFFFFFF AND PUSH20 0xFFFFFFFFFFFFFFFFFFFFFFFFFFFFFFFFFFFFFFFF AND DUP2 MSTORE PUSH1 0x20 ADD SWAP1 DUP2 MSTORE PUSH1 0x20 ADD PUSH0 KECCAK256 PUSH0 DUP5 DUP5 DUP2 MLOAD DUP2 LT PUSH2 0xE0B JUMPI PUSH2 0xE0A PUSH2 0x1A77 JUMP JUMPDEST JUMPDEST PUSH1 0x20 MUL PUSH1 0x20 ADD ADD MLOAD DUP2 MSTORE PUSH1 0x20 ADD SWAP1 DUP2 MSTORE PUSH1 0x20 ADD PUSH0 KECCAK256 PUSH1 0x40 MLOAD DUP1 PUSH1 0x80 ADD PUSH1 0x40 MSTORE SWAP1 DUP2 PUSH0 DUP3 ADD SLOAD DUP2 MSTORE PUSH1 0x20 ADD PUSH1 0x1 DUP3 ADD SLOAD DUP2 MSTORE PUSH1 0x20 ADD PUSH1 0x2 DUP3 ADD SLOAD DUP2 MSTORE PUSH1 0x20 ADD PUSH1 0x3 DUP3 ADD SLOAD DUP2 MSTORE POP POP SWAP1 POP TIMESTAMP DUP2 PUSH0 ADD MLOAD GT ISZERO PUSH2 0xF19 JUMPI DUP4 DUP12 DUP8 DUP2 MLOAD DUP2 LT PUSH2 0xE73 JUMPI PUSH2 0xE72 PUSH2 0x1A77 JUMP JUMPDEST JUMPDEST PUSH1 0x20 MUL PUSH1 0x20 ADD ADD SWAP1 PUSH20 0xFFFFFFFFFFFFFFFFFFFFFFFFFFFFFFFFFFFFFFFF AND SWAP1 DUP2 PUSH20 0xFFFFFFFFFFFFFFFFFFFFFFFFFFFFFFFFFFFFFFFF AND DUP2 MSTORE POP POP DUP3 DUP3 DUP2 MLOAD DUP2 LT PUSH2 0xEC0 JUMPI PUSH2 0xEBF PUSH2 0x1A77 JUMP JUMPDEST JUMPDEST PUSH1 0x20 MUL PUSH1 0x20 ADD ADD MLOAD DUP11 DUP8 DUP2 MLOAD DUP2 LT PUSH2 0xEDB JUMPI PUSH2 0xEDA PUSH2 0x1A77 JUMP JUMPDEST JUMPDEST PUSH1 0x20 MUL PUSH1 0x20 ADD ADD DUP2 DUP2 MSTORE POP POP DUP1 PUSH0 ADD MLOAD DUP10 DUP8 DUP2 MLOAD DUP2 LT PUSH2 0xEFE JUMPI PUSH2 0xEFD PUSH2 0x1A77 JUMP JUMPDEST JUMPDEST PUSH1 0x20 MUL PUSH1 0x20 ADD ADD DUP2 DUP2 MSTORE POP POP DUP6 DUP1 PUSH2 0xF15 SWAP1 PUSH2 0x1AA4 JUMP JUMPDEST SWAP7 POP POP JUMPDEST POP DUP1 DUP1 PUSH1 0x1 ADD SWAP2 POP POP PUSH2 0xDB0 JUMP JUMPDEST POP POP POP DUP1 DUP1 PUSH1 0x1 ADD SWAP2 POP POP PUSH2 0xCD7 JUMP JUMPDEST POP POP POP POP SWAP1 SWAP2 SWAP3 JUMP JUMPDEST PUSH2 0xF48 PUSH2 0x11DC JUMP JUMPDEST PUSH1 0x2 PUSH0 DUP4 PUSH20 0xFFFFFFFFFFFFFFFFFFFFFFFFFFFFFFFFFFFFFFFF AND PUSH20 0xFFFFFFFFFFFFFFFFFFFFFFFFFFFFFFFFFFFFFFFF AND DUP2 MSTORE PUSH1 0x20 ADD SWAP1 DUP2 MSTORE PUSH1 0x20 ADD PUSH0 KECCAK256 PUSH0 DUP3 DUP2 MSTORE PUSH1 0x20 ADD SWAP1 DUP2 MSTORE PUSH1 0x20 ADD PUSH0 KECCAK256 PUSH0 PUSH0 DUP3 ADD PUSH0 SWAP1 SSTORE PUSH1 0x1 DUP3 ADD PUSH0 SWAP1 SSTORE PUSH1 0x2 DUP3 ADD PUSH0 SWAP1 SSTORE PUSH1 0x3 DUP3 ADD PUSH0 SWAP1 SSTORE POP POP DUP1 DUP3 PUSH20 0xFFFFFFFFFFFFFFFFFFFFFFFFFFFFFFFFFFFFFFFF AND PUSH32 0x6DFCDD7C3A670DE39B2A722BE00AF76CFD69168402B0A0CA88A632F94D612E3E PUSH1 0x40 MLOAD PUSH1 0x40 MLOAD DUP1 SWAP2 SUB SWAP1 LOG3 POP POP JUMP JUMPDEST PUSH1 0x60 PUSH1 0x4 PUSH0 DUP4 PUSH20 0xFFFFFFFFFFFFFFFFFFFFFFFFFFFFFFFFFFFFFFFF AND PUSH20 0xFFFFFFFFFFFFFFFFFFFFFFFFFFFFFFFFFFFFFFFF AND DUP2 MSTORE PUSH1 0x20 ADD SWAP1 DUP2 MSTORE PUSH1 0x20 ADD PUSH0 KECCAK256 DUP1 SLOAD DUP1 PUSH1 0x20 MUL PUSH1 0x20 ADD PUSH1 0x40 MLOAD SWAP1 DUP2 ADD PUSH1 0x40 MSTORE DUP1 SWAP3 SWAP2 SWAP1 DUP2 DUP2 MSTORE PUSH1 0x20 ADD DUP3 DUP1 SLOAD DUP1 ISZERO PUSH2 0x1081 JUMPI PUSH1 0x20 MUL DUP3 ADD SWAP2 SWAP1 PUSH0 MSTORE PUSH1 0x20 PUSH0 KECCAK256 SWAP1 JUMPDEST DUP2 SLOAD DUP2 MSTORE PUSH1 0x20 ADD SWAP1 PUSH1 0x1 ADD SWAP1 DUP1 DUP4 GT PUSH2 0x106D JUMPI JUMPDEST POP POP POP POP POP SWAP1 POP SWAP2 SWAP1 POP JUMP JUMPDEST PUSH2 0x1095 PUSH2 0x14A6 JUMP JUMPDEST PUSH1 0x2 PUSH0 DUP5 PUSH20 0xFFFFFFFFFFFFFFFFFFFFFFFFFFFFFFFFFFFFFFFF AND PUSH20 0xFFFFFFFFFFFFFFFFFFFFFFFFFFFFFFFFFFFFFFFF AND DUP2 MSTORE PUSH1 0x20 ADD SWAP1 DUP2 MSTORE PUSH1 0x20 ADD PUSH0 KECCAK256 PUSH0 DUP4 DUP2 MSTORE PUSH1 0x20 ADD SWAP1 DUP2 MSTORE PUSH1 0x20 ADD PUSH0 KECCAK256 PUSH1 0x40 MLOAD DUP1 PUSH1 0x80 ADD PUSH1 0x40 MSTORE SWAP1 DUP2 PUSH0 DUP3 ADD SLOAD DUP2 MSTORE PUSH1 0x20 ADD PUSH1 0x1 DUP3 ADD SLOAD DUP2 MSTORE PUSH1 0x20 ADD PUSH1 0x2 DUP3 ADD SLOAD DUP2 MSTORE PUSH1 0x20 ADD PUSH1 0x3 DUP3 ADD SLOAD DUP2 MSTORE POP POP SWAP1 POP SWAP3 SWAP2 POP POP JUMP JUMPDEST PUSH0 PUSH1 0x3 DUP1 SLOAD SWAP1 POP SWAP1 POP SWAP1 JUMP JUMPDEST PUSH0 PUSH0 PUSH1 0x2 PUSH0 DUP6 PUSH20 0xFFFFFFFFFFFFFFFFFFFFFFFFFFFFFFFFFFFFFFFF AND PUSH20 0xFFFFFFFFFFFFFFFFFFFFFFFFFFFFFFFFFFFFFFFF AND DUP2 MSTORE PUSH1 0x20 ADD SWAP1 DUP2 MSTORE PUSH1 0x20 ADD PUSH0 KECCAK256 PUSH0 DUP5 DUP2 MSTORE PUSH1 0x20 ADD SWAP1 DUP2 MSTORE PUSH1 0x20 ADD PUSH0 KECCAK256 PUSH0 ADD SLOAD SWAP1 POP TIMESTAMP DUP2 GT PUSH2 0x118A JUMPI PUSH0 SWAP2 POP POP PUSH2 0x119A JUMP JUMPDEST TIMESTAMP DUP2 PUSH2 0x1196 SWAP2 SWAP1 PUSH2 0x1B18 JUMP JUMPDEST SWAP2 POP POP JUMPDEST SWAP3 SWAP2 POP POP JUMP JUMPDEST PUSH0 PUSH1 0x1 PUSH0 SWAP1 SLOAD SWAP1 PUSH2 0x100 EXP SWAP1 DIV PUSH20 0xFFFFFFFFFFFFFFFFFFFFFFFFFFFFFFFFFFFFFFFF AND SWAP1 POP SWAP1 JUMP JUMPDEST PUSH2 0x11D0 PUSH2 0x126F JUMP JUMPDEST PUSH2 0x11D9 DUP2 PUSH2 0x1309 JUMP JUMPDEST POP JUMP JUMPDEST PUSH1 0x6 PUSH0 SWAP1 SLOAD SWAP1 PUSH2 0x100 EXP SWAP1 DIV PUSH20 0xFFFFFFFFFFFFFFFFFFFFFFFFFFFFFFFFFFFFFFFF AND PUSH20 0xFFFFFFFFFFFFFFFFFFFFFFFFFFFFFFFFFFFFFFFF AND CALLER PUSH20 0xFFFFFFFFFFFFFFFFFFFFFFFFFFFFFFFFFFFFFFFF AND EQ PUSH2 0x126D JUMPI CALLER PUSH1 0x40 MLOAD PUSH32 0xB1C2E6100000000000000000000000000000000000000000000000000000000 DUP2 MSTORE PUSH1 0x4 ADD PUSH2 0x1264 SWAP2 SWAP1 PUSH2 0x1509 JUMP JUMPDEST PUSH1 0x40 MLOAD DUP1 SWAP2 SUB SWAP1 REVERT JUMPDEST JUMP JUMPDEST PUSH2 0x1277 PUSH2 0x1302 JUMP JUMPDEST PUSH20 0xFFFFFFFFFFFFFFFFFFFFFFFFFFFFFFFFFFFFFFFF AND PUSH2 0x1295 PUSH2 0x7EB JUMP JUMPDEST PUSH20 0xFFFFFFFFFFFFFFFFFFFFFFFFFFFFFFFFFFFFFFFF AND EQ PUSH2 0x12F4 JUMPI PUSH2 0x12B8 PUSH2 0x1302 JUMP JUMPDEST PUSH1 0x40 MLOAD PUSH32 0x118CDAA700000000000000000000000000000000000000000000000000000000 DUP2 MSTORE PUSH1 0x4 ADD PUSH2 0x12EB SWAP2 SWAP1 PUSH2 0x1509 JUMP JUMPDEST PUSH1 0x40 MLOAD DUP1 SWAP2 SUB SWAP1 REVERT JUMPDEST JUMP JUMPDEST PUSH2 0x12FF DUP2 PUSH2 0x13B5 JUMP JUMPDEST POP JUMP JUMPDEST PUSH0 CALLER SWAP1 POP SWAP1 JUMP JUMPDEST PUSH2 0x1311 PUSH2 0x126F JUMP JUMPDEST DUP1 PUSH1 0x1 PUSH0 PUSH2 0x100 EXP DUP2 SLOAD DUP2 PUSH20 0xFFFFFFFFFFFFFFFFFFFFFFFFFFFFFFFFFFFFFFFF MUL NOT AND SWAP1 DUP4 PUSH20 0xFFFFFFFFFFFFFFFFFFFFFFFFFFFFFFFFFFFFFFFF AND MUL OR SWAP1 SSTORE POP DUP1 PUSH20 0xFFFFFFFFFFFFFFFFFFFFFFFFFFFFFFFFFFFFFFFF AND PUSH2 0x1370 PUSH2 0x7EB JUMP JUMPDEST PUSH20 0xFFFFFFFFFFFFFFFFFFFFFFFFFFFFFFFFFFFFFFFF AND PUSH32 0x38D16B8CAC22D99FC7C124B9CD0DE2D3FA1FAEF420BFE791D8C362D765E22700 PUSH1 0x40 MLOAD PUSH1 0x40 MLOAD DUP1 SWAP2 SUB SWAP1 LOG3 POP JUMP JUMPDEST PUSH1 0x1 PUSH0 PUSH2 0x100 EXP DUP2 SLOAD SWAP1 PUSH20 0xFFFFFFFFFFFFFFFFFFFFFFFFFFFFFFFFFFFFFFFF MUL NOT AND SWAP1 SSTORE PUSH2 0x13E2 DUP2 PUSH2 0x13E5 JUMP JUMPDEST POP JUMP JUMPDEST PUSH0 PUSH0 PUSH0 SWAP1 SLOAD SWAP1 PUSH2 0x100 EXP SWAP1 DIV PUSH20 0xFFFFFFFFFFFFFFFFFFFFFFFFFFFFFFFFFFFFFFFF AND SWAP1 POP DUP2 PUSH0 PUSH0 PUSH2 0x100 EXP DUP2 SLOAD DUP2 PUSH20 0xFFFFFFFFFFFFFFFFFFFFFFFFFFFFFFFFFFFFFFFF MUL NOT AND SWAP1 DUP4 PUSH20 0xFFFFFFFFFFFFFFFFFFFFFFFFFFFFFFFFFFFFFFFF AND MUL OR SWAP1 SSTORE POP DUP2 PUSH20 0xFFFFFFFFFFFFFFFFFFFFFFFFFFFFFFFFFFFFFFFF AND DUP2 PUSH20 0xFFFFFFFFFFFFFFFFFFFFFFFFFFFFFFFFFFFFFFFF AND PUSH32 0x8BE0079C531659141344CD1FD0A4F28419497F9722A3DAAFE3B4186F6B6457E0 PUSH1 0x40 MLOAD PUSH1 0x40 MLOAD DUP1 SWAP2 SUB SWAP1 LOG3 POP POP JUMP JUMPDEST PUSH1 0x40 MLOAD DUP1 PUSH1 0x80 ADD PUSH1 0x40 MSTORE DUP1 PUSH0 DUP2 MSTORE PUSH1 0x20 ADD PUSH0 DUP2 MSTORE PUSH1 0x20 ADD PUSH0 DUP2 MSTORE PUSH1 0x20 ADD PUSH0 DUP2 MSTORE POP SWAP1 JUMP JUMPDEST PUSH0 PUSH20 0xFFFFFFFFFFFFFFFFFFFFFFFFFFFFFFFFFFFFFFFF DUP3 AND SWAP1 POP SWAP2 SWAP1 POP JUMP JUMPDEST PUSH0 PUSH2 0x14F3 DUP3 PUSH2 0x14CA JUMP JUMPDEST SWAP1 POP SWAP2 SWAP1 POP JUMP JUMPDEST PUSH2 0x1503 DUP2 PUSH2 0x14E9 JUMP JUMPDEST DUP3 MSTORE POP POP JUMP JUMPDEST PUSH0 PUSH1 0x20 DUP3 ADD SWAP1 POP PUSH2 0x151C PUSH0 DUP4 ADD DUP5 PUSH2 0x14FA JUMP JUMPDEST SWAP3 SWAP2 POP POP JUMP JUMPDEST PUSH0 PUSH0 REVERT JUMPDEST PUSH2 0x152F DUP2 PUSH2 0x14E9 JUMP JUMPDEST DUP2 EQ PUSH2 0x1539 JUMPI PUSH0 PUSH0 REVERT JUMPDEST POP JUMP JUMPDEST PUSH0 DUP2 CALLDATALOAD SWAP1 POP PUSH2 0x154A DUP2 PUSH2 0x1526 JUMP JUMPDEST SWAP3 SWAP2 POP POP JUMP JUMPDEST PUSH0 DUP2 SWAP1 POP SWAP2 SWAP1 POP JUMP JUMPDEST PUSH2 0x1562 DUP2 PUSH2 0x1550 JUMP JUMPDEST DUP2 EQ PUSH2 0x156C JUMPI PUSH0 PUSH0 REVERT JUMPDEST POP JUMP JUMPDEST PUSH0 DUP2 CALLDATALOAD SWAP1 POP PUSH2 0x157D DUP2 PUSH2 0x1559 JUMP JUMPDEST SWAP3 SWAP2 POP POP JUMP JUMPDEST PUSH0 DUP2 SWAP1 POP SWAP2 SWAP1 POP JUMP JUMPDEST PUSH2 0x1595 DUP2 PUSH2 0x1583 JUMP JUMPDEST DUP2 EQ PUSH2 0x159F JUMPI PUSH0 PUSH0 REVERT JUMPDEST POP JUMP JUMPDEST PUSH0 DUP2 CALLDATALOAD SWAP1 POP PUSH2 0x15B0 DUP2 PUSH2 0x158C JUMP JUMPDEST SWAP3 SWAP2 POP POP JUMP JUMPDEST PUSH0 PUSH0 PUSH0 PUSH0 PUSH0 PUSH1 0xA0 DUP7 DUP9 SUB SLT ISZERO PUSH2 0x15CF JUMPI PUSH2 0x15CE PUSH2 0x1522 JUMP JUMPDEST JUMPDEST PUSH0 PUSH2 0x15DC DUP9 DUP3 DUP10 ADD PUSH2 0x153C JUMP JUMPDEST SWAP6 POP POP PUSH1 0x20 PUSH2 0x15ED DUP9 DUP3 DUP10 ADD PUSH2 0x156F JUMP JUMPDEST SWAP5 POP POP PUSH1 0x40 PUSH2 0x15FE DUP9 DUP3 DUP10 ADD PUSH2 0x15A2 JUMP JUMPDEST SWAP4 POP POP PUSH1 0x60 PUSH2 0x160F DUP9 DUP3 DUP10 ADD PUSH2 0x15A2 JUMP JUMPDEST SWAP3 POP POP PUSH1 0x80 PUSH2 0x1620 DUP9 DUP3 DUP10 ADD PUSH2 0x15A2 JUMP JUMPDEST SWAP2 POP POP SWAP3 SWAP6 POP SWAP3 SWAP6 SWAP1 SWAP4 POP JUMP JUMPDEST PUSH0 PUSH0 PUSH1 0x40 DUP4 DUP6 SUB SLT ISZERO PUSH2 0x1643 JUMPI PUSH2 0x1642 PUSH2 0x1522 JUMP JUMPDEST JUMPDEST PUSH0 PUSH2 0x1650 DUP6 DUP3 DUP7 ADD PUSH2 0x153C JUMP JUMPDEST SWAP3 POP POP PUSH1 0x20 PUSH2 0x1661 DUP6 DUP3 DUP7 ADD PUSH2 0x156F JUMP JUMPDEST SWAP2 POP POP SWAP3 POP SWAP3 SWAP1 POP JUMP JUMPDEST PUSH2 0x1674 DUP2 PUSH2 0x1583 JUMP JUMPDEST DUP3 MSTORE POP POP JUMP JUMPDEST PUSH0 PUSH1 0x20 DUP3 ADD SWAP1 POP PUSH2 0x168D PUSH0 DUP4 ADD DUP5 PUSH2 0x166B JUMP JUMPDEST SWAP3 SWAP2 POP POP JUMP JUMPDEST PUSH0 PUSH1 0x20 DUP3 DUP5 SUB SLT ISZERO PUSH2 0x16A8 JUMPI PUSH2 0x16A7 PUSH2 0x1522 JUMP JUMPDEST JUMPDEST PUSH0 PUSH2 0x16B5 DUP5 DUP3 DUP6 ADD PUSH2 0x15A2 JUMP JUMPDEST SWAP2 POP POP SWAP3 SWAP2 POP POP JUMP JUMPDEST PUSH0 DUP2 ISZERO ISZERO SWAP1 POP SWAP2 SWAP1 POP JUMP JUMPDEST PUSH2 0x16D2 DUP2 PUSH2 0x16BE JUMP JUMPDEST DUP3 MSTORE POP POP JUMP JUMPDEST PUSH0 PUSH1 0x20 DUP3 ADD SWAP1 POP PUSH2 0x16EB PUSH0 DUP4 ADD DUP5 PUSH2 0x16C9 JUMP JUMPDEST SWAP3 SWAP2 POP POP JUMP JUMPDEST PUSH0 PUSH1 0x20 DUP3 DUP5 SUB SLT ISZERO PUSH2 0x1706 JUMPI PUSH2 0x1705 PUSH2 0x1522 JUMP JUMPDEST JUMPDEST PUSH0 PUSH2 0x1713 DUP5 DUP3 DUP6 ADD PUSH2 0x153C JUMP JUMPDEST SWAP2 POP POP SWAP3 SWAP2 POP POP JUMP JUMPDEST PUSH0 DUP2 MLOAD SWAP1 POP SWAP2 SWAP1 POP JUMP JUMPDEST PUSH0 DUP3 DUP3 MSTORE PUSH1 0x20 DUP3 ADD SWAP1 POP SWAP3 SWAP2 POP POP JUMP JUMPDEST PUSH0 DUP2 SWAP1 POP PUSH1 0x20 DUP3 ADD SWAP1 POP SWAP2 SWAP1 POP JUMP JUMPDEST PUSH2 0x174E DUP2 PUSH2 0x14E9 JUMP JUMPDEST DUP3 MSTORE POP POP JUMP JUMPDEST PUSH0 PUSH2 0x175F DUP4 DUP4 PUSH2 0x1745 JUMP JUMPDEST PUSH1 0x20 DUP4 ADD SWAP1 POP SWAP3 SWAP2 POP POP JUMP JUMPDEST PUSH0 PUSH1 0x20 DUP3 ADD SWAP1 POP SWAP2 SWAP1 POP JUMP JUMPDEST PUSH0 PUSH2 0x1781 DUP3 PUSH2 0x171C JUMP JUMPDEST PUSH2 0x178B DUP2 DUP6 PUSH2 0x1726 JUMP JUMPDEST SWAP4 POP PUSH2 0x1796 DUP4 PUSH2 0x1736 JUMP JUMPDEST DUP1 PUSH0 JUMPDEST DUP4 DUP2 LT ISZERO PUSH2 0x17C6 JUMPI DUP2 MLOAD PUSH2 0x17AD DUP9 DUP3 PUSH2 0x1754 JUMP JUMPDEST SWAP8 POP PUSH2 0x17B8 DUP4 PUSH2 0x176B JUMP JUMPDEST SWAP3 POP POP PUSH1 0x1 DUP2 ADD SWAP1 POP PUSH2 0x1799 JUMP JUMPDEST POP DUP6 SWAP4 POP POP POP POP SWAP3 SWAP2 POP POP JUMP JUMPDEST PUSH0 DUP2 MLOAD SWAP1 POP SWAP2 SWAP1 POP JUMP JUMPDEST PUSH0 DUP3 DUP3 MSTORE PUSH1 0x20 DUP3 ADD SWAP1 POP SWAP3 SWAP2 POP POP JUMP JUMPDEST PUSH0 DUP2 SWAP1 POP PUSH1 0x20 DUP3 ADD SWAP1 POP SWAP2 SWAP1 POP JUMP JUMPDEST PUSH2 0x1805 DUP2 PUSH2 0x1550 JUMP JUMPDEST DUP3 MSTORE POP POP JUMP JUMPDEST PUSH0 PUSH2 0x1816 DUP4 DUP4 PUSH2 0x17FC JUMP JUMPDEST PUSH1 0x20 DUP4 ADD SWAP1 POP SWAP3 SWAP2 POP POP JUMP JUMPDEST PUSH0 PUSH1 0x20 DUP3 ADD SWAP1 POP SWAP2 SWAP1 POP JUMP JUMPDEST PUSH0 PUSH2 0x1838 DUP3 PUSH2 0x17D3 JUMP JUMPDEST PUSH2 0x1842 DUP2 DUP6 PUSH2 0x17DD JUMP JUMPDEST SWAP4 POP PUSH2 0x184D DUP4 PUSH2 0x17ED JUMP JUMPDEST DUP1 PUSH0 JUMPDEST DUP4 DUP2 LT ISZERO PUSH2 0x187D JUMPI DUP2 MLOAD PUSH2 0x1864 DUP9 DUP3 PUSH2 0x180B JUMP JUMPDEST SWAP8 POP PUSH2 0x186F DUP4 PUSH2 0x1822 JUMP JUMPDEST SWAP3 POP POP PUSH1 0x1 DUP2 ADD SWAP1 POP PUSH2 0x1850 JUMP JUMPDEST POP DUP6 SWAP4 POP POP POP POP SWAP3 SWAP2 POP POP JUMP JUMPDEST PUSH0 DUP2 MLOAD SWAP1 POP SWAP2 SWAP1 POP JUMP JUMPDEST PUSH0 DUP3 DUP3 MSTORE PUSH1 0x20 DUP3 ADD SWAP1 POP SWAP3 SWAP2 POP POP JUMP JUMPDEST PUSH0 DUP2 SWAP1 POP PUSH1 0x20 DUP3 ADD SWAP1 POP SWAP2 SWAP1 POP JUMP JUMPDEST PUSH2 0x18BC DUP2 PUSH2 0x1583 JUMP JUMPDEST DUP3 MSTORE POP POP JUMP JUMPDEST PUSH0 PUSH2 0x18CD DUP4 DUP4 PUSH2 0x18B3 JUMP JUMPDEST PUSH1 0x20 DUP4 ADD SWAP1 POP SWAP3 SWAP2 POP POP JUMP JUMPDEST PUSH0 PUSH1 0x20 DUP3 ADD SWAP1 POP SWAP2 SWAP1 POP JUMP JUMPDEST PUSH0 PUSH2 0x18EF DUP3 PUSH2 0x188A JUMP JUMPDEST PUSH2 0x18F9 DUP2 DUP6 PUSH2 0x1894 JUMP JUMPDEST SWAP4 POP PUSH2 0x1904 DUP4 PUSH2 0x18A4 JUMP JUMPDEST DUP1 PUSH0 JUMPDEST DUP4 DUP2 LT ISZERO PUSH2 0x1934 JUMPI DUP2 MLOAD PUSH2 0x191B DUP9 DUP3 PUSH2 0x18C2 JUMP JUMPDEST SWAP8 POP PUSH2 0x1926 DUP4 PUSH2 0x18D9 JUMP JUMPDEST SWAP3 POP POP PUSH1 0x1 DUP2 ADD SWAP1 POP PUSH2 0x1907 JUMP JUMPDEST POP DUP6 SWAP4 POP POP POP POP SWAP3 SWAP2 POP POP JUMP JUMPDEST PUSH0 PUSH1 0x60 DUP3 ADD SWAP1 POP DUP2 DUP2 SUB PUSH0 DUP4 ADD MSTORE PUSH2 0x1959 DUP2 DUP7 PUSH2 0x1777 JUMP JUMPDEST SWAP1 POP DUP2 DUP2 SUB PUSH1 0x20 DUP4 ADD MSTORE PUSH2 0x196D DUP2 DUP6 PUSH2 0x182E JUMP JUMPDEST SWAP1 POP DUP2 DUP2 SUB PUSH1 0x40 DUP4 ADD MSTORE PUSH2 0x1981 DUP2 DUP5 PUSH2 0x18E5 JUMP JUMPDEST SWAP1 POP SWAP5 SWAP4 POP POP POP POP JUMP JUMPDEST PUSH0 PUSH1 0x20 DUP3 ADD SWAP1 POP DUP2 DUP2 SUB PUSH0 DUP4 ADD MSTORE PUSH2 0x19A3 DUP2 DUP5 PUSH2 0x182E JUMP JUMPDEST SWAP1 POP SWAP3 SWAP2 POP POP JUMP JUMPDEST PUSH1 0x80 DUP3 ADD PUSH0 DUP3 ADD MLOAD PUSH2 0x19BF PUSH0 DUP6 ADD DUP3 PUSH2 0x18B3 JUMP JUMPDEST POP PUSH1 0x20 DUP3 ADD MLOAD PUSH2 0x19D2 PUSH1 0x20 DUP6 ADD DUP3 PUSH2 0x18B3 JUMP JUMPDEST POP PUSH1 0x40 DUP3 ADD MLOAD PUSH2 0x19E5 PUSH1 0x40 DUP6 ADD DUP3 PUSH2 0x18B3 JUMP JUMPDEST POP PUSH1 0x60 DUP3 ADD MLOAD PUSH2 0x19F8 PUSH1 0x60 DUP6 ADD DUP3 PUSH2 0x18B3 JUMP JUMPDEST POP POP POP POP JUMP JUMPDEST PUSH0 PUSH1 0x80 DUP3 ADD SWAP1 POP PUSH2 0x1A11 PUSH0 DUP4 ADD DUP5 PUSH2 0x19AB JUMP JUMPDEST SWAP3 SWAP2 POP POP JUMP JUMPDEST PUSH32 0x4E487B7100000000000000000000000000000000000000000000000000000000 PUSH0 MSTORE PUSH1 0x11 PUSH1 0x4 MSTORE PUSH1 0x24 PUSH0 REVERT JUMPDEST PUSH0 PUSH2 0x1A4E DUP3 PUSH2 0x1583 JUMP JUMPDEST SWAP2 POP PUSH2 0x1A59 DUP4 PUSH2 0x1583 JUMP JUMPDEST SWAP3 POP DUP3 DUP3 ADD SWAP1 POP DUP1 DUP3 GT ISZERO PUSH2 0x1A71 JUMPI PUSH2 0x1A70 PUSH2 0x1A17 JUMP JUMPDEST JUMPDEST SWAP3 SWAP2 POP POP JUMP JUMPDEST PUSH32 0x4E487B7100000000000000000000000000000000000000000000000000000000 PUSH0 MSTORE PUSH1 0x32 PUSH1 0x4 MSTORE PUSH1 0x24 PUSH0 REVERT JUMPDEST PUSH0 PUSH2 0x1AAE DUP3 PUSH2 0x1583 JUMP JUMPDEST SWAP2 POP PUSH32 0xFFFFFFFFFFFFFFFFFFFFFFFFFFFFFFFFFFFFFFFFFFFFFFFFFFFFFFFFFFFFFFFF DUP3 SUB PUSH2 0x1AE0 JUMPI PUSH2 0x1ADF PUSH2 0x1A17 JUMP JUMPDEST JUMPDEST PUSH1 0x1 DUP3 ADD SWAP1 POP SWAP2 SWAP1 POP JUMP JUMPDEST PUSH32 0x4E487B7100000000000000000000000000000000000000000000000000000000 PUSH0 MSTORE PUSH1 0x41 PUSH1 0x4 MSTORE PUSH1 0x24 PUSH0 REVERT JUMPDEST PUSH0 PUSH2 0x1B22 DUP3 PUSH2 0x1583 JUMP JUMPDEST SWAP2 POP PUSH2 0x1B2D DUP4 PUSH2 0x1583 JUMP JUMPDEST SWAP3 POP DUP3 DUP3 SUB SWAP1 POP DUP2 DUP2 GT ISZERO PUSH2 0x1B45 JUMPI PUSH2 0x1B44 PUSH2 0x1A17 JUMP JUMPDEST JUMPDEST SWAP3 SWAP2 POP POP JUMP INVALID LOG2 PUSH5 0x6970667358 0x22 SLT KECCAK256 BALANCE DIV 0x29 LT PUSH8 0xDA5AB9D21CDFE0DB XOR 0xE 0xC POP MUL POP STOP PUSH5 0xBE3E9B63D8 0xE2 0xDD SIGNEXTEND 0xAB PUSH16 0xD264736F6C634300081E003300000000 "
				},
				"gasEstimates": {
					"creation": {
						"codeDepositCost": "1408200",
						"executionCost": "infinite",
						"totalCost": "infinite"
					},
					"external": {
						"acceptOwnership()": "54721",
						"deleteSession(address,bytes32)": "infinite",
						"extendSession(address,bytes32,uint256,uint256,uint256)": "infinite",
						"gateway()": "2532",
						"getActiveSessions()": "infinite",
						"getDevicesForUser(address)": "infinite",
						"getExpiry(address,bytes32)": "3148",
						"getSession(address,bytes32)": "infinite",
						"isActive(address,bytes32)": "3158",
						"owner()": "2603",
						"pendingOwner()": "2603",
						"remainingSeconds(address,bytes32)": "infinite",
						"renounceOwnership()": "infinite",
						"setGateway(address)": "infinite",
						"totalUsers()": "2484",
						"transferOwnership(address)": "infinite",
						"upsertSession(address,bytes32,uint256,uint256,uint256)": "infinite",
						"userAt(uint256)": "5044"
					},
					"internal": {
						"_onlyGateway()": "infinite",
						"_transferOwnership(address)": "52275"
					}
				},
				"methodIdentifiers": {
					"acceptOwnership()": "79ba5097",
					"deleteSession(address,bytes32)": "ab8ea707",
					"extendSession(address,bytes32,uint256,uint256,uint256)": "8fba5aaa",
					"gateway()": "116191b6",
					"getActiveSessions()": "a0081805",
					"getDevicesForUser(address)": "bd9a8459",
					"getExpiry(address,bytes32)": "3b49ad47",
					"getSession(address,bytes32)": "be2ccf92",
					"isActive(address,bytes32)": "84a8f0ce",
					"owner()": "8da5cb5b",
					"pendingOwner()": "e30c3978",
					"remainingSeconds(address,bytes32)": "e00afc76",
					"renounceOwnership()": "715018a6",
					"setGateway(address)": "90646b4a",
					"totalUsers()": "bff1f9e1",
					"transferOwnership(address)": "f2fde38b",
					"upsertSession(address,bytes32,uint256,uint256,uint256)": "21922e3c",
					"userAt(uint256)": "598a96bf"
				}
			},
			"storageLayout": {
				"storage": [
					{
						"astId": 8,
						"contract": "contracts/src/SessionRegistry.sol:SessionRegistry",
						"label": "_owner",
						"offset": 0,
						"slot": "0",
						"type": "t_address"
					},
					{
						"astId": 156,
						"contract": "contracts/src/SessionRegistry.sol:SessionRegistry",
						"label": "_pendingOwner",
						"offset": 0,
						"slot": "1",
						"type": "t_address"
					},
					{
						"astId": 291,
						"contract": "contracts/src/SessionRegistry.sol:SessionRegistry",
						"label": "_sessions",
						"offset": 0,
						"slot": "2",
						"type": "t_mapping(t_address,t_mapping(t_bytes32,t_struct(Session)283_storage))"
					},
					{
						"astId": 295,
						"contract": "contracts/src/SessionRegistry.sol:SessionRegistry",
						"label": "_sessionUsers",
						"offset": 0,
						"slot": "3",
						"type": "t_array(t_address)dyn_storage"
					},
					{
						"astId": 300,
						"contract": "contracts/src/SessionRegistry.sol:SessionRegistry",
						"label": "_userDevices",
						"offset": 0,
						"slot": "4",
						"type": "t_mapping(t_address,t_array(t_bytes32)dyn_storage)"
					},
					{
						"astId": 306,
						"contract": "contracts/src/SessionRegistry.sol:SessionRegistry",
						"label": "_deviceRegistered",
						"offset": 0,
						"slot": "5",
						"type": "t_mapping(t_address,t_mapping(t_bytes32,t_bool))"
					},
					{
						"astId": 309,
						"contract": "contracts/src/SessionRegistry.sol:SessionRegistry",
						"label": "gateway",
						"offset": 0,
						"slot": "6",
						"type": "t_address"
					}
				],
				"types": {
					"t_address": {
						"encoding": "inplace",
						"label": "address",
						"numberOfBytes": "20"
					},
					"t_array(t_address)dyn_storage": {
						"base": "t_address",
						"encoding": "dynamic_array",
						"label": "address[]",
						"numberOfBytes": "32"
					},
					"t_array(t_bytes32)dyn_storage": {
						"base": "t_bytes32",
						"encoding": "dynamic_array",
						"label": "bytes32[]",
						"numberOfBytes": "32"
					},
					"t_bool": {
						"encoding": "inplace",
						"label": "bool",
						"numberOfBytes": "1"
					},
					"t_bytes32": {
						"encoding": "inplace",
						"label": "bytes32",
						"numberOfBytes": "32"
					},
					"t_mapping(t_address,t_array(t_bytes32)dyn_storage)": {
						"encoding": "mapping",
						"key": "t_address",
						"label": "mapping(address => bytes32[])",
						"numberOfBytes": "32",
						"value": "t_array(t_bytes32)dyn_storage"
					},
					"t_mapping(t_address,t_mapping(t_bytes32,t_bool))": {
						"encoding": "mapping",
						"key": "t_address",
						"label": "mapping(address => mapping(bytes32 => bool))",
						"numberOfBytes": "32",
						"value": "t_mapping(t_bytes32,t_bool)"
					},
					"t_mapping(t_address,t_mapping(t_bytes32,t_struct(Session)283_storage))": {
						"encoding": "mapping",
						"key": "t_address",
						"label": "mapping(address => mapping(bytes32 => struct SessionRegistry.Session))",
						"numberOfBytes": "32",
						"value": "t_mapping(t_bytes32,t_struct(Session)283_storage)"
					},
					"t_mapping(t_bytes32,t_bool)": {
						"encoding": "mapping",
						"key": "t_bytes32",
						"label": "mapping(bytes32 => bool)",
						"numberOfBytes": "32",
						"value": "t_bool"
					},
					"t_mapping(t_bytes32,t_struct(Session)283_storage)": {
						"encoding": "mapping",
						"key": "t_bytes32",
						"label": "mapping(bytes32 => struct SessionRegistry.Session)",
						"numberOfBytes": "32",
						"value": "t_struct(Session)283_storage"
					},
					"t_struct(Session)283_storage": {
						"encoding": "inplace",
						"label": "struct SessionRegistry.Session",
						"members": [
							{
								"astId": 276,
								"contract": "contracts/src/SessionRegistry.sol:SessionRegistry",
								"label": "expiresAt",
								"offset": 0,
								"slot": "0",
								"type": "t_uint256"
							},
							{
								"astId": 278,
								"contract": "contracts/src/SessionRegistry.sol:SessionRegistry",
								"label": "tierId",
								"offset": 0,
								"slot": "1",
								"type": "t_uint256"
							},
							{
								"astId": 280,
								"contract": "contracts/src/SessionRegistry.sol:SessionRegistry",
								"label": "totalPaid",
								"offset": 0,
								"slot": "2",
								"type": "t_uint256"
							},
							{
								"astId": 282,
								"contract": "contracts/src/SessionRegistry.sol:SessionRegistry",
								"label": "purchaseCount",
								"offset": 0,
								"slot": "3",
								"type": "t_uint256"
							}
						],
						"numberOfBytes": "128"
					},
					"t_uint256": {
						"encoding": "inplace",
						"label": "uint256",
						"numberOfBytes": "32"
					}
				}
			},
			"userdoc": {
				"kind": "user",
				"methods": {
					"deleteSession(address,bytes32)": {
						"notice": "Delete a session record entirely (for revocations)"
					},
					"extendSession(address,bytes32,uint256,uint256,uint256)": {
						"notice": "Extend an existing session (adds duration on top of current expiry)"
					},
					"gateway()": {
						"notice": "The gateway contract authorized to write sessions"
					},
					"getActiveSessions()": {
						"notice": "Get all currently active sessions — WARNING: O(n), use only off-chain"
					},
					"getDevicesForUser(address)": {
						"notice": "Get all device IDs for a user"
					},
					"getExpiry(address,bytes32)": {
						"notice": "Quick expiry check — returns 0 if not found or expired"
					},
					"getSession(address,bytes32)": {
						"notice": "Fetch full session data"
					},
					"isActive(address,bytes32)": {
						"notice": "Returns true if the session is currently valid"
					},
					"remainingSeconds(address,bytes32)": {
						"notice": "Returns remaining seconds (0 if expired)"
					},
					"setGateway(address)": {
						"notice": "Authorize a new gateway address (owner only)"
					},
					"totalUsers()": {
						"notice": "Total number of unique users who have ever had a session"
					},
					"upsertSession(address,bytes32,uint256,uint256,uint256)": {
						"notice": "Create or overwrite a session record"
					},
					"userAt(uint256)": {
						"notice": "Get user address by index (for iteration)"
					}
				},
				"notice": "Pure data storage for session state. Decoupled from logic so the         AccessGateway contract can be upgraded without losing historical data.",
				"version": 1
			}
		}
	}
}